:020000040800F2
:1000000008080020990200085B3800081330000837
:100010005938000861150008D33D000800000000B1
:10002000000000000000000000000000153C000877
:1000300063150008000000005D380008173C000848
:10004000B3020008B3020008B3020008B3020008BC
:10005000B3020008B3020008B3020008B3020008AC
:10006000B3020008B3020008B3020008B30200089C
:10007000B3020008B3020008B3020008B30200088C
:10008000B302000800000000B3020008B302000839
:10009000B3020008B3020008B3020008B30200086C
:1000A000B3020008B3020008B3020008B30200085C
:1000B000B3020008B3020008913C0008B302000834
:1000C000B3020008B3020008B3020008B30200083C
:1000D000B3020008B3020008B3020008B30200082C
:1000E000B3020008B3020008B3020008B30200081C
:1000F000B3020008B3020008B302000800000000C9
:1001000000000000B302000800000000B302000875
:10011000B3020008000000009D3C0008B302000884
:10012000B3020008B3020008B3020008B3020008DB
:10013000B30200080000000000000000B302000845
:10014000B3020008B3020008000000000000000035
:10015000000000000000000000000000000000009F
:10016000000000000000000000000000B3020008D2
:10017000B3020008000000000000000000000000C2
:1001800000000000B30200080000000000000000B2
:10019000000000000000000000000000000000005F
:1001A0000000000000000000B3020008B3020008D5
:1001B000B3020008B3020008B30200080000000008
:1001C00000000000B3020008000000000000000072
:1001D000B3020008B302000800F002F800F04CF887
:1001E0000AA090E8000C82448344AAF10107DA4592
:1001F00001D100F041F8AFF2090EBAE80F0013F098
:10020000010F18BFFB1A43F001031847485C0000B8
:10021000685C0000103A24BF78C878C1FAD8520749
:1002200024BF30C830C144BF04680C607047000070
:100230000023002400250026103A28BF78C1FBD8EF
:10024000520728BF30C148BF0B607047662904F0D1
:10025000C484642900F05480002070471FB504F066
:10026000B7FC00F0E9FB04000020002104F020F8B6
:10027000E0601FBD10B510BD00F0DEFC1146FFF7B9
:10028000EDFF03F0A5FF00F0FCFC03B4FFF7F2FF65
:1002900003BC00F03FFD00000948804709480047C3
:1002A000FEE7FEE7FEE7FEE7FEE7FEE7FEE7FEE726
:1002B000FEE7FEE704480549054A064B7047000083
:1002C000813C0008D901000808020020080800202D
:1002D00008040020080400200FB41CB5074B06AA30
:1002E0007B4469460090059800F08DFB002069462C
:1002F00000F09CFB1CBC5DF814FB000049070000EB
:100300002DE9F0410646002410687529314616A5EE
:1003100010D0AFF30080002802DA404213A507E0B6
:1003200031688A0701D512A502E0490704D511A555
:10033000012401E0AFF3008000210A2206F1240726
:1003400009E0B0FBF2FCB0FBF2F302FB1C00303022
:1003500078541846491C0028F3D123462A463046D3
:10036000BDE8F04100F0E2B8000000002D00000000
:100370002B000000200000002DE9F0474FF0000A9C
:1003800089460446C0F820A02046E1688847002836
:1003900076D0252806D0D4E901219047206A401C58
:1003A0002062F1E7E168204600268847C4F81CA0D7
:1003B00005460027C4F818A02A2D09D0284603F0C6
:1003C00031FD38B304EB8708303DC8F8185019E008
:1003D00059F8041B204604EB87029161E1688847C5
:1003E000012F054618D1E069002820DA26F0200602
:1003F0001DE0D8F8180000EB800005EB4000303815
:10040000C8F818002046E1688847054603F00AFD51
:100410000028EED1012F0AD02E2D08D12046E16808
:1004200088477F1C0546022F46F02006C4DBA069E2
:10043000002803DA404246F00106A061F00701D02F
:1004400026F010066C2D0AD0682D08D04C2D39D01E
:100450006A2D35D0742D35D07A2D33D016E0E16871
:100460002F4620468847B84205460AD16C2F27D030
:100470004FF48060E168064320468847054605E062
:1004800027E06C2F1AD04FF4807006430DB3A5F10E
:100490004100192802D8203546F400664A4629460C
:1004A000204626604E46FFF7D1FE80B101280BD0D2
:1004B000F61D26F0070000F1080965E74020E4E793
:1004C0008020D7E70020D5E706F104095CE728463D
:1004D00061E7206ABDE8F0874FF0000200B51346DF
:1004E00094469646203922BFA0E80C50A0E80C5054
:1004F000B1F12001BFF4F7AF090728BFA0E80C5005
:1005000048BF0CC05DF804EB890028BF40F8042BFD
:1005100008BF704748BF20F8022B11F0804F18BF6A
:1005200000F8012B70477047704770472DE9F0477E
:100530000D4699469246044600F124080168880653
:1005400004D5E06921F01001216000E00120A842FB
:1005500001DD471B00E00027A1697A1902EB0900C1
:10056000081AA0612078C00602D42046AFF30080AC
:10057000002608E0D4E901211AF806009047206A15
:10058000401C761C20624E45F4DB2078C0060AD55C
:100590002046AFF3008006E0D4E9012130209047E7
:1005A000206A401C2062381EA7F10107F4DC07E036
:1005B000D4E9012118F805009047206A401C206208
:1005C000281EA5F10105F3DC2046AFF3008020785A
:1005D000000602D50220BDE8F0870120FBE7704746
:1005E0002DE9FF4F0C461E464FF0FF378BB0D2E986
:1005F0000001DDF860800A908A46C1F30A5505B90A
:100600003D46002108464FF00000BAF1000F00F40B
:10061000400005DA00EB80004FF4400101EA500091
:100620004FEA9059B9F1010F00DDB9460A9850EA36
:100630004A000ED044F61050A5F2FF3545432F1462
:10064000B8F1000F1ED07542291E1EDDC9F100024F
:100650001CE0B8F1010F4FF0000001D0302103E0A1
:10066000F24305E02154401CB042FBDB304600223F
:10067000002121540B99C1F80880C1E900200FB076
:10068000BDE8F08FBD1B6D1CDEE74A4600DA69420B
:1006900006A800F05BFA06AB93E8070003AB83E81B
:1006A000070050460A9900F03CFB8DE80700A0F5D2
:1006B00000501F3800900398002D0ADD42F21F0100
:1006C0004A460844002303A90390684600F0A5FDAC
:1006D00009E0A0F500504A461F38002303A9039003
:1006E000684600F0AFFD8DE807000004000C03D061
:1006F0004FF0FF30410800E01046B8F1000F03D082
:100700000022009215461EE0751E05D400F098F9EF
:10071000303262556D1EF9D5B3460122084302D02E
:1007200000227F1C04E02078302801D100227F1EA7
:10073000002A099784D01DE0112D07DA00F080F916
:10074000303262556D1C50EA0102F5D1084302D0E7
:100750000098C8B10EE00021681E05E0235C625CD1
:1007600063542254401E491C8142F7DBAB46A81B50
:10077000401E0990002004F80B000B98099AC0F85D
:100780000880C0E9002B7AE711264FF0000857E7F0
:100790002DE9F04F88460446D21D22F0070191B0A2
:1007A000D1E90001CDE90A0103F014FB02460B98E0
:1007B000C00F01D02D2007E02068810701D52B2034
:1007C00002E0202101EAC000032A099001D0072A93
:1007D00005DB03464146204600F078F90BE120781E
:1007E000800601D5E06900E00620B8F1650F81467A
:1007F00006D0B8F1660F18D0B8F1670F70D131E0AC
:100800000020B9F1110F009001DB112301E009F183
:1008100001030AAA01A90CA8FFF7E2FEDDE90C70AA
:10082000002609F10105834647E001204B46009070
:100830004FF000470AAA01A90CA8FFF7D1FEDDE995
:100840000DB00C995D46002610B909F101000D1894
:10085000B9EB050003D4C0F1FF3609F10105A5EBA2
:1008600009002BE0B9F1010F01DA4FF00109002076
:10087000B9F1110F0090484601DD112300E0034655
:100880000AAA01A90CA8FFF7ABFEDDE90C704D46E2
:1008900000268346207800070AD4AB4500DA5D467F
:1008A00001A8012D04DD411911F8011C302907D0E0
:1008B0004F4502DA17F1040F04DA012082460FE0F7
:1008C0006D1EEEE7002F02DCED1B3E4403E0781CBA
:1008D000A84200DD7D1CB81B00F1010A4FF0004763
:1008E0002078000703D4AA4501DB4FF0FF3A00212E
:1008F000B7F1004F0DF143088DF8431024D00220CA
:100900002B23002F01DA7F422D230A21021EA0F1A2
:10091000010000DC5FB197FBF1FC97FBF1F201FBFA
:100920001C7C17460CF1300C08F801CDEEE7A8F15D
:10093000010003702188090501D5452100E06521EA
:10094000A0F1010800F8011C09980FA9A1EB080704
:10095000FF1D00B10120411901EBEA70A169384483
:10096000081A401EA0612078C00602D42046AFF3CA
:100970000080099828B1D4E901219047206A401CE1
:1009800020622078C00622D52046AFF300801EE00A
:10099000002E04DBB34502DD01A8805D00E03020BD
:1009A000D4E901219047206A401C2062761CAAF1FC
:1009B00001005FEA000A0AD100F03EF8C068016851
:1009C000405CD4E901219047206A401C2062281E27
:1009D000A5F10105DCDC07E0D4E9012118F8010BE1
:1009E0009047206A401C2062381EA7F10107F3DC03
:1009F0002046AFF30080032011B041E601694A1C94
:100A000002610878704700B58FB0CDE9013100214F
:100A1000059105497944CDE9031011466846FFF771
:100A2000ABFC0FB000BD0000E5FFFFFF0A6802F855
:100A3000010B0A607047000000487047C8010020A1
:100A400030B5B0F10A024FEA900E71F100034EEAA0
:100A5000817EB0EB0E0061EB91014FEA101E4EEA71
:100A6000017E10EB0E0041EB11114FEA102E4EEA01
:100A7000016E10EB0E0041EB11214FEA104E4EEAD1
:100A8000014E10EB0E0041EB1141401841F1000105
:100A90004FEAD00040EA41704FEAD10110EB8005E7
:100AA0004FEA810444EA907444EB01046D1944EB6D
:100AB0000404521BA3414FF0000348BF0A3200D583
:100AC00030BD401C41F1000130BD00002DE9F04176
:100AD0001F46044603260168072A01F4006004DB70
:100AE00008B116A505E016A503E008B115A500E0BC
:100AF00015A521F010002060A069C01EA0610FB1F3
:100B0000401EA0612046AFF300804FB1D4E901211F
:100B100038469047206A401C2062C01C206206E0D4
:100B2000206AFAE7D4E9012115F8010B9047761EF7
:100B3000F8D22046AFF30080BDE8F0814E414E0070
:100B40006E616E00494E4600696E66002DE9F04701
:100B5000814616468AB0354878440DC88DE80D00A8
:100B600032487844801C03AC0DC884E80D0041F67F
:100B70009B300844372190FBF1F290FBF1F5A5F191
:100B8000800501FB12041B3C02D56442012000E0F9
:100B90000020DFF898A080460027FA44AAF1BE0A98
:100BA0000EE0E0070AD03246684607EB4701012312
:100BB0000AEB810100F046FB8DE8070064107F1C02
:100BC000002CEED1194F7F44AE3F19E0E80715D055
:100BD00007EB04100DF1180A90E80E008AE80E00E9
:100BE000C068F04201D1981908903246012306A945
:100BF00003A800F027FB03AB83E807006D10641C1B
:100C0000002DE3D14FF0010332466946B8F1000FE1
:100C100003A802D000F001FB01E000F013FBC9E9DA
:100C20000001C9F808200AB0BDE8F087E0520000D2
:100C300000487047A80100207546FFF7F9FFAE464F
:100C400005006946534620F00700854618B020B5D8
:100C5000FFF730FBBDE820404FF000064FF00007E3
:100C60004FF000084FF0000B21F00701AC46ACE854
:100C7000C009ACE8C009ACE8C009ACE8C0098D46C1
:100C8000704710B50446AFF300802046BDE8104021
:100C9000FFF7FBBA4FF0013C50F8042B51F8043B2E
:100CA0009A4221D1A2EB0C03934313EACC1317D140
:100CB00050F8042B51F8043B9A4215D1A2EB0C03D7
:100CC000934313EACC130BD150F8042B51F8043B97
:100CD0009A4209D1A2EB0C03934313EACC13DBD065
:100CE0004FF00000704700BFD01A01BAB1FA81F18D
:100CF00001F0180122FA01F0CB40C1F12001DBB272
:100D0000C0B2C01A2CFA01F3D11A914311EAC311EF
:100D1000E6D1704701491820ABBEFEE7260002006D
:100D200070475FEA400C08BF91F0000F4FEA8C2338
:100D30004FEAC12243EA51514FEA1C5018BF00F557
:100D4000F0404FEA300018BF41F000415FEA6C5CB0
:100D500000F02980BCF1FF3F08BF40F080407047A1
:100D6000130C06BF12044FF0100C4FF0000C130EC2
:100D700004BF12020CF1080C130F04BF12010CF196
:100D8000040C930F04BF92000CF1020CD30F04BFAC
:100D900052000CF1010C11464FF00002A0F11F00AF
:100DA000A0EB0C00704711F0004F08BF704731F006
:100DB00000413FF4D5AF0B0C06BF09044FF0100CF7
:100DC0004FF0000C0B0E04BF09020CF1080C0B0FC6
:100DD00004BF09010CF1040C8B0F04BF89000CF156
:100DE000020CCB0F04BF49000CF1010CCCF1200325
:100DF000A0EB0C0022FA03F302FA0CF241EA030121
:100E000000F10100704720F07F4C80EA030023F0DE
:100E10007F47ACEB070303F57C5300F0004003F180
:100E2000FF032DE980494FEA154B09B44FEA1443FB
:100E300025EA0B4E24EA03480FF2042606EB13279B
:100E400049083E785FEA320203FB0667C7F50007F0
:100E500007FB06F64FEA54374FEAD64606F102067C
:100E600007FB066CCCF1005C4FEA1C472CEA074CF0
:100E700007FB06F40CFB06F504EB15464FEA961645
:100E800034BF00204FF000404FEAD13706FB07FC8B
:100E90004FEA1C4C0CFB0BF7D21B03FB0CF761EB6E
:100EA00007010CFB0EF7B0EB074072EB17420CFB8F
:100EB00008F734BFA2EB0742B2EB074261EB1741E0
:100EC0004FEA0C444FEA910706FB07FC4FEA1C4C23
:100ED0000CFB0BF7B0EBC74072EB573203FB0CF780
:100EE00034BFA2EBC742B2EBC74261EB57310CFBF8
:100EF0000EF7B0EBC70072EB57720CFB08F734BF6C
:100F0000A2EBC702B2EBC70261EB5771039F4FEA36
:100F1000816141EA921104EBCC044FEAD1374FEAE8
:100F2000826206FB07FC42EA90124FEA80604FEAB9
:100F30001C4C0CFB0BF7D21B03FB0CF761EB0701FE
:100F40000CFB0EF7B0EB074072EB17420CFB08F7F7
:100F500034BFA2EB0742B2EB074261EB17414FEA05
:100F60008C554FEA910704EB9C2406FB07FC4FEAE3
:100F70001C4C0CFB0BF7B0EBC74072EB573203FB7A
:100F80000CF734BFA2EBC742B2EBC74261EB57315B
:100F90000CFB0EF7B0EBC70072EB57720CFB08F7B7
:100FA00034BFA2EBC702B2EBC70261EB577115EB7E
:100FB0004C254FEA816141EA92114FEA82624FEA81
:100FC000D13742EA901206FB07FC44F100044FEAD5
:100FD00080604FEA1C4C0CFB0BF7D21B03FB0CF799
:100FE00061EB07010CFB0EF7B0EB074072EB174209
:100FF0000CFB08F734BFA2EB0742B2EB074261EBF0
:10100000174115EB1C154FEA813141EA92414FEA35
:10101000823242EA90424FEA80304FEA0C7644F145
:10102000000448EA03434EEA0B484FF0000EB2EBCF
:10103000080C71EB030724BF624639464EEB0E0ED7
:101040004FF0000B0018524149414BEB0B0BB2EB38
:10105000080C71EB03077BF1000B24BF6246394695
:101060004EEB0E0E4FF0000B0018524149414BEB76
:101070000B0BB2EB080C71EB03077BF1000B24BFE9
:10108000624639464EEB0E0E51EA020718BF46F093
:10109000010616EB0E7655F1000254F1000103D55E
:1010A000BDE88901BDE80088BDE88901BDE80048C8
:1010B000B619524141EB0101A3F101037047808051
:1010C0007F7E7D7C7B7A79787776767574737271A2
:1010D00071706F6E6E6D6C6C6B6A6A69686867665A
:1010E00066656464636362616160605F5F5E5E5DEC
:1010F0005D5C5C5B5B5A5A59595858575756565560
:1011000055555454535352525251515050504F4FC1
:101110004F4E4E4D4D4D4C4C4C4B4B4B4A4A4A4911
:101120004949484848474747474646464545454454
:101130004444444343434342424242414141002BE1
:101140009C4630D477002BD01CB54FEA370703B448
:101150004FF010004FF01001BAF1000F06D0BCF1B3
:10116000000FDCBF40F0080040F008014FF0000025
:101170000FBCBDE810400BF1010BBBF1010F08BF24
:101180005FEA170722BF12F1010211F101014FF0CE
:10119000004143F1000300F0004043EA00007047C3
:1011A000F9D35708D0E746EA064613F1400F4FEA55
:1011B00016461FDD13F1200FDFBF16430A4600213C
:1011C00020335B42BED0C3F1200746EA064602FA4E
:1011D00007F74FEA164646EA0706C3F1200722FA48
:1011E00003F201FA07F721FA03F14FF0000342EA94
:1011F0000702A7E746EA020646EA06464FEA16460F
:1012000046EA0106BCBF46EA0646360C4FF000032C
:101210004FF000024FF0000194E72DE9804C9A4610
:10122000934670B491E8380007C831EA400C48BFD3
:1012300034EA430C03D5FFF7E6FDFFF780FFF0BC6F
:10124000BDE8008C2DE9804C9A46934670B491E835
:10125000380007C810F0804F08BF13F0804F03D14B
:1012600000F005F8FFF76BFFF0BCBDE8008C20F044
:101270007F4780EA030023F07F4C07EB0C03A3F5C4
:101280007C5300F00040A3F1FE0392F0000F00F049
:10129000B38095F0000F00F077802DE901494FEA07
:1012A00011404FEA144621EA004800FB06FC24EAFC
:1012B000064708FB06F607FB08F800FB07F718EBE4
:1012C00006484CEB164C4FEA124B18EB07484FEA16
:1012D00015464CEB174022EA0B4E0BFB06FC25EAA9
:1012E00006470EFB06F607FB0EFE0BFB07F71EEB91
:1012F000064E4CEB164C4FF000061EEB074E4CEB27
:10130000174B18EB0B0840F1000018EB0E0B58EBD5
:10131000000840F100008F1A4FF000013CBFC943A4
:10132000661B14BFB5EB040C00213CBFC943F61B80
:101330004FEA17444EEA8E0E27EA04454FEA1C474F
:1013400004FB07622CEA074C05FB07F70CFB05F6CC
:1013500004FB0CFC16EB074642EB174216EB0C465F
:1013600042EB1C421BEB060658EB0202414146EAE7
:101370009E0601D5BDE80189B619524141EB010134
:10138000A3F10103BDE801894FEA14454FEA114773
:1013900024EA054621EA074C05FB07F406FB07F79C
:1013A0000CFB06F105FB0CFC11EB074144EB174469
:1013B0004FEA124711EB0C4144EB1C4422EA074C64
:1013C00005FB07F206FB07F70CFB06F605FB0CFC1A
:1013D00016EB074642EB174216EB0C4642EB1C4558
:1013E0006A1854F1000148BF7047B619524141EBE9
:1013F0000101A3F10103704795F0000F37D04FEAC8
:1014000011424FEA144721EA024624EA074C02FB44
:1014100007F106FB07F70CFB06F402FB0CFC14EBD0
:10142000074441EB17414FEA154714EB0C4441EBDD
:101430001C4125EA074C02FB07F506FB07F70CFBEE
:1014400006F602FB0CFC16EB074645EB174516EBC0
:101450000C4645EB1C42121951F1000148BF704780
:10146000B619524141EB0101A3F1010370474FEA64
:1014700014454FEA114724EA054621EA074C05FBCB
:1014800007F106FB07F70CFB06F24FF0000605FB21
:101490000CFC12EB074241EB174112EB0C4251EBF3
:1014A0001C4148BF7047921841EB0101A3F10103B1
:1014B00070470000F8B5044600200090206881685D
:1014C00011F0010F41D18168214A11422ED181686A
:1014D000D5432940491C81601E48806800F0E070B7
:1014E00000020DD51C481D490068B0FBF1F0401CFE
:1014F00000EB4000800000E0401E00900028FBD17F
:1015000000F046FD06461BE0816811F0010F03D193
:1015100081682940491C816000F03AFD801B022847
:101520000ED920680068C043C00709D0E06D40F0C4
:101530001000E065206E40F0010020660120F8BD3B
:1015400020680168C943C907DED10020F8BD00004A
:101550003F000080000300503C000020400D0300CD
:10156000FEE77047002240F6B83306E00021491C30
:1015700089B29942FBD3521C92B28242F6D3704791
:1015800072B6FEE72DE9F84F00270446009790F861
:101590005800DFF8E0930D46B846012811D0012627
:1015A00084F85860206802F00DF860B1E06D40F0FA
:1015B0002000E0655FF0010784F858803846BDE8F8
:1015C000F88F0220FBE7D5E900210C23206803EA0D
:1015D00091131844036B01F01F014FF01F0C0CFA1C
:1015E00001FCC2F3846223EA0C038A4013430363C1
:1015F000206801F0E7FF8246206801F0DFFF5AEA29
:1016000000003CD1AA6829682068B2F1004F37D0A9
:1016100001F0DCFF2068416921F000414161206850
:101620006969C268C2F3C102520091402A69042A62
:1016300031D000EB82002B68026EDFF83CC303F070
:10164000F84302EA0C020B431A4342F000410166E0
:1016500020682A69A96900EB8200026E22F080727C
:101660000A430266297F22682869012910D00021D7
:1016700002EB8000026E22F000720A4302667DE0F7
:10168000002201F0A3FF2068416941F00041C5E755
:101690004FF00071ECE7002101F08AFF4003206861
:1016A0004FF0000172D001F083FF90FAA0F0B0FA81
:1016B00080F1286842036ED090FAA0F0B0FA80F072
:1016C000814204D100221146206801F08EFF0121E1
:1016D000206801F06DFF400320684FF001015DD0EC
:1016E00001F066FF90FAA0F0B0FA80F1286842039A
:1016F00059D090FAA0F0B0FA80F0814204D10022D3
:101700000121206801F071FF0221206801F050FFE3
:10171000400320684FF0020148D001F049FF90FAE1
:10172000A0F0B0FA80F12868420344D090FAA0F00B
:10173000B0FA80F0814204D100220221206801F039
:1017400054FF0321206801F033FF400320684FF06D
:10175000030133D001F02CFF90FAA0F0B0FA80F131
:10176000286842032FD090FAA0F0B0FA80F08142AE
:1017700004D100220321206801F037FF206881682E
:1017800011F0010F22D0ACE000E004E001F010FF06
:10179000C0F384618DE7C0F3846091E701F008FF36
:1017A000C0F38461A2E7C0F38460A6E701F000FF04
:1017B000C0F38461B7E7C0F38460BBE701F0F8FED3
:1017C000C0F38461CCE7C0F38460D0E72A7B29684A
:1017D00050F8B03FC1F3120C23EA0C0302F0180CCE
:1017E000664A22FA0CF20A4013430360E96849454D
:1017F00077D1286841031CD090FAA0F1B1FA81F1A9
:10180000491C01F01F0109294FEA403132D8002953
:1018100012D000BF90FAA0F1B1FA81F101F10101FB
:1018200001F01F0106FA01F609D100BFC0F384617F
:1018300009E0C0F38461E3E7C0F38461EEE790FA66
:10184000A0F1B1FA81F101F1010101F01F0146EAB5
:10185000816102D1C0F3846003E090FAA0F0B0FA95
:1018600080F000F1010000F01F0000EB400041EAB1
:10187000005132E000290ED090FAA0F1B1FA81F1C6
:1018800001F1010101F01F0106FA01F606D100BFC6
:10189000C0F3846106E0C0F38461F1E790FAA0F13F
:1018A000B1FA81F101F1010101F01F0146EA816104
:1018B00002D1C0F3846003E090FAA0F0B0FA80F0A7
:1018C00000F1010000F01F002D4A00EB400002EB88
:1018D000005041EA000141F00071AA68206801F05F
:1018E00075FE28482A6802423FF466AE26488168A1
:1018F000264B01F0E0719A4202D0254B9A421CD14E
:101900000B021AD42268B2F1A04F7FF455AE826860
:1019100041F4000122F0E0720A4382601D481E4932
:101920000068B0FBF1F0401C00EB4000800000E0DC
:10193000401E00900028FBD13EE6184D184BAA42ED
:1019400007D1CD0105D422689A42F5D041F08071CB
:1019500009E0144DAA42EFD14A02EDD422689A421E
:10196000EAD041F48001826822F0E0720A4382608A
:1019700022E6000000007F4000F0FF03FFFF0700A9
:10198000000020FE0000088000030050000021C37A
:101990001000C0903C000020400D0300000052C722
:1019A00000010050000084CB0068006C704700000C
:1019B000F8B54FF0000504002E46009502D0E06D0A
:1019C00010B107E00120F8BD204600F0EBF82666D4
:1019D00084F8586020688168C1F3407119B181684A
:1019E000684A1140816020688168C1F3007189B93B
:1019F0008168654A114041F08051816063486449C3
:101A00000068B0FBF1F04000801C00E0401E009038
:101A10000028FBD120688168C1F3007141B9E16DF4
:101A200041F01001E165216E41F0010121660125BF
:101A300001F0C8FDE16DC90600D430B1E06D40F0A1
:101A40001000E06501252846F8BDE06D20F48070A7
:101A500040F00200E0652068806810F0010F11D1AD
:101A60004FF0A04080684B4900F00100896801F008
:101A70000101084306D148486168826822F47C125B
:101A80000A438260E168E06B627F0843A16841EA33
:101A90004231084394F8241040EA0140012904D15E
:101AA000218D3E4A02EB41410843E16A29B101F42C
:101AB0007871226B014342EA01002268D168384BF9
:101AC00019400143D16020680169626B21F04061D7
:101AD00011430161206801F071FD70BB207F94F813
:101AE0003810800340EA41022168C86844F20203CA
:101AF00098431043C86020690028206801690AD013
:101B000041F480310161206850F8C01F22696FF3F1
:101B10000D01114307E021F480310161206850F884
:101B2000C01F6FF30D01016094F8400001280CD034
:101B30002068016921F001010161606901282068C4
:101B4000016B21F00F0111D013E0D4E9110108431A
:101B5000D4E913121143084321680A6940F2FC7367
:101B60009A43104340F001000861E6E7226A521EE2
:101B700011430163E06D20F0020040F00100E065D8
:101B800061E70000C0FFFF5FC0FFFF7F3C00002057
:101B9000400D030000010050000300500000FEFF54
:101BA0000740F0FF10B598B00446142111A8FEF7C5
:101BB00093FC44216846FEF78FFC15492068884253
:101BC00023D1C401400500940F90684600F0DEFA6E
:101BD00008B1FFF7D5FC0F48C16C41F40051C16456
:101BE000C16C01F400511691C16C41F00201C16455
:101BF000C06C11A900F0020016900320CDE911403D
:101C000000201390044800F095F818B010BD0000B3
:101C10000001005000100240000400482DE9F0418E
:101C200004463848806800F01F05206801F0CAFCAF
:101C300018B102210846BDE8F08194F85800012847
:101C40000CD0012084F858002046FFF733FC010037
:101C50004FF0000304D084F85830EBE70220EAE7A5
:101C6000E06D40F60162904340F48070E065264AE2
:101C700020684FF0A046904201D1374600E0074669
:101C8000874200D01DB9E76D27F48017E765E76D3F
:101C9000FF0404D5276E27F00607276600E02366B9
:101CA0001C27076084F858302068904201D13346E1
:101CB00000E00346834215D0A5B1052D12D0092DB1
:101CC00010D0E36D43F48013E365904200D13046B9
:101CD000C0688001AED5E06D20F4005040F4805023
:101CE000E065A7E7C268920105D5E26D22F40052D3
:101CF00042F48052E2658268044B1A40121D8260F1
:101D000098E700000003005000010050C0FFFF7F73
:101D100070B5044600F03CF90546601C02D004484A
:101D20004068044400F034F9401BA042FAD370BD6F
:101D3000300000202DE9F04FDFF82092002301262B
:101D40000324A9F1040B85B00F2709F1040AABF1B4
:101D5000040EFAE006FA03F52A407CD091F804C09C
:101D60000CF0030CBCF1010F02D0BCF1020F26D124
:101D7000D0F808C0CDF800C04FEA430C04FA0CF8C4
:101D8000CDF810C0DDF800C02CEA080CCDF800C07A
:101D9000D1F80C80DDF810C008FA0CF8DDF800C0AE
:101DA00048EA0C08C0F80880D0F804C02CEA050CFA
:101DB0000D79C5F300159D4045EA0C0545600D7988
:101DC000ED43AD070ED0C5684FEA430804FA08FC9E
:101DD00025EA0C05D1F808C00CFA08FC4CEA050C01
:101DE000C0F80CC00D7905F00305022D16D1DD08F1
:101DF00000EB850CCDF808C0DCF820805D074FEAC9
:101E0000D56C07FA0CF528EA05080D6905FA0CF5FA
:101E1000DDF808C045EA0805CCF8205005684FEA0F
:101E2000430CCDF808C004FA0CFC25EA0C0591F827
:101E300004C00CF00308DDF808C008FA0CF848EA02
:101E40000508C0F800804D6815F4403F7CD0444D33
:101E5000D5F860C000E077E04CF0010CC5F860C038
:101E60002D6E23F0030C05F0010500953D4D6544F2
:101E70000295AD684FEA837C4FEA1C7807FA08FCAC
:101E800025EA0C05B0F1904F06D0DFF8DCC06045C4
:101E900005D14FF0010C20E04FF0000C1DE0DFF801
:101EA000CCC0604502D14FF0020C16E0DFF8C0C094
:101EB000604502D14FF0030C0FE0DFF8B8C0604579
:101EC00002D14FF0040C08E0DFF8ACC0604502D14D
:101ED0004FF0050C01E04FF0060C0CFA08FC4CEA40
:101EE000050C029DC5F808C0D9F80050CC46D1F8C1
:101EF000048095435FEAC82800D51543CCF800500C
:101F0000DAF80050D446D1F8048095435FEA882877
:101F100000D51543CCF80050DBF80050DC46D1F872
:101F2000048095435FEA883800D51543CCF800500B
:101F3000DEF80050F446D1F8048095435FEAC838D3
:101F400000D51543CCF800505B1C0A6832FA03F543
:101F50007FF400AF05B0BDE8F08F00000804014039
:101F60000010024000000140000400480008004842
:101F7000000C0048001000480014004800690840A8
:101F800000D0012070470AB18161704781627047BB
:101F900001488068704700003000002002488168D6
:101FA00042681144816070473000002010B5002461
:101FB000032000F073F80F2000F008F808B10124A6
:101FC00001E000F025F8204610BD000070B50E4E6F
:101FD00005460024706898B14FF47A71B1FBF0F0B7
:101FE0000A490968B1FBF0F000F03CFD40B9102D42
:101FF00006D200222946501E00F030F8356000E07D
:102000000124204670BD0000300000203C0000206C
:102010000A4882B0016E41F001010166016E01F0D3
:1020200001010091816D41F080518165806D00F06A
:102030008050009002B000F0A1B8000000100240F3
:10204000002809DB00F01F020121914040098000B7
:1020500000F1E020C0F8001170470000F0B40E4B12
:102060001B680C46C3F30223C3F10705042D00D9F6
:102070000425191D072901D2002300E0DB1E0126DB
:1020800006FA05F1491E214099409E40761E1640F1
:102090003143F0BC01F0B6BE0CED00E0064900F0A3
:1020A000070208684FF6FF03184040EA0220034A7F
:1020B00010430860704700000CED00E00000FA05D6
:1020C0002B492C4B0A6832214A432B4940B1B0F5C9
:1020D000007F086829D020F4C06040F480602CE0C4
:1020E0000868C0F34120022804D051F8800F20F482
:1020F000807022E0D1F8800020F48070C1F8800068
:10210000086820F4C06040F400700860B2FBF3F08F
:10211000401C00E0401E4A69520501D50028F9D153
:10212000486940050AD503207047C0F341200228C2
:1021300006D051F8800F40F480700860002070478E
:10214000D1F8800040F48070C1F88000086820F465
:10215000C06040F400700860B2FBF3F0401C00E087
:10216000401E4A695205DBD50028F9D1D8E70000A6
:102170003C00002040420F0000700040024881688F
:1021800041F4804181607047007000402DE9F843C0
:102190000446006800269D4D00035ED5A86D00270B
:1021A000C00008D4A86D40F08050A865A86D012734
:1021B00000F080500090DFF85892D9F8001041F4F8
:1021C0008071C9F80010FFF7E3FE804606E000BF0B
:1021D000FFF7DEFEA0EB080002282BD8D9F800009C
:1021E000C005F5D5D5F8900010F4407014D0216CDE
:1021F000814211D0D5F89000D5F8901020F44070AD
:1022000041F48031C5F89010D5F8901021F4803158
:10221000C5F89010C5F89000C00711D0FFF7B8FEC0
:10222000804641F2883907E0FFF7B2FEA0EB0801D3
:10223000494501D903260BE0D5F890008007F3D576
:10224000D5F89000216C20F440700843C5F8900048
:102250001FB1A86D20F08050A8652078C00707D076
:10226000D5F88800616820F003000843C5F88800AD
:102270002078800707D5D5F88800A16820F00C00E9
:102280000843C5F888002078400707D5D5F88800AE
:10229000E16820F030000843C5F888002078000786
:1022A00007D5D5F88800216920F0C0000843C5F89B
:1022B00088002078800607D5D5F88800616920F469
:1022C00040600843C5F888002078400607D5D5F857
:1022D0008800A16920F440500843C5F888002078A0
:1022E000000607D5D5F88800E16920F4404008438E
:1022F000C5F888002088C00507D5D5F88800216A70
:1023000020F440300843C5F888002088800507D5B0
:10231000D5F88800616A20F440200843C5F8880099
:10232000208840050FD5D5F88800A16A20F4401018
:102330000843C5F88800A06AB0F5801F03D1E8689B
:1023400040F48010E860208800050FD5D5F888009B
:10235000E16A20F440000843C5F88800E06AB0F55F
:10236000800F03D1E86840F48010E8602088C00442
:102370000FD5D5F88800216B20F040700843C5F8D0
:102380008800206BB0F1807F03D1E86840F48010B2
:10239000E86020884FF0006180040ED5D5F88800F1
:1023A000626B20F040601043C5F88800606B884283
:1023B00003D1E86840F48010E860208840040ED51E
:1023C000D5F88800A26B20F040601043C5F8880063
:1023D000A06B884203D1E86840F48010E860208850
:1023E00000040FD5D5F88800E16B20F04050084379
:1023F000C5F88800E06BB0F1805F03D1E86840F475
:102400008030E8603046BDE8F883000000100240EC
:10241000007000402DE9F0470E4605004FF0000720
:1024200025D0DFF8AC81D8F8000000F00F00B042F2
:102430000CD2D8F8001021F00F013143C8F8001079
:10244000D8F8000000F00F00B04210D12968614CAC
:10245000C80741F2883A5AD06868DFF87C910328AF
:1024600008D0022820682DD0400500282CDB012050
:10247000BDE8F08720688001F9D5E06800F003022C
:10248000E068C0F30310401C032A19D0534A00BF70
:10249000B2FBF0F0E268C2F306225043E268C2F3F6
:1024A0004162521C5200B0FBF2F0484517D9A068B7
:1024B00010F0F00F0CD0880711D5A86840B10EE0DD
:1024C000474AE5E78003D0E700F092F8484506D98F
:1024D000A06820F0F00040F08000A0608027A06895
:1024E000696820F003000843A060FFF751FD8146B2
:1024F00006E000BFFFF74CFDA0EB090151453AD8BB
:10250000A068696800F00C00B0EB810FF2D1286878
:10251000810714D5400703D5A06840F4E060A060AF
:102520002878000705D5A06820F4605040F4E060EA
:10253000A060A068A96820F0F000084304E0802FA4
:1025400003D1A06820F0F000A060D8F80010404649
:1025500001F00F01B14216D9016821F00F0131439A
:102560000160FFF715FD074607E000BFFFF710FD0C
:10257000C11B514501D903207AE7D8F8000000F0CB
:102580000F00B042F2D12878400705D5A068E9686D
:1025900020F4E0600843A0602878000706D5A06812
:1025A000296920F4605040EAC100A06000F020F8E2
:1025B000A1680C4AC1F30311515C01F01F01C8402E
:1025C0000949086009480068BDE8F047FFF7FEBC0C
:1025D000002002400010024000B4C4040024F400B3
:1025E00000366E01DE4B00083C0000203000002069
:1025F000184910B58868C0F381021748012A0BD02A
:102600008A68164BC2F38102022A06D08A68C2F396
:102610008102032A03D0002010BD184610BDCA68ED
:1026200002F00304CA68C2F30312521C032C02D046
:10263000B0FBF2F001E0B3FBF2F0CA68C968C2F384
:1026400006225043C1F34161491C4900B0FBF1F03F
:1026500010BD0000001002400024F40000366E019E
:102660002DE9F84304007AD02078F84DC00747D010
:10267000A868E96800F00C0001F003010C2802D002
:10268000082817D001E0032914D06068B0F5803F16
:1026900017D0B0F5A02F286817D020F4803028601C
:1026A000286820F4802028606068E0B1FFF770FCA3
:1026B000064614E02868800322D560680028D2D03E
:1026C0001EE0286840F48030EDE740F48020286068
:1026D000F7E700BFFFF75CFC801B642870D8286810
:1026E0008003F7D50CE0FFF753FC064605E000BF7A
:1026F000FFF74EFC801B6428F0D828688003F7D4CD
:10270000207880074CD5A868E96800F00C0001F03B
:1027100003010C2802D004280DD001E002290AD0C0
:10272000E068002828682BD040F480702860FFF70C
:102730002FFC064619E02868400502D5E06800280D
:1027400091D06868217C20F0FE4040EA016068601A
:10275000BF480068FFF73AFC002800D120E072E192
:10276000FFF716FC801B0228B8D828684005F7D56B
:102770006868217C20F0FE4040EA016068600FE05C
:1027800020F480702860FFF703FC064605E000BFD8
:10279000FFF7FEFB801B0228A0D828684005F7D46D
:1027A0002078000729D560690028D5F8940013D057
:1027B00040F00100C5F89400FFF7EAFB064606E08A
:1027C00090E000BFFFF7E4FB801B022886D8D5F815
:1027D00094008007F6D510E020F00100C5F89400C1
:1027E000FFF7D6FB064604E0FFF7D2FB801B02286A
:1027F00078D8D5F894008007F6D42078400761D5C2
:10280000A86D0026C00008D4A86D40F08050A865CF
:10281000A86D012600F0805000908E480168C9051F
:1028200011D40168804641F480710160FFF7B0FB6C
:10283000074604E0FFF7ACFBC01B022852D8D8F8CB
:102840000000C005F6D5A068012815D00528D5F8E8
:10285000900016D020F00100C5F89000D5F8900047
:1028600020F00400C5F89000A06841F28838B8B1A3
:10287000FFF78EFB07460EE0D5F8900040F0010010
:10288000F0E740F00400C5F89000F5E7FFF780FBA3
:10289000C11B414526D8D5F890008007F6D50CE03D
:1028A000FFF776FB074604E0FFF772FBC11B4145CB
:1028B00018D8D5F890008007F6D41EB1A86D20F086
:1028C0008050A8652078800629D5A0690028D5F811
:1028D000980013D040F00100C5F89800FFF758FBAE
:1028E000064606E075E000BFFFF752FB801B02289A
:1028F0006FD8D5F898008007F6D510E020F00100D9
:10290000C5F89800FFF744FB064604E0FFF740FBDC
:10291000801B02285DD8D5F898008007F6D4E069BE
:10292000F0B3A968C1F3810103295DD002282868AA
:1029300020F08070286003D0FFF72AFB04464BE0AC
:10294000FFF726FB064604E0FFF722FB801B022868
:102950003FD828688001F7D4F4E908016FF00F022E
:1029600002EB01110843218A5204490802EB41514C
:10297000A26841EA02210843217D4FF07E424908C6
:1029800002EB41610843217B40EAC160E968324AB9
:1029900011400843E860286840F08070286000E03B
:1029A0005EE0E86840F08070E860FFF7F1FA044606
:1029B00005E000BFFFF7ECFA001B022809D82868E1
:1029C0008001F7D54CE000BFFFF7E2FA001B0228B8
:1029D00002D90320BDE8F88328688001F4D4E868B0
:1029E0001E490840E8603BE00128F3D0E868226A0D
:1029F00000F00301914226D1616A00F0F002090162
:102A0000103991421FD1A26A00F4FE41B1EB022FAE
:102A100019D194F82C2000F07841B1EBC26F12D19B
:102A2000218E00F4C00249084905A1F50011914228
:102A300009D194F8341000F0C06049084906A1F1AA
:102A4000007181420CD00120C4E700000010024058
:102A500030000020007000400C809F01FCFFEEFE63
:102A60000020B7E710B5401EB0F1807F01D30120F0
:102A700010BD4FF0E02460610F21601701F0C2F932
:102A80000020A06107202061002010BD7047704722
:102A90007047704770477047F0B590F83C20012AA6
:102AA0003AD0012580F83C50022280F83D2003688E
:102AB0005A689C68194E1A4FB34201D0BB4204D1E8
:102AC00022F4700C4A6842EA0C02DFF858C002EAAD
:102AD0000C02D1F800C04CEA020CC3F804C0026832
:102AE000B2420DD0B2F1804F0AD00F4B9A4207D0BC
:102AF0000E4B9A4204D0BA4202D00D4B9A4204D1F6
:102B0000896824F080031943916080F83D500021CA
:102B100080F83C100846F0BD0220F0BD002C0140BA
:102B2000003401408FFFFFFD00040040000800401A
:102B300000400140704710B5040003D094F83D00F8
:102B400010B107E0012010BD002084F83C002046B1
:102B500000F022F8022084F83D00211D206801F0D9
:102B6000A3F8012084F8480084F83E0084F83F0070
:102B700084F8400084F8410084F8420084F843005F
:102B800084F8440084F8450084F8460084F847003F
:102B900084F83D00002010BD08B51A4A01681A48A3
:102BA00091420ED1816D41F004018165806D00225A
:102BB00000F00400009011461E20FFF74FFA1E207F
:102BC00010E0124A914211D1816D41F010018165EE
:102BD000806D002200F01000009011463620FFF7B3
:102BE0003DFA3620BDE80840FFF72ABA084A91426C
:102BF00007D1016E41F480210166006E00F480204F
:102C0000009008BD00080040001002400010004085
:102C10000048014090F83D10012901D00120704783
:102C2000022180F83D100168CA6842F00102CA60C2
:102C30000068104988420ED0B0F1804F0BD00E4989
:102C4000884208D00D49884205D00D49884202D0FB
:102C50000C49884207D181680B4A1140062906D0E9
:102C6000B1F5803F03D0016841F00101016000200F
:102C700070470000002C01400004004000080040A4
:102C80000034014000400140070001000168CA68AB
:102C900022F00102CA6001680A6A41F211131A4265
:102CA00007D10A6A9B001A4203D10A6822F0010286
:102CB0000A60012180F83D100020704770B504467D
:102CC00090F83C000025012814D0012684F83C60CF
:102CD000022084F83D0022689068364B184020F4AA
:102CE0007F409060086870282ED010DC10F00F0F25
:102CF00003D021E04FF0020070BD4FEA2012072AF6
:102D00001AD2DFE802F0525252524A3840002A4B9F
:102D1000C21A984249D009DCB0F5805F0DD0B0F5F9
:102D2000005F1CD0B0F1101F06D13EE0102A3CD04D
:102D3000202A3AD0502A38D0012584F83D6000205E
:102D400084F83C00284670BDCB68D1E90121206899
:102D500001F008F82068816841F0770109E0CB684C
:102D6000D1E90121206800F0FDFF2068816841F46D
:102D700080418160E1E7CA684968206801F006F88F
:102D80005021206806E0CA684968206801F00FF801
:102D90006021206800F0F0FFCFE7CA68496820682A
:102DA00000F0F4FF40212068F4E722680146104655
:102DB000F0E7000088FFCEFF2000100070472DE9EB
:102DC000F04104460068C66805694FF00007A9078E
:102DD00013D5B10711D5F91E0161012020772068B4
:102DE00080698007204602D0FFF7E8FF04E000F08A
:102DF000B7F8204600F0B5F82777680716D57007B2
:102E000014D521686FF00400086102202077206843
:102E1000806910F4407F204602D0FFF7CFFF04E026
:102E200000F09EF8204600F09CF82777280715D57B
:102E3000300713D521686FF008000861042020775F
:102E40002068C0698007204602D0FFF7B7FF04E082
:102E500000F086F8204600F084F82777E80616D5BB
:102E6000F00614D521686FF0100008610820207763
:102E70002068C06910F4407F204602D0FFF79EFF13
:102E800004E000F06DF8204600F06BF82777E807C3
:102E900008D0F00706D021686FF0010008612046D5
:102EA00000F060F8280601D4A80408D5300606D53D
:102EB00021686FF4025008612046FFF7E8FDE8053D
:102EC00008D5300606D521686FF480700861204669
:102ED000FFF7DCFD680608D5700606D521686FF09F
:102EE00040000861204600F093F8A80608D5B00617
:102EF00006D521686FF0200008612046FFF7C8FD65
:102F0000E80208D5F00206D521686FF48010086148
:102F10002046FFF7BFFDA80208D5B00206D52168FC
:102F20006FF4001008612046FFF7B3FD680208D572
:102F3000700206D521686FF4800008612046FFF713
:102F4000AAFD28020AD5300208D521686FF40000D6
:102F500008612046BDE8F041FFF7ECBDBDE8F08117
:102F6000704770472DE9F0410546006823498842C3
:102F700039D1234E01213046FFF700F8214C0221C0
:102F800060703046FEF7FAFF207104213046FEF7EC
:102F9000F5FFE07101214FF09040FEF7EFFFA072C6
:102FA000002003465FF0010200EB4001665C26B1A1
:102FB000012E07D0022E13D10CE00E1976787EB9BF
:102FC00062540DE00E1976780EB1635408E00226C3
:102FD000665405E00E197778012F01D16354B27061
:102FE000401C0428E0DB08492868884203D10748D0
:102FF0000168491C0160BDE8F08100000008004044
:10300000000400489C0100200010004048000020FF
:103010007047FEE700B585B014216846FDF75CFAFD
:10302000C020009001200190029002200390694688
:103030000248FEF77FFE05B000BD00000004004816
:1030400070B50824002500F0ADFD13E06806050EFC
:10305000002000F08FFD142000F03EFF142000F04F
:103060003BFF012000F086FD142000F035FF00F04A
:103070008DFD0543641EE4B2E8D2002000F07AFD25
:10308000142000F029FF00F0AFFD284670BD70B598
:103090000446082516E000F06DFD142000F01CFF2A
:1030A00004F0800000F094FD142000F015FF60068D
:1030B000040E142000F010FF012000F05BFD14202E
:1030C00000F00AFF6D1EEDB24FF00000E3D200F0F9
:1030D00051FDBDE87040142000F0FEBE10B5012087
:1030E00000F076FD142000F0F7FE012000F042FD14
:1030F000142000F0F1FE002000F06AFD142000F022
:10310000EBFE002000F036FDBDE81040142000F07A
:10311000E3BE10B5002000F02DFD142000F0DCFE11
:10312000002000F055FD142000F0D6FE012000F034
:1031300021FD142000F0D0FE012000F049FDBDE883
:103140001040142000F0C8BE10B5052400F02AFD80
:10315000142000F0C1FE012000F00CFD142000F04E
:10316000BBFE05E0641EA4B2142000F0B5FE64B1FD
:1031700000F00CFD0028F5D100F0FCFC00F034FD5F
:10318000142000F0A9FE002010BD00F02DFDFFF777
:10319000C0FF012010BD000000B585B014216846B5
:1031A000FDF79AF94FF6FF70009000200321CDE95A
:1031B0000201019069460248FEF7BCFD05B000BD62
:1031C0000008004800B585B014216846FDF784F971
:1031D0004FF6FF7000900120019003200390002023
:1031E000029069460248FEF7A5FD05B000BD00004B
:1031F0000008004870B5002406462146204600F02D
:1032000013F900F051F94FF49635304600F020F9EB
:10321000641CAC42F9D370BD01A100F061B800009C
:10322000202020202020202020202020202020209E
:10323000202020200000000030B587B0142168460F
:10324000FDF74AF91E48C16C41F00401C164C16C2C
:1032500001F004010591C16C41F00101C164C16C30
:1032600001F001010591C16C41F00201C164C06C23
:10327000012500F0020005904FF44870CDE90005EB
:1032800000240394694602940E48FEF753FD280279
:1032900003940090CDE901544FF0904469462046D4
:1032A000FEF748FDFFF78EFFA06940F48070A06133
:1032B00004481830016841F40871016007B030BD5E
:1032C0000010024000040048203AD2B2034B02EB47
:1032D000420203EB021200F019B80000EE4B0008A6
:1032E000F0B50E460746002540F23F1407E02146A0
:1032F0003846FFF7E9FF103C6D1CA4B2761C32780B
:10330000002A01D0142DF2D3F0BD00002DE9F047C2
:1033100091468A460026044600F086F8DFF8408091
:10332000012700BF00F0C0F85FF0000539F8160073
:1033300007FA05F10842404601D1408800E00088C4
:1033400000F086F86D1C102DF0D3641CE4B25146D9
:10335000204600F069F8761C182EE3D3BDE8F0870C
:103360004000002010B5FFF767FF002000F014F8C0
:10337000084CA080A088A0F50241303906D000F0AA
:10338000F7FA002000F008F8A08010BD00F067FAFE
:10339000F7E700004000002070B51D490A6842F4BC
:1033A00000720A600A6842F480720A60184C103C8D
:1033B000226842F020022260164A1060086840F03D
:1033C0002000086000BF00BF00BF206840F0200060
:1033D0002060206840F480702060FFF7DDFE4FF031
:1033E0009041886A40F48070886200BF00BF00BFCF
:1033F0000848001F006885B2886940F480708861C1
:10340000FFF7E0FE206840F400702060284670BDA1
:10341000280400481408004801B5BDF8000001491F
:10342000488008BD4000002010B50C460146202011
:1034300000F068F82146BDE81040212000F062B895
:1034400001B5BDF800000149088008BD400000201A
:10345000134A116841F400711160114910390B6869
:1034600043F480730B600B6843F020030B600D4B3B
:103470001860106840F02000106000BF00BF00BF5F
:10348000086840F020000860086840F48070086018
:1034900000BF00BF00BF086840F4007008607047BC
:1034A00028040048140800481449086840F40070D3
:1034B0000860086840F4807008601048103802689E
:1034C00042F0200202600E4B22221A600A6842F08B
:1034D00020020A6000BF00BF00BF016841F0200168
:1034E0000160016841F48071016000BF00BF00BF4E
:1034F000016841F400710160704700002804004831
:1035000014080048184B10B51A6842F400721A608B
:103510001A6842F480721A60134A103A146844F030
:1035200020041460114C2060186840F020001860DE
:1035300000BF00BF00BF106840F02000106010689E
:1035400040F4807010602160186840F0200018601E
:1035500000BF00BF00BF106840F02000106010687E
:1035600040F48070106010BD280400481408004822
:1035700070B50D4D044601224FF6FF712846FEF747
:1035800002FD210200222846FEF7FDFC074C012225
:1035900004212046FEF7F7FC2046BDE870400022DB
:1035A0000421FEF7F0BC000000080048000C0048B1
:1035B00000EB8100006E00F0F84070478068C0F3B7
:1035C000C00070478068C0F380007047042303EA9E
:1035D000D15310B518444369C1F3045107248C40FA
:1035E000A3438A401343436110BD00EB8100016E89
:1035F00021F00041114301667047000030B589B0E9
:1036000020216846FCF768FF19481849002401602A
:103610004902C0E90114C46004250461C0E90545FC
:10362000047744770121016280F82440C462046376
:1036300080F83840C46380F84040FEF7B9F908B11B
:10364000FDF79EFF0B4800900620CDE901047F2086
:103650000594CDE9030569460548FDF793FF002869
:1036600001D0FDF78DFF09B030BD00000001005012
:103670004C0000200080F03E2DE9F04186B014217E
:103680006846FCF729FF3648C16C41F00401C1646B
:10369000C16C01F004010591C16C41F02001C164CD
:1036A000C16C01F020010591C16C41F00101C164C0
:1036B000C16C01F001010591C16C41F00201C164CE
:1036C000C16C01F002010591C16C41F00801C164B7
:1036D000C06C244E00F008004FF47F440590012296
:1036E00021463046FEF74FFC1F4F0022042138468A
:1036F000FEF749FCDFF874800022C0214046FEF747
:1037000042FC0125CDE9004500240294694630467B
:103710000394FEF70FFBCDE9005469464FF090404B
:103720000295FEF707FB07208DE831006946404609
:10373000FEF700FB04200090CDE9015469463846AD
:103740000394FEF7F7FAC0200090CDE901546946D2
:1037500040460394FEF7EEFA06B0BDE8F0810000A3
:103760000010024000080048000C00480004004817
:103770000C4810B50A49016040F28F1141600021E8
:1037800040F2E732C0E90212016141618161FFF755
:10379000D2F9002803D0BDE81040FDF7F1BE10BDFE
:1037A000004801405001002010B588B0002417489F
:1037B000009401940294039404940594124906948D
:1037C00001604F21C0E9011442F20F71C0E90314F6
:1037D0008461FFF7B0F908B1FDF7D2FE4FF48050D5
:1037E000009069460948FFF769FA08B1FDF7C8FE7D
:1037F000049404A905480694FFF74EF9002801D067
:10380000FDF7BEFE08B010BD00080040B800002063
:103810003EB500240F48009401940D4902940160C4
:1038200040F2CF71C0E9011449F63F418461C160A3
:10383000FFF781F908B1FDF7A3FE0094694605483A
:103840000294FFF729F9002801D0FDF799FE3EBD4B
:103850000010004004010020FEE7FEE7704730B58D
:1038600001210020FFF74EFE4FF47A70FDF77AFE3B
:1038700000210120FFF746FE41F290711020FFF772
:1038800041FE4FF41C516020FFF73CFE01216120F6
:10389000FFF738FE02214620FFF734FE48F2100100
:1038A0001320FFF72FFE48F2FE011220FFF72AFE39
:1038B0004FF4A0610220FFF725FE41F23001032002
:1038C000FFF720FE40F2033421463020FFF71AFEB6
:1038D00021463120FFF716FE21463220FFF712FE67
:1038E000E51E29463320FFF70DFE03213420FFF7A4
:1038F00009FE21463520FFF705FE14213620FFF78B
:1039000001FE21463720FFF7FDFD21463820FFF755
:10391000F9FD21463920FFF7F5FD29463A20FFF74A
:10392000F1FD03213B20FFF7EDFD21463C20FFF791
:10393000E9FD4FF4A0513D20FFF7E4FD4FF4007185
:103940009220FFF7DFFD21469320FFF7DBFD40F6D5
:103950000D019020FFF7D6FD41F218010320FFF77B
:10396000D1FDBDE8304040F273110720FFF7CABD1A
:1039700010B543F20801E320FFF7C4FD1221E72050
:10398000FFF7C0FD41F23121EF20FFF7BBFD002121
:103990000120FFF7B7FD4FF4E0610220FFF7B2FD11
:1039A00041F230010320FFF7ADFD00210420FFF7B5
:1039B000A9FD40F207210820FFF7A4FD00210920FE
:1039C000FFF7A0FD00210A20FFF79CFD00210C203D
:1039D000FFF798FD00210D20FFF794FD00210F2037
:1039E000FFF790FD00211020FFF78CFD072111202B
:1039F000FFF788FD00211220FFF784FD002113202E
:103A0000FFF780FDC820FEF783F941F29061102096
:103A1000FFF778FD40F227211120FFF773FD3220D8
:103A2000FEF776F91D211220FFF76CFD3220FEF71C
:103A30006FF94FF400611320FFF764FD1421292072
:103A4000FFF760FD0B212B20FFF75CFD3220FEF716
:103A50005FF900212020FFF755FD00212120FFF70D
:103A600051FD07213020FFF74DFD40F20771312055
:103A7000FFF748FD06213220FFF744FD40F20471B4
:103A80003520FFF73FFD41F604713620FFF73AFD80
:103A900004213720FFF736FD00213820FFF732FDE3
:103AA00040F206713920FFF72DFD40F201713C20F4
:103AB000FFF728FD0F213D20FFF724FD00215020B6
:103AC000FFF720FDEF215120FFF71CFD00215220C0
:103AD000FFF718FD40F23F115320FFF713FD4FF49D
:103AE0001C516020FFF70EFD01216120FFF70AFD48
:103AF00000216A20FFF706FD00218020FFF702FD6C
:103B000000218120FFF7FEFC00218220FFF7FAFC54
:103B100000218320FFF7F6FC00218420FFF7F2FC50
:103B200000218520FFF7EEFC10219020FFF7EAFC32
:103B300000219220FFF7E6FC03219320FFF7E2FC2F
:103B40004FF488719520FFF7DDFC00219720FFF7E7
:103B5000D9FC00219820FFF7D5FC41F21801032081
:103B6000FFF7D0FCBDE8104040F273110720FFF7CB
:103B7000C9BC000008B1044801E0034810300168E6
:103B800041F04001016070471804004810B58021E1
:103B90000348FEF7F3F9012800D0002010BD000013
:103BA0000004004800B585B014216846FCF794FC79
:103BB00080200090002001900120029002200390BC
:103BC00069460248FEF7B6F805B000BD000400489B
:103BD00008B1044801E003481030016841F0800159
:103BE000016070471804004800B585B0142168468C
:103BF000FCF772FC802000901120019000200290C0
:103C00000220039069460248FEF794F805B000BD13
:103C1000000400487047FEF7C1B910B594B03821D0
:103C20006846FCF759FC14210EA8FCF755FC4FF42C
:103C30000070FEF745FA0120009000040190022078
:103C40000324CDE907041421CDE90A100C900D904E
:103C500009946846FEF704FD08B172B6FEE70F202E
:103C6000CDE90E04002010901190129002210EA8B0
:103C7000FEF7D0FB002801D072B6FEE714B010BDED
:103C80000248016841F470010160704788ED00E06E
:103C90000148FFF794B80000B80000200148FFF782
:103CA0008EB80000040100202DE9F0430268264B85
:103CB000264D274E274C4FF08049984207D0484563
:103CC00005D0A84203D0B04201D0A04203D122F0D7
:103CD00070074A683A43204FDFF880C0DFF88080E1
:103CE00098420DD048450BD0A84209D0B04207D029
:103CF000A04205D0B84203D0604501D0404503D171
:103D000022F44075CA682A434D6922F080022A4392
:103D100002608A68C2620A688262984207D0A04242
:103D200005D0B84203D0604501D0404501D10969B2
:103D30000163012141610169C90703D0016921F0D3
:103D400001010161BDE8F083002C01400004004046
:103D500000080040003401400040014000440140A0
:103D60000048014010B5846842EA032224F47F44ED
:103D70000A432243826010BD8268034B1A400A4303
:103D800042F00701816070478FFFCFFF10B5036AD3
:103D9000046A24F001040462846924F0F00444EA13
:103DA000021423F00A020A438461026210BD10B5B6
:103DB000036A046A24F010040462846923F0A003F7
:103DC00024F4704444EA023243EA01118261016240
:103DD00010BDFEE703B401984100009850EAC120ED
:103DE00018BF04204A0D18BF40F0010040F2FF72D6
:103DF000B2EB515F08BF40F00200012808BF052068
:103E000002B070470907090E002804DB00F1E0202A
:103E100080F80014704700F00F0000F1E02080F8F7
:103E2000141D704730380A2801D201207047002045
:103E30007047000070B500252DED028B0126224C45
:103E4000224800F087F8B0EE408AF0EE608A94EDE8
:103E5000060B51EC180B53EC102B00F05FFC00D25A
:103E6000A56094ED060B51EC180B53EC102B00F0F1
:103E70008FFD15D294ED040B51EC180B53EC102B65
:103E800000F04CFC0CD2A06850B90020FFF7B2F94A
:103E90000F4805600F48FEF7BDFEA670C4E9026535
:103EA00094ED040B51EC180B53EC102B00F070FD4B
:103EB00007D2E068002804D10648FEF7E7FEA570A7
:103EC000E660BDEC028B70BD000000204C000020BD
:103ED0004800002004010020002100E0491C81422C
:103EE000FCD3704710B50446FFF7F8F8A020FFF7A1
:103EF000CEF8FFF729F92046FFF7C9F8FFF724F9B4
:103F0000FFF707F9FFF7EAF8A120FFF7C0F8FFF77E
:103F10001BF9FFF795F80446FFF716F9FFF7F9F8D4
:103F2000204610BD70B50D460446FFF7D7F8A02017
:103F3000FFF7ADF8FFF708F92046FFF7A8F8FFF7FD
:103F400003F92846FFF7A3F8FFF7FEF8BDE8704035
:103F5000FFF7DFB810B50446FDF760FE2046FDF719
:103F600023FD00F0C7FB9FED071B53EC112B00F066
:103F700011FC9FED061B53EC112B00F063FA41EC92
:103F8000100B10BD6666666666660A40000000009B
:103F90000076AF4070B52B4D2B4C00262DED068BD7
:103FA000A878012807D1207880F001002070002037
:103FB000FFF720F9AE7068799FED24AB9FED258B5C
:103FC0009FED269B012815D1207890B194ED080B28
:103FD00053EC1A2B51EC100B00F080F941EC100B54
:103FE00053EC182B84ED080B00F0D2FC01D284EDC9
:103FF000089B6E71287A012815D1207890B194ED34
:104000000A0B53EC1A2B51EC100B00F067F941EC42
:10401000100B53EC182B84ED0A0B00F0B9FC01D205
:1040200084ED0A9B2E72E87A012808D12071EE7285
:104030009020BDEC068BBDE87040FFF7EDB8BDECFD
:10404000068B70BD9C010020000000209A99999970
:104050009999B93F6666666666660A400000000088
:104060000000000010B5344C88B0207810B333A1A4
:104070006846FCF731F969460020FFF731F994ED05
:10408000080B31A153EC102B6846FCF725F9694663
:104090003020FFF725F994ED0A0B2EA153EC102BDD
:1040A0006846FCF719F969465FF04800FFF718F910
:1040B00008B010BD00F0D6F829A16846FCF70CF94D
:1040C00069460020FFF70CF92848FFF743FF53EC3F
:1040D000102B27A16846FCF7FFF869463020FFF750
:1040E000FFF8264826A102686846FCF7F5F86946FD
:1040F0004820FFF7F5F894ED040B23A153EC102BA7
:104100006846FCF7E9F869466020FFF7E9F894EDA6
:10411000060B20A153EC102B6846FCF7DDF869462E
:104120007820FFF7DDF862781DA16846FCF7D4F827
:1041300069469020BAE700000000002020202020DF
:10414000202020506172610020566D61783A252E42
:10415000316C660020566D696E3A252E316C660012
:104160002020202020202044617461004C00002089
:1041700020563A252E316C660000000048000020D1
:1041800020543A256400000020766D61783A252E8F
:10419000316C660020766D696E3A252E316C6600B2
:1041A000206565705F746573743A256400000000D3
:1041B0000648C1788078014201D0032004E009B1AB
:1041C000022001E000B10120FFF7D2B90000002079
:1041D000FDF7ECFEFFF721FDFFF74EFAFFF7E4FADB
:1041E000FFF7C6FAFFF70AFAFFF712FBFFF7BAF874
:1041F000FEF710FF0020FFF7BBF90020FEF7FAFFE3
:104200000020FFF709F94FF6FF70FFF719F913487F
:10421000FEF700FD124C0025207938B16F210120F6
:10422000FFF780FE0A20FDF773FD25710120FFF7DF
:1042300059FE60700120FFF755FE6F280BD000205B
:10424000FFF796F9FFF70EFFFFF7A4FEFFF7B0FFA9
:10425000FFF7F0FDE0E70120F2E70000B8000020E2
:104260000000002010B50F4C94ED0A0B53EC102BFE
:1042700094ED080B51EC100B00F0C0FB9FED0A1BF6
:1042800053EC112B00F084FB09D894ED080B0020AF
:1042900084ED040B94ED0A0B84ED060B00E0012085
:1042A000E07010BD00000020000000000000F03FA2
:1042B00010B500290AD00878002807D005487844AE
:1042C000FCF7E8FC002801D0002010BD024878442B
:1042D00010BD0000B61B0000AE1B000010B591EA37
:1042E000030F48BF83F0004300F19083841A71EB01
:1042F000030C05D2121943EB0C03001B61EB0C01FC
:10430000DFF824E14FEA1154A4EB135C1EEA430FDB
:1043100018BF9EEA445F73D023EA0E03DCF1200E3F
:1043200021EA045143F4801332D322FA0CFE10EB3D
:104330000E0023FA0CFE41EB0E01CCF1200E03FA25
:104340000EFE10EB0E0051F10001B1F5801FCCF113
:10435000200E32D201EB045112FA0EF2BDE81040E9
:1043600058BF7047401C38BF5FEA420218BF704711
:10437000002814BF20F0010041F100014FEA410381
:1043800013F5001F38BF7047A1F1C04100F0FABA21
:10439000012A43EB0302ACF1200CDCF11F0E32BF0B
:1043A0004FF0000E23FA0CF310EB030041EB045125
:1043B000B4EB115FD0D0A1EB045101F58011490895
:1043C0005FEA300001EB04510ED350F1000038BF1A
:1043D00012FA0EFE08D1BDE81040C9E7401C38BFF4
:1043E0005FEA4202CAD1C3E7BDE810404FEA410389
:1043F00013F5001F38BF7047A1F1C04100F0C2BAE9
:104400009EEA445F08D011EA5E0FBDE8104004BF89
:1044100001F0004100207047BDE8104070B500F089
:1044200063FA00BF64FBBE3E0000E0FF491058BFC6
:10443000C1F140415B1058BFC3F140438B42EFF3E1
:10444000008070472DE9C04130B4DFF8A0C23CEADB
:10445000111418BF3CEA131400F0EC8081EA030544
:104460001CEA111444EAD57418BF1CEA131500F0B5
:10447000C780A4EB05044FF0004545EAC12145EA99
:10448000C32341EA505143EA525304F17F749942E5
:1044900004F500344FEAC0204FEAC22208BF904220
:1044A00000F09C804FEA13650FF24016765D4FEAEC
:1044B000134506FB05F7C7F1807706FB07F74FEAC0
:1044C000D737A7FB03687642C8F58038A7FB06CE2E
:1044D00038BFA8F1010807FB08E64FF0000EA6FB65
:1044E000028CE6FB03CEDCF1000CCEF1004E38BFAF
:1044F000AEF1010EA6FB0C584FF000074FF000057F
:10450000E6FB0E87A1FB08C6A0FB07CE16EB0E0646
:1045100045F10005E1FB076515F1E04E7EBFA4F50E
:1045200080345FEA46066D4116F1800745F10005CB
:104530004FEA17274FEA066647EA0567A6F1DE4607
:10454000B6F1805F4FEA15251FD9384624F0010CDB
:1045500005EBC471BCF1FE6F01EB0C1102D8F0BC8D
:10456000BDE8008124425CBF01F5801E9EEAC47F45
:1045700002D4F0BCBDE80081244238D4F0BCA1F1E3
:10458000C041BDE8004100F0FDB94FEAD22242EA45
:1045900043524FEAD323A7FB02864FEAD02040EADA
:1045A000415007FB03661EEA0E0F4FEAD12105FBBF
:1045B000026658BFA6EB0056B6EB00564FEA520E05
:1045C0004EEAC37E18EB0E0E56EB530EBDD518EB1C
:1045D00002085E417F1C55F10005B6E74FF48015D7
:1045E0004FF000074FF000064FF00008ADE7F0BCB9
:1045F0004FF0000001F1C04101F00041BDE8008131
:1046000011EA0C1F0CEA131500D00CE013EA0C1F82
:1046100000F025804FF00000F0BC81EA030101F0BA
:104620000041BDE80081F0BCBDE8004181EA030122
:1046300000F0A8B9F0BCBDE8004170B500F054F935
:10464000097EFC3E00F007B881EA03014FF000004C
:1046500001F00041704781EA030100F093B9F0BC1A
:10466000BDE800414FF0000021497047FFFDFBF914
:10467000F7F5F4F2F0EEEDEBE9E8E6E4E3E1E0DE95
:10468000DDDBDAD8D7D5D4D3D1D0CFCDCCCBCAC807
:10469000C7C6C5C4C2C1C0BFBEBDBCBBBAB9B8B72E
:1046A000B6B5B4B3B2B1B0AFAEADACABAAA9A8A821
:1046B000A7A6A5A4A3A3A2A1A09F9F9E9D9C9C9BEF
:1046C0009A9999989797969595949393929191909A
:1046D0008F8F8E8E8D8C8C8B8B8A8989888887872B
:1046E0008685858484838382828181800000FF07A0
:1046F0000000F87FB0FA80F310FA03F10AD0C3F19A
:104700001D0303F580634FEA41504FEA035202EB69
:10471000D12170474FF000007047000051EA030CB0
:1047200017D41CF5801F58BFBCF5801F00F1068010
:10473000994218BF704708BF9042704707D711F5DC
:10474000801F58BF13F5801F19D4994270478942C2
:1047500070471CF5801F08D5BCF5801FF7D58B422C
:1047600018BF704708BF824270474FF4001C1CEB13
:10477000410F38BF1CEB430F01D28B42704770B51D
:1047800000F0B2F8922449004FF000514FF08053EE
:10479000FFF74CBEDFF848C170B51CEA111E1EBF02
:1047A0001CEA13159EEA0C0F95EA0C0F00F06F80BF
:1047B00081EA030423EA4C134EEAD47E21EA4C1129
:1047C00041F4801143F48013AE44A1FB024CA0FBE2
:1047D0000365AEF17F7E361955EB0C05A1FB034C4A
:1047E0004CF10003A0FB021C16EB0C06654153F1D3
:1047F0000003094218BF46F0010613F4007F0BD1F5
:104800004FEA03314FEA0530340341EA155140EADB
:1048100016506FF003020AE04FEAC3214FEAC520A9
:10482000F40241EA555140EA56506FF0020202EBA1
:104830002E4201EB025585EACE710AD05FEA440CA4
:1048400018BF24F0004450F1000041F1000120EABB
:10485000D47040F2FE7C624500D270BDA84214BF05
:104860004FF080444FF04044002E08BF0024BEF1BA
:10487000806FA8BFA1F1C041BDE8704080F2828086
:104880004FF0000001F1C04101F0004170479EEA85
:104890000C0F0CEA131518BF95EA0C0F06D04FF059
:1048A000000081EA030E0EF0004170BD00F01CF81C
:1048B0008900013E00F007B800F009B84FEA430C48
:1048C0005FEA5C5C08D081EA030100F05BB84FEA64
:1048D000410C5FEA5C5CF6D14FF000000149704783
:1048E0000000FF070000F87F0EF1020E2EF0030E0D
:1048F0005EF8046B364205D4012A43EB030515F537
:10490000001F12D8012841EB010C1CF5001F0CD828
:104910000ED14FEAD17C15F5001F0CEB4C0C0CF1BD
:10492000020C08BF4CEBD37C04E04FF0080C01E014
:104930004FEAD37C0CEB4C0526FA05F606F0070689
:10494000B6F1040C06D20EEB860CBDE870404CF0BC
:10495000010C6047DFE80CF0090B02024FF0004148
:104960004FF00000A1F5002170BD19461046012846
:1049700051EB010418BFD4F5001484BF002001F0EE
:10498000004170BD0808A0F500114FEA31017047E1
:1049900053EA010C17D41CF5801F58BFBCF5801FCB
:1049A00000F106808B4218BF704708BF82427047F3
:1049B00007D713F5801F58BF11F5801F19D48B42FC
:1049C00070479B4270471CF5801F08D5BCF5801FBF
:1049D000F7D5994218BF704708BF904270474FF40F
:1049E000001C1CEB430F38BF1CEB410F01D2994256
:1049F00070470FB40CBC03BCFFF7C1BE10B591EA01
:104A0000030F48BF83F000433FF570AC841A71EB8D
:104A1000030C07D212198CF0004C43EB0C03001B63
:104A200061EB0C01DFF8A4E14FEA1154A4EB135C35
:104A30001EEA430F18BF9EEA445F00F0B08023EAED
:104A40006E03524221EA0451C3EB6E0338BF5B1E72
:104A5000DCF1200E25D322FA0CFE10EB0E0043FAF7
:104A60000CFE41EB0E01CCF1200E03FA0EFE10EB12
:104A70000E0051F10001CCF1200E29D412FA0EF2F1
:104A800001EB0451BDE8104058BF7047401C1CBFEB
:104A9000B2F1004F704700280CBF491C20F0010004
:104AA000704712EB020E43EB030218BF4FF0010EEA
:104AB0004EEA4202ACF1200CDCF11E0E54D943FA4E
:104AC0000CFE10EB0E0051F1FF31CCF11E0ED5D5CE
:104AD0000EF1010E12FA0EFE404141EB010101EB15
:104AE000445C5FEA5C5C10D910EBDE7001EB0451B2
:104AF00038BFBEF1004FBDE8104018BF7047002816
:104B00000CBF491C20F00100704730D24FEAD42C72
:104B100011F5001124F400641BD0B1FA81F20B3AB4
:104B2000A41AA41ED2F12003914030FA03F31943D2
:104B3000904001EBCC71002C01EB0451BDE810401A
:104B4000A8BF704701F1C0414FF0000001F00041E3
:104B50007047B0FA80F310FA03F100D110BDE41AE7
:104B6000173C4805C90AE4E701EB045110BD4910A0
:104B700001EB0451BDE810404FEA300002E04FF075
:104B8000000170474A0008BF0042F8D0B2F5001F8C
:104B900028BF704701F000414FF0000070479EEAC7
:104BA000445F07D011EA5E0FBDE8104004BF00214A
:104BB00000207047BDE8104070B5FFF795FE00BFBC
:104BC00040DFF63E83F00041104670470000E0FFF2
:104BD0004FF04070E1EE100A7047FBF7D9BD0000BE
:104BE000000000000000010203040607080900009D
:104BF00000000000000000000000000000000000B5
:104C000000000000000000000000000000000000A4
:104C10000000000000000000000000000000000094
:104C2000800180018001800180018001800180017C
:104C3000800180018001800180010000000080016E
:104C400080010000000000000000000000000000E3
:104C50000000CC00CC00CC00CC00CC00CC0000008C
:104C60000000000000000000000000000000000044
:104C70000000000000000000000000000000000034
:104C800000000000000000000000600C600C600CE0
:104C900030063006FE1FFE1F300638071803FE1FC1
:104CA000FE1F180318038C018C018C01000000000A
:104CB0008000E003F80F9C0E8C1C8C188C00980070
:104CC000F801E007800E801C8C188C189C18B80C1A
:104CD000F00FE003800080000000000000000000F2
:104CE000000000000E181B0C110C11061106110318
:104CF00011039B018E01C038C06C60446044304495
:104D000030441844186C0C3800000000000000000B
:104D1000E001F0033807180618063003F001F00030
:104D2000F8009C310E33061E061C061C063FFC7361
:104D3000F021000000000000000000000000000062
:104D400000000C000C000C000C000C000C0000001B
:104D50000000000000000000000000000000000053
:104D60000000000000000000000000000000000043
:104D7000000200038001C000C0006000600030003D
:104D80003000300030003000300030003000600073
:104D90006000C000C00080010003000200000000AD
:104DA00020006000C00080018001000300030006B5
:104DB00000060006000600060006000600060003C6
:104DC000000380018001C00060002000000000009E
:104DD00000000000000000000000C000C000D80675
:104DE000F807E00130033807000000000000000071
:104DF00000000000000000000000000000000000B3
:104E0000000000000000000000008001800180011F
:104E100080018001FC3FFC3F800180018001800116
:104E20008001000000000000000000000000000001
:104E30000000000000000000000000000000000072
:104E40000000000000000000000000000000000062
:104E500080018001000100018000000000000000CE
:104E60000000000000000000000000000000000042
:104E7000000000000000E007E00700000000000064
:104E80000000000000000000000000000000000022
:104E90000000000000000000000000000000000012
:104EA0000000000000000000000000000000000002
:104EB000C000C00000000000000000000000000072
:104EC000000C000C000600060006000300030003AF
:104ED0008003800180018001C000C000C00060002C
:104EE0006000000000000000000000000000000062
:104EF000E003F007380E180C0C180C180C180C18DE
:104F00000C180C180C180C180C18180C380EF0078C
:104F1000E0030000000000000000000000000000AE
:104F200000018001C001F001980188018001800129
:104F30008001800180018001800180018001800169
:104F400080010000000000000000000000000000E0
:104F5000E003F80F180C0C180C1800180018000CBF
:104F6000000600038001C000600030001800FC1F34
:104F7000FC1F000000000000000000000000000016
:104F8000E001F807180E0C0C0C0C000C0006C00316
:104F9000C007000C001800180C180C18180CF807A3
:104FA000E00300000000000000000000000000001E
:104FB000000C000E000F000F800DC00C600C600C88
:104FC000300C180C0C0CFC3FFC3F000C000C000CCF
:104FD000000C0000000000000000000000000000C5
:104FE000F80FF80F180018000C00EC03FC071C0E5B
:104FF000001C0018001800180C181C0C180EF807DC
:10500000E0030000000000000000000000000000BD
:10501000C007F00F381C181818000C00CC03EC0F58
:105020003C0E1C1C0C180C180C18181C380EF00721
:10503000E00300000000000000000000000000008D
:10504000FC1FFC1F000C000600060003800380010B
:10505000C001C000E000600060007000300030005F
:105060003000000000000000000000000000000010
:10507000E003F007380E180C180C180C3806F0076F
:10508000F007180C0C180C180C180C18380CF80F2A
:10509000E00300000000000000000000000000002D
:1050A000E003F007380E1C0C0C180C180C181C1C14
:1050B000381EF81BE0190018000C000C1C0EF80735
:1050C000F0010000000000000000000000000000EF
:1050D00000000000000000000000800180010000CE
:1050E000000000000000000000000000000080013F
:1050F000800100000000000000000000000000002F
:10510000000000000000000000008001800100009D
:10511000000000000000000000000000000080010E
:10512000800100010001800000000000000000007C
:10513000000000000000000000000000000000105F
:10514000001C800FE003F8001800F800E003800F57
:10515000001C001000000000000000000000000023
:105160000000000000000000000000000000F81F28
:10517000000000000000F81F000000000000000018
:10518000000000000000000000000000000000001F
:105190000000000000000000000000000000080007
:1051A0003800F001C007001F0018001FC007F00101
:1051B00038000800000000000000000000000000AF
:1051C000E003F80F180C0C180C180018000C00065F
:1051D00000038001C000C000C00000000000C0004B
:1051E000C0000000000000000000000000000000FF
:1051F0000000E00718180420C229224A114409447B
:105200000944094409221113E20C02400420181831
:10521000E0070000000000000000000000000000A7
:1052200080038003C006C006C006600C600C301806
:1052300030183018F83FF83F1C700C600C6006C046
:1052400006C0000000000000000000000000000098
:10525000FC03FC0F0C0C0C180C180C180C0CFC07A5
:10526000FC0F0C180C300C300C300C300C18FC1FE0
:10527000FC0700000000000000000000000000002B
:10528000C007F01F38381C300C700660060006009E
:10529000060006000600060006600C701C30F01FB9
:1052A000E007000000000000000000000000000017
:1052B000FE03FE0F060E06180618063006300630EE
:1052C000063006300630063006180618060EFE0FA9
:1052D000FE030000000000000000000000000000CD
:1052E000FC3FFC3F0C000C000C000C000C00FC1FF1
:1052F000FC1F0C000C000C000C000C000C00FC3F10
:10530000FC3F000000000000000000000000000062
:10531000F83FF83F18001800180018001800F81F90
:10532000F81F1800180018001800180018001800BE
:105330001800000000000000000000000000000055
:10534000E00FF83F3C780E6006E007C00300030062
:1053500003FE03FE03C007C006C00EC03CF0F83FCA
:10536000E00F00000000000000000000000000004E
:105370000C300C300C300C300C300C300C30FC3F4E
:10538000FC3F0C300C300C300C300C300C300C303E
:105390000C300000000000000000000000000000D1
:1053A00080018001800180018001800180018001F5
:1053B00080018001800180018001800180018001E5
:1053C000800100000000000000000000000000005C
:1053D000000600060006000600060006000600069D
:1053E0000006000600060006180618063807F00337
:1053F000E0010000000000000000000000000000CC
:1054000006300618060C060606038601C60066006E
:105410007600DE008E0106030606060C061806302E
:105420000660000000000000000000000000000016
:1054300018001800180018001800180018001800AC
:105440001800180018001800180018001800F81F9D
:10545000F81F000000000000000000000000000035
:105460000EE01EF01EF01EF036D836D836D836D8EC
:1054700066CC66CC66CCC6C6C6C6C6C6C6C686C31D
:1054800086C30000000000000000000000000000D3
:105490000C301C303C303C306C306C30CC30CC307C
:1054A0008C310C330C330C360C360C3C0C3C0C3869
:1054B0000C300000000000000000000000000000B0
:1054C000E007F81F1C380E70066003C003C003C05D
:1054D00003C003C003C003C006600E701C38F81F71
:1054E000E0070000000000000000000000000000D5
:1054F000FC0FFC1F0C380C300C300C300C300C182E
:10550000FC1FFC070C000C000C000C000C000C0035
:105510000C0000000000000000000000000000007F
:10552000E007F81F1C380E70066003E003C003C0DC
:1055300003C003C003C007E006630E3F1C3CF83FF6
:10554000E0F700C0000000000000000000000000C4
:10555000FE0FFE1F06380630063006300638FE1FE6
:10556000FE0706030606060C061806180630063067
:1055700006600000000000000000000000000000C5
:10558000E003F80F1C0C0C180C180C001C00F8039E
:10559000E00F001E0038063006300E301C1CF80FDD
:1055A000E007000000000000000000000000000014
:1055B000FE7FFE7F800180018001800180018001EB
:1055C00080018001800180018001800180018001D3
:1055D000800100000000000000000000000000004A
:1055E0000C300C300C300C300C300C300C300C30DB
:1055F0000C300C300C300C300C300C301818F81FFC
:10560000E0070000000000000000000000000000B3
:1056100003600630063006300C180C180C18180CF5
:10562000180C380E30063006700760036003C001A6
:10563000C0010000000000000000000000000000A9
:105640000360C361C361C361663366336633663327
:10565000663366336C1B6C1B6C1B2C1A3C1E380E9D
:10566000380E0000000000000000000000000000F4
:105670000FE00C7018303018700C600EC0078003FB
:105680008003C003E006700C301C18180C300E604C
:1056900007E0000000000000000000000000000023
:1056A00003C006600C301C383818300C6006E00768
:1056B000C0038001800180018001800180018001A0
:1056C0008001000000000000000000000000000059
:1056D000FC7FFC7F006000300018000C0006000317
:1056E0008001C0006000300018000C000600FE7F42
:1056F000FE7F00000000000000000000000000002D
:10570000E003E00360006000600060006000600093
:105710006000600060006000600060006000600089
:105720006000600060006000E003E0030000000033
:1057300030003000600060006000C000C000C000A9
:10574000C001800180018001000300030003000606
:105750000006000000000000000000000000000043
:10576000E003E00300030003000300030003000361
:105770000003000300030003000300030003000311
:105780000003000300030003E003E0030000000047
:105790000000C001C00160036003600330063006F2
:1057A000180C180C000000000000000000000000B1
:1057B00000000000000000000000000000000000E9
:1057C00000000000000000000000000000000000D9
:1057D00000000000000000000000000000000000C9
:1057E000FFFFFFFF000000000000000000000000BD
:1057F0000C000C000C000C000C000C000000000061
:105800000000000000000000000000000000000098
:105810000000000000000000000000000000000088
:1058200000000000000000000000F003F8071C0C5E
:105830000C0C000FF00FF80C0C0C0C0C1C0FF80FDC
:10584000F018000000000000000000000000000050
:1058500018001800180018001800D803F80F380CAA
:10586000181818181818181818181818380CF80FCD
:10587000D80300000000000000000000000000004D
:1058800000000000000000000000C003F007300E20
:10589000180C1800180018001800180C300EF0072B
:1058A000C003000000000000000000000000000035
:1058B00000180018001800180018C01BF01F301C3A
:1058C000181818181818181818181818301CF01F5D
:1058D000C01B0000000000000000000000000000ED
:1058E00000000000000000000000C003F00F300CBA
:1058F0001818F81FF81F180018003818301CF00F7F
:10590000C0070000000000000000000000000000D0
:10591000800FC00FC000C000C000F007F007C0003B
:10592000C000C000C000C000C000C000C000C00077
:10593000C0000000000000000000000000000000A7
:1059400000000000000000000000E00DF80F180E3D
:105950000C0C0C0C0C0C0C0C0C0C0C0C180EF80F8A
:10596000E00D000C0C0C1C06F807F0010000000014
:1059700018001800180018001800D807F80F381C75
:105980001818181818181818181818181818181897
:1059900018180000000000000000000000000000D7
:1059A000C000C000000000000000C000C000C00037
:1059B000C000C000C000C000C000C000C000C000E7
:1059C000C000000000000000000000000000000017
:1059D000C000C000000000000000C000C000C00007
:1059E000C000C000C000C000C000C000C000C000B7
:1059F000C000C000C000C000F80078000000000037
:105A00000C000C000C000C000C000C0C0C060C0321
:105A10008C01CC006C00FC009C018C030C030C0678
:105A20000C0C00000000000000000000000000005E
:105A3000C000C000C000C000C000C000C000C00066
:105A4000C000C000C000C000C000C000C000C00056
:105A5000C000000000000000000000000000000086
:105A6000000000000000000000007C3CFF7EC7E357
:105A700083C183C183C183C183C183C183C183C106
:105A800083C10000000000000000000000000000D2
:105A9000000000000000000000009807F80F381C0C
:105AA0001818181818181818181818181818181876
:105AB00018180000000000000000000000000000B6
:105AC00000000000000000000000C003F00F300CD8
:105AD000181818181818181818181818300CF00F6B
