:020000040800F2
:100000006808002099020008E33300080B2B000861
:10001000E1330008850D00084F3B00080000000098
:10002000000000000000000000000000DD360008B5
:10003000870D000800000000E5330008DF360008E7
:10004000B3020008B3020008B3020008B3020008BC
:10005000B3020008B3020008B3020008B3020008AC
:10006000B3020008B3020008B3020008B30200089C
:10007000B3020008B3020008B3020008B30200088C
:10008000B302000800000000B3020008B302000839
:10009000B3020008B3020008B3020008B30200086C
:1000A000B3020008B3020008B3020008B30200085C
:1000B000B302000865370008B3020008B302000865
:1000C000B3020008B3020008B3020008B30200083C
:1000D000B3020008B3020008B3020008B30200082C
:1000E000B3020008B3020008B3020008B30200081C
:1000F000B3020008B3020008B302000800000000C9
:1001000000000000B302000800000000B302000875
:10011000B302000800000000B3020008B3020008A8
:10012000B3020008B3020008B3020008B3020008DB
:10013000B30200080000000000000000B302000845
:10014000B3020008B3020008000000000000000035
:10015000000000000000000000000000000000009F
:10016000000000000000000000000000B3020008D2
:10017000B3020008000000000000000000000000C2
:1001800000000000B30200080000000000000000B2
:10019000000000000000000000000000000000005F
:1001A0000000000000000000B3020008B3020008D5
:1001B000B3020008B3020008B30200080000000008
:1001C00000000000B3020008000000000000000072
:1001D000B3020008B302000800F002F800F04CF887
:1001E0000AA090E8000C82448344AAF10107DA4592
:1001F00001D100F041F8AFF2090EBAE80F0013F098
:10020000010F18BFFB1A43F001031847B05B000051
:10021000D05B0000103A24BF78C878C1FAD85207E2
:1002200024BF30C830C144BF04680C607047000070
:100230000023002400250026103A28BF78C1FBD8EF
:10024000520728BF30C148BF0B607047662904F0D1
:100250007884642900F05480002070471FB504F0B2
:1002600063FC00F0BFFB04000020002104F0DCF977
:10027000E0601FBD10B510BD00F0B4FC1146FFF7E3
:10028000EDFF03F095FD00F0D2FC03B4FFF7F2FFA1
:1002900003BC00F013FD00000948804709480047EF
:1002A000FEE7FEE7FEE7FEE7FEE7FEE7FEE7FEE726
:1002B000FEE7FEE704480549054A064B7047000083
:1002C00055370008D901000868020020680800209E
:1002D00068040020680400200FB41CB5074B06AA70
:1002E0007B4469460090059800F063FB0020694656
:1002F00000F072FB1CBC5DF814FB0000F50600006A
:100300002DE9F0410646002410687529314616A5EE
:1003100010D0AFF30080002802DA404213A507E0B6
:1003200031688A0701D512A502E0490704D511A555
:10033000012401E0AFF3008000210A2206F1240726
:1003400009E0B0FBF2FCB0FBF2F302FB1C00303022
:1003500078541846491C0028F3D123462A463046D3
:10036000BDE8F04100F0B9B8000000002D00000029
:100370002B000000200000002DE9F0474FF0000A9C
:1003800089460446C0F820A02046E1688847002836
:1003900076D0252806D0D4E901219047206A401C58
:1003A0002062F1E7E168204600258847C4F81CA0D8
:1003B00006460027C4F818A02A2E09D0304604F0BB
:1003C0002BF938B304EB8708303EC8F8186019E001
:1003D00059F8041B204604EB87029161E1688847C5
:1003E000012F064618D1E069002820DA25F0200503
:1003F0001DE0D8F8180000EB800006EB4000303814
:10040000C8F818002046E1688847064604F004F959
:100410000028EED1012F0AD02E2E08D12046E16807
:1004200088477F1C0646022F45F02005C4DBA069E3
:10043000002803DA404245F00105A061E80701D039
:1004400025F01005B6B1A6F14100192802D82036D2
:1004500045F400654A463146204625604D46FFF783
:10046000F5FE58B1012806D0ED1D25F0070000F17A
:10047000080989E704E005F1040985E730468AE7C1
:10048000206ABDE8F0874FF0000200B5134694469D
:100490009646203922BFA0E80C50A0E80C50B1F1DC
:1004A0002001BFF4F7AF090728BFA0E80C5048BFF0
:1004B0000CC05DF804EB890028BF40F8042B08BF8E
:1004C000704748BF20F8022B11F0804F18BF00F88A
:1004D000012B70477047704770472DE9F0470D4674
:1004E00099469246044600F124080168880604D51E
:1004F000E06921F01001216000E00120A84201DD47
:10050000471B00E00027A1697A1902EB0900081ACD
:10051000A0612078C00602D42046AFF300800026F8
:1005200008E0D4E901211AF806009047206A401C2F
:10053000761C20624E45F4DB2078C0060AD52046A2
:10054000AFF3008006E0D4E9012130209047206A13
:10055000401C2062381EA7F10107F4DC07E0D4E953
:10056000012118F805009047206A401C2062281ECF
:10057000A5F10105F3DC2046AFF3008020780006EA
:1005800002D50220BDE8F0870120FBE72DE9FF4FEF
:100590000C461E464FF0FF378BB0D2E90001DDF864
:1005A00060800A908A46C1F30A5505B93D4600218C
:1005B00008464FF00000BAF1000F00F4400005DAE1
:1005C00000EB80004FF4400101EA50004FEA9059DF
:1005D000B9F1010F00DDB9460A9850EA4A000ED081
:1005E00044F61050A5F2FF3545432F14B8F1000F23
:1005F0001ED07542291E1EDDC9F100021CE0B8F1B3
:10060000010F4FF0000001D0302103E0F24305E07C
:100610002154401CB042FBDB304600220021215413
:100620000B99C1F80880C1E900200FB0BDE8F08F38
:10063000BD1B6D1CDEE74A4600DA694206A800F0E1
:100640005BFA06AB93E8070003AB83E8070050466C
:100650000A9903F001FC8DE80700A0F500501F384F
:1006600000900398002D0ADD42F21F014A4608441B
:10067000002303A90390684603F06AFE09E0A0F591
:1006800000504A461F38002303A90390684603F030
:1006900074FE8DE807000004000C03D04FF0FF301B
:1006A000410800E01046B8F1000F03D0002200928C
:1006B00015461EE0751E05D400F098F930326255DB
:1006C0006D1EF9D5B3460122084302D000227F1CDB
:1006D00004E02078302801D100227F1E002A0997EB
:1006E00084D01DE0112D07DA00F080F93032625518
:1006F0006D1C50EA0102F5D1084302D00098C8B140
:100700000EE00021681E05E0235C625C6354225405
:10071000401E491C8142F7DBAB46A81B401E0990D6
:10072000002004F80B000B98099AC0F80880C0E973
:10073000002B7AE711264FF0000857E72DE9F04F1C
:1007400088460446D21D22F0070191B0D1E900018C
:10075000CDE90A0103F048FF02460B98C00F01D013
:100760002D2007E02068810701D52B2002E0202101
:1007700001EAC000032A099001D0072A05DB0346DD
:100780004146204600F078F90BE12078800601D53B
:10079000E06900E00620B8F1650F814606D0B8F1A7
:1007A000660F18D0B8F1670F70D131E00020B9F1B1
:1007B000110F009001DB112301E009F101030AAAE6
:1007C00001A90CA8FFF7E2FEDDE90C70002609F193
:1007D0000105834647E001204B4600904FF000475B
:1007E0000AAA01A90CA8FFF7D1FEDDE90DB00C990A
:1007F0005D46002610B909F101000D18B9EB05009E
:1008000003D4C0F1FF3609F10105A5EB09002BE087
:10081000B9F1010F01DA4FF001090020B9F1110F10
:100820000090484601DD112300E003460AAA01A911
:100830000CA8FFF7ABFEDDE90C704D4600268346A1
:10084000207800070AD4AB4500DA5D4601A8012DE7
:1008500004DD411911F8011C302907D04F4502DA97
:1008600017F1040F04DA012082460FE06D1EEEE757
:10087000002F02DCED1B3E4403E0781CA84200DDA3
:100880007D1CB81B00F1010A4FF0004720780007DB
:1008900003D4AA4501DB4FF0FF3A0021B7F1004F26
:1008A0000DF143088DF8431024D002202B23002F94
:1008B00001DA7F422D230A21021EA0F1010000DC93
:1008C0005FB197FBF1FC97FBF1F201FB1C7C174633
:1008D0000CF1300C08F801CDEEE7A8F1010003702F
:1008E0002188090501D5452100E06521A0F1010815
:1008F00000F8011C09980FA9A1EB0807FF1D00B122
:100900000120411901EBEA70A1693844081A401E20
:10091000A0612078C00602D42046AFF30080099879
:1009200028B1D4E901219047206A401C2062207838
:10093000C00622D52046AFF300801EE0002E04DB67
:10094000B34502DD01A8805D00E03020D4E901213B
:100950009047206A401C2062761CAAF101005FEAE1
:10096000000A0AD100F03EF8C0680168405CD4E992
:1009700001219047206A401C2062281EA5F1010534
:10098000DCDC07E0D4E9012118F8010B9047206A6C
:10099000401C2062381EA7F10107F3DC2046AFF3AC
:1009A0000080032011B041E601694A1C0261087809
:1009B000704700B58FB0CDE901310021059105499F
:1009C0007944CDE9031011466846FFF7D5FC0FB016
:1009D00000BD0000E5FFFFFF0A6802F8010B0A6096
:1009E00070470000004870474000002030B5B0F16B
:1009F0000A0271F100034FEA900E4EEA817EB0EBDD
:100A00000E0061EB91014FEA101E4EEA017E10EBE1
:100A10000E0041EB11114FEA102E4EEA016E10EB61
:100A20000E0041EB11214FEA104E4EEA014E10EB41
:100A30000E0041EB1141401841F100014FEAD00096
:100A400040EA41704FEAD1014FEA810444EA9074D0
:100A500010EB800544EB01046D1944EB0404521BB8
:100A6000A3414FF0000348BF0A3200D530BD401CFF
:100A700041F1000130BD00002DE9F0411F46044660
:100A800003260168072A01F4006004DB08B116A5FB
:100A900005E016A503E008B115A500E015A521F0B5
:100AA00010002060A069C01EA0610FB1401EA061AF
:100AB0002046AFF300804FB1D4E90121384690477A
:100AC000206A401C2062C01C206206E0206AFAE70F
:100AD000D4E9012115F8010B9047761EF8D2204683
:100AE000AFF30080BDE8F0814E414E006E616E00B4
:100AF000494E4600696E66002DE9F047814616466C
:100B00008AB0354878440DC88DE80D0032487844E5
:100B1000801C03AC0DC884E80D0041F69B300844EE
:100B2000372190FBF1F290FBF1F5A5F1800501FB77
:100B300012041B3C02D56442012000E00020DFF8D3
:100B400098A080460027FA44AAF1BE0A0EE0E0070A
:100B50000AD03246684607EB470101230AEB8101C0
:100B600003F00BFC8DE8070064107F1C002CEED115
:100B7000194F7F44AE3F19E0E80715D007EB04108A
:100B80000DF1180A90E80E008AE80E00C068F042E5
:100B900001D1981908903246012306A903A803F051
:100BA000ECFB03AB83E807006D10641C002DE3D160
:100BB0004FF0010332466946B8F1000F03A802D096
:100BC00003F0C6FB01E003F0D8FBC9E90001C9F856
:100BD00008200AB0BDE8F087BC400000004870471C
:100BE000200000207546FFF7F9FFAE460500694674
:100BF000534620F00700854618B020B5FFF75AFB92
:100C0000BDE820404FF000064FF000074FF000080D
:100C10004FF0000BAC46ACE8C009ACE8C009ACE84A
:100C2000C009ACE8C00921F007018D46704710B536
:100C30000446AFF300802046BDE81040FFF725BB17
:100C400030B44FF0013C50F8042B51F8043BCCFA7F
:100C500052F4D51A20D1FCB950F8042B51F8043BBA
:100C6000CCFA52F4D51A17D1B4B950F8042B51F874
:100C7000043BCCFA52F4D51A0ED16CB950F8042BBF
:100C800051F8043BCCFA52F4D51A05D1002CDAD035
:100C900030BC4FF00000704729BAB1FA81F111F071
:100CA0001801D1F120008440F2D1CA40CB4012F0AB
:100CB000FF0213F0FF0330BCD01A7047014918201F
:100CC000ABBEFEE726000200704700007CB504467C
:100CD0000020019021688A6812F0010F47D1254E4B
:100CE000886806F17F02104209D0E06D40F01000E4
:100CF000E065206E40F001002066012037E0886842
:100D0000304040F0010088601B48006810F4000F7C
:100D100010D01A481A490068B0FBF1F00C2100EB22
:100D2000400001EB800001E001980138019001983A
:100D30000028F9D100F0E0FC05462068016811F0B8
:100D4000010F13D1816811F0010F04D18168314086
:100D500041F00101816000F0CFFC401B0328ECD37F
:100D60002068006810F0010FE7D1BEE7002002B054
:100D700070BD00BFC0FFFF7F0803005018000020B7
:100D8000400D0300FEE77047EFF3108072B6FEE7F8
:100D900090F85820012A01D102213CE01CB5012223
:100DA00080F858200022019200920268B2F1A04F10
:100DB00027D1224CD4F8003122681A43520720D49C
:100DC000D1F800C0D4F8002322F46043BCF1000F36
:100DD00023D04A681A4390F8383042EA4332C4F8C4
:100DE00000232268D4F800311A43D20724D1D4F862
:100DF0000023896840F61F739A4341EA0C011143AE
:100E000018E0C16D41F02001C1650121002280F888
:100E10005820BDE81C40C8B27047C4F800332168B0
:100E2000D4F800211143C90706D1D4F8001340F6C5
:100E30001F729143C4F800130021E7E70800005037
:100E4000F8B5074600200D46009097F85800012895
:100E500001D1022177E1012087F8580038688168C4
:100E600011F0040F25D1D5E900121F2402F01F0351
:100E7000C2F3012200EB82029C40166BC1F3846135
:100E80009940A6433143116381688268D20842EADF
:100E90009101C90740F09880AA682968B2F1004F13
:100EA0000DD1002202F0C0F83868416941F00041DC
:100EB0000BE0F86D012140F02000F86540E102F000
:100EC000B3F83868416921F000414161D5E9041265
:100ED000C36804294DD1016E036E2A689C49C2F390
:100EE000846692FAA2F40A4218BFB4FA84F6C3F3F5
:100EF0008463B34204D1026E22F0004202662A6883
:100F0000436E92FAA2F60A42C2F3846318BFB6FA9D
:100F100086F3466EC6F384669E4204D1426E22F08A
:100F2000004242662A68836E92FAA2F60A42C2F32F
:100F3000846318BFB6FA86F3866EC6F384669E4253
:100F400004D1826E22F0004282662A68C36E92FA51
:100F5000A2F60A42C2F3846318BFB6FA86F3C16EE2
:100F6000C1F38461994202BFC16E21F00041C166A4
:100F70002AE000F16004D5F800C0744E54F821E076
:100F80000EEA060E062606EA93039A400CF0F84392
:100F90001A4342EA0E0242F0004244F82120296935
:100FA000AA6954F8213023F080731A4344F82120B1
:100FB0002A69297F54F82230012923F0007308BFE1
:100FC00043F0007344F82230816811F0010F64D1BE
:100FD00029685F4CEB68D0F8B060CA4362EA04024B
:100FE000164003F01802D4400A466FF3DF42144063
:100FF0002643584CC0F8B060A3424ED191FAA1F3F9
:10100000002A4FEA916CB3FA83F6334608BF8B0E81
:10101000013303F01E03092B0AD8A2B1711C4FF053
:10102000F84202EA816301F01F020121914016E0BB
:10103000DAB1711C4FF0F84202EA816301F01F023D
:10104000012191401DE00CF1010201F0F841012362
:1010500001F1806102F01F02934001F0F841194351
:1010600002EB420241EA025114E00CF1010201F0EC
:10107000F841012301F1806102F01F02934001F069
:10108000F8411943344B02EB420203EB0252114385
:1010900041F00071AA6801F0C7FF2B682F48034296
:1010A0004DD02F482F4905688B4205F0E07202D0E1
:1010B0002D498B421ED1290241D43968B1F1A04F8C
:1010C0003DD1016821F0E071114341F4000101605C
:1010D0009D489E490068B0FBF1F00C2100EB4000F8
:1010E00001EB800001E00098013800900098002892
:1010F000F9D124E01D498B4208BF15F0807112D050
:101100001B4C0021A34208BF15F4800318D1396895
:10111000A0F50273994212D0016821F0E0711143E9
:1011200041F480010AE03968A0F50273994206D0C3
:10113000016821F0E071114341F0807101600021EC
:10114000002087F85800C8B201B0F0BD00F0FF03DE
:10115000FFFF070000007F40000020FE0000088025
:1011600008030050000021C31000C090000052C7C7
:10117000000084CB0068006C70470000BCB50446DA
:101180000020002C01903AD0E06D30B9204600F0EC
:10119000E5F8002084F8580020662168886810F07F
:1011A000005F03D08868674A10408860886810F044
:1011B000805F16D1634A886802F180521040634A0A
:1011C00040F08050886060480068B0FBF2F0022276
:1011D00002EB400001E001980138019001980028DD
:1011E000F9D1886810F0805F0BD1E06D40F01000FD
:1011F000E065206E40F001002066012002E0012041
:101200009EE000208A68C2F3800CE26DE36D02F07C
:10121000100252EA0C0203D043F0100101208EE0CC
:1012200023F4817242F00202E2658A6812F0010F33
:101230000ED1474D2A68D5F800311A43D20707D19D
:101240006268D5F8003323F47C131A43C5F80023F1
:10125000627FE36B43EA4232D4E902352A4394F8D1
:1012600024501A4342EA0543012D04D1A26A394DA4
:1012700005EB42421343E26A22B102F478721A4348
:10128000236B1343CA68344D2A401A43CA600A6963
:10129000636B22F040621A430A618A68C2F3C0029B
:1012A00052EA0C023DD194F8383094F81CC0CD6855
:1012B00044F202025B0025EA020243EA8C331A433D
:1012C000CA6022690B694AB143F4803343F6FF7563
:1012D0000B61D1F8C030AB431A4307E023F48032EE
:1012E00043F6FF730A61D1F8C0209A43C1F8C020C9
:1012F00094F840300A69012B10D140F2FD7322EAC4
:10130000030CD4E91135D4E9132E43EA0C032B4323
:101310001A4342EA0E0242F0010201E022F0010209
:101320000A6163690A6B22F00F02012B02BF236A74
:10133000013B1A430A630122E16D62F30101E16599
:1013400002B0B0BDC0FFFF5F18000020400D0300D9
:10135000080000500000FEFF0740F0FF10B598B0F5
:10136000044613A81421FFF78EF802A84421FFF7C2
:101370008AF82068694988422CD0B0F1A04F59D131
:101380004FF0005011904FF40040029002A800F07E
:10139000A7FA08B1FFF7F8FC274801684A1C0029A2
:1013A0000260264808D1016841F4005101600168DB
:1013B00001F4005101910199016841F002010160BD
:1013C000006800F0020001900198032014904FF48F
:1013D000805028E04FF0005011904FF400400290F0
:1013E00002A800F07DFA08B1FFF7CEFC12480168B0
:1013F0004A1C00290260114808D1016841F40051DB
:101400000160016801F4005101910199016841F006
:1014100002010160006800F00200019001980320C1
:1014200014904FF400401390002013A91590044825
:1014300000F088F818B010BD800000204C10024069
:101440000004004870B5354D0446D5F808620068C0
:10145000806810F0040F03D194F85800012801D1DE
:10146000022070BD012084F858002046FFF72EFCB2
:1014700018B1002184F8581070BD2068E16D40F665
:10148000017306F01F029943A84241F48071E1659F
:10149000014608BF4FF0A0410AB1814203D1E36D7C
:1014A00023F48013E365E66D002316F4805F4FF0AC
:1014B00000061CBF266E26F00606814226664FF007
:1014C0001C06066084F8583008D0092A17D8012372
:1014D00003FA02F240F221231A4210D0C16811F03F
:1014E000007F04D0E16D012262F30D31E165816876
:1014F0000B4A114041F004018160002070BDE06D95
:1015000040F48010E065C86810F0007FF5D0E06D11
:10151000012161F30D30E065EFE700BF00010050ED
:10152000C0FFFF7FB0B5044600F0E6F805468E48E0
:10153000611C406818BF044400F0DEF8401BA04264
:10154000FAD3B0BD2DE9FC4F5F4A06274FF0000AE1
:101550004FF001084FF003094FF0000B00259042B7
:1015600000F138424FEAB22308BF0527052B38BFE8
:101570004FEAB22700970C6834FA05F308BFBDE8BC
:10158000FC8F08FA05F314EA030600F096804F6812
:1015900007F00304621E012A15D8D0F808C009FA22
:1015A0000BF22CEA020CCA6802FA0BF242EA0C02B5
:1015B0008260C7F3001202FA05FC42689A4342EACD
:1015C0000C02426001E0032C1DD0C36809FA0BF243
:1015D000022C23EA02028B6803FA0BF342EA0302AD
:1015E000C26010D13C4C0AF01C020F23934004EA65
:1015F000550707443C6A24EA03030C6904FA02F223
:101600001A433A624F68046807F0030209FA0BF3C1
:1016100017F4403F02FA0BF224EA030342EA030202
:1016200002604AD02B4A0AF00C070F24BC40134634
:10163000126842F001021A601A68244B02F001029B
:101640009C46019225F003021A44019B234B9E46BF
:10165000D358A343009C04FA07F73B4342F80E30EB
:10166000DCF808204F6842EA060317F4801F08BF21
:1016700022EA0603164A17F4001FCCF80830144675
:10168000126842EA060308BF22EA060317F4003F85
:101690002360DCF8042042EA060308BF22EA0603BE
:1016A00017F4803FCCF80430DCF8002042EA06034F
:1016B00008BF22EA0603CCF800300AF1040A0BF155
:1016C000020B013557E700BF001400480004014039
:1016D0000C04014060100240FCFFFF7F08FCFFFF8C
:1016E0000069084018BF012070471823002A08BF6E
:1016F0002823C150704700001B488068704700BF16
:1017000019484168826811448160704780B50320A0
:1017100000F076F80F2000F007F808B1012080BD36
:1017200000F024F8002080BD70B50F4E04467068AC
:10173000B0B14FF47A71B1FBF0F063490968B1FBC5
:10174000F0F000F069FD01250F2C0AD848B94FF0E0
:10175000FF3021460022002500F030F8346000E020
:101760000125284670BD00BF0800002082B00B484C
:10177000816841F001018160816801F001010191FE
:101780000199016841F080510160006800F08050CB
:101790000090009802B000F09BB800BF58100240C3
:1017A000002808DB00F01F010122400902FA01F1C4
:1017B000014A42F82010704700E100E010B5164BD6
:1017C0001B68C3F3022E0EF1040CAEF103048EF07D
:1017D0000703BCF1070F4FF0010C38BF0024042BA6
:1017E00028BF04230CFA03F3013B19400CFA04F35D
:1017F000013BA1401A401143BDE8104002F0A8B9D6
:1018000005494FF6FF030A681A4060F30A220348AD
:1018100010430860704700BF0CED00E00000FA05BF
:1018200020B3BC49B0F5007F0A6845D1D1F88000EB
:1018300040F48070C1F8800002F4C060B0F5806FA1
:101840003ED10868012262F34A20322208601E4815
:10185000006850431D4AB0FBF2F0C0434A6918B11A
:10186000013012F48062F9D1486920E0A94801688A
:10187000D0F8802001F4C06122F48072B1F5806F4D
:10188000C0F880201CD10168012262F34A21322273
:1018900001600D49096851430C4AB1FBF2F1C9439B
:1018A000426919B1013112F48062F9D1406910F432
:1018B000806F05D0032004E0022060F34A220A6012
:1018C0000020C0B2704700BF1800002040420F0047
:1018D0000248016841F4804101607047087000408F
:1018E0002DE9FC4104468078894E000701D4002090
:1018F00060E0F06C10F0805F0BD1F06C4FF00108ED
:1019000040F08050F064F06C00F08050019001983D
:1019100001E04FF000087F4F386840F48070386075
:10192000FFF7EAFE0546386810F4807F06D1FFF71E
:10193000E3FE401B0228F6D9032034E0D6F88400E9
:1019400010F4407026D0216C884211D0D6F8840063
:10195000D6F8841041F4803120F44070C6F8841029
:10196000D6F8841021F48031C6F88410C6F88400BB
:10197000C0070FD0FFF7C0FE054641F28837D6F802
:10198000840010F0020F05D1FFF7B6FE401BB842ED
:10199000F5D9D1E7D6F88400216C20F440700843D3
:1019A000C6F884000020B8F1000F1EBFF16C21F0D2
:1019B0008051F164216811F0010F05D0F26F636866
:1019C00022F003021A43F2678A0705D5F26FA36873
:1019D00022F00C021A43F2674A0705D5F26FE3685A
:1019E00022F030021A43F2670A0705D5F26F236925
:1019F00022F0C0021A43F2678A0605D5F26F6369C6
:101A000022F440621A43F2674A0605D5F26FA369D1
:101A100022F440521A43F2670A0605D5F26FE369D1
:101A200022F440421A43F267CA0505D5F26F236AD1
:101A300022F440321A43F2678A0505D5F26F636AD1
:101A400022F440221A43F2674A050DD5F26FA36AC9
:101A500022F44012B3F5801F42EA0302F26702BF8C
:101A6000326842F4801232600A050DD5F26FE36AE3
:101A700022F44002B3F5800F42EA0302F26702BF8C
:101A8000326842F480123260CA040DD5F26F236BC3
:101A900022F04072B3F1807F42EA0302F26702BF94
:101AA000326842F4801232608A040DD5F26F636BA3
:101AB00022F04062B3F1006F42EA0302F26702BF14
:101AC000326842F4801232604A040DD5F26FA36B83
:101AD00022F04062B3F1006F42EA0302F26702BFF4
:101AE000326842F48012326009040DD5F16FE26B66
:101AF00021F04051B2F1805F41EA0201F16702BF7B
:101B0000316841F480313160C0B202B0BDE8F0818B
:101B10000C100240007000402DE9F0478A468146D3
:101B2000002854D0754C4FF48050215801F00F011B
:101B300051450AD2215821F00F0141EA0A012150F2
:101B4000205800F00F00504541D1D9F8000010F0A6
:101B5000010F02D14FF000086BE0D9F804100329FF
:101B600030D1216811F0007F31D0E168E268E3688C
:101B7000E7680226C7F3416701F0030106EB470758
:101B800026467C4C032904BF43F20064C0F26E1465
:101B9000C2F30311C3F306220131B4FBF1F1514347
:101BA000574AB1FBF7F1914224D9B168344611F09C
:101BB000F00F17D0800702D5D9F8080090B14FF088
:101BC00000081AE02068022905D1800305D401200D
:101BD000C0B2BDE8F0874005F9D500F099F8484952
:101BE0008842ECD9A06808214FF0800861F3071003
:101BF000A06002E04FF000083446A068D9F8041055
:101C000020F003000843A060FFF776FD064641F28E
:101C10008837A068D9F8041000F00C00B0EB810FF1
:101C200005D0FFF769FD801BB842F2D93CE0D9F836
:101C30000000810706D4B8F1800F17D1A16821F008
:101C4000F00112E0410742BFA16841F4E061A160E8
:101C5000010704D5A168072262F30D21A160A168E4
:101C6000D9F8082021F0F0011143A1604FF480570A
:101C7000E15901F00F0151451BD9E059254620F0EB
:101C80000F0040EA0A00E051FFF736FD064641F238
:101C900088342846E85900F00F00504506D0FFF779
:101CA0002BFD801BA042F4D9032091E7D9F8000056
:101CB0002C46410706D5A168D9F80C2021F4E06133
:101CC0001143A160000707D5A068D9F8101020F4CF
:101CD000605040EAC100A06000F01AF8A168094A0B
:101CE000C1F30311515C01F01F01C84006490860AF
:101CF00006480068BDE8F047FFF716BD0010024037
:101D000000B4C404DC4B00081800002008000020C8
:101D10001749184A086800F00C000428104608BF4C
:101D20007047086800F00C031348082B1ED00B689E
:101D300003F00C030C2B1CBF002070474B6803F012
:101D40000303032B08BF02464868C0F303100130A9
:101D5000B2FBF0F04A68C2F30622496850430222FF
:101D6000C1F3416102EB4101B0FBF1F0704700BFEC
:101D7000081002400024F40000366E012DE9F843FB
:101D80000446002800F0D3812078C94EC94FC0070F
:101D9000B1461FD1207880074FD42078000740F14A
:101DA000A6806169D7F89000002900F08E8040F08D
:101DB0000100C7F89000FFF79FFC0546D7F8900098
:101DC00010F0020F40F09380FFF796FC401B0228B2
:101DD000F4D9DEE07968B86801F00C01082953D025
:101DE000032281F00C0122EA00000843B0FA80F0DF
:101DF000400949D16668B6F5803F0AD0D9F800009D
:101E0000C846B6F5A02F40F0E28040F48020C8F824
:101E10000000D9F800004E4640F48030C9F80000B8
:101E2000FFF76AFC0546306810F4003FB2D1FFF7B7
:101E300063FC401B6428F6D9ABE07868B96800F011
:101E40000C0004282AD001F0030180F00C0081F07E
:101E500002010843B0FA80F040091FD1E168306800
:101E6000002900F0988040F480703060FFF744FC57
:101E70000546306810F4806F40F0A180FFF73CFC0D
:101E8000401B0228F5D984E0306810F4003F3FF48D
:101E900081AF606800287FF47DAF48E1306810F4BE
:101EA000806F03D0E068002800F041813868216924
:101EB00020F0FE4040EA01603860D2480068FFF739
:101EC00033FC002840F0338167E720F00100C7F8B9
:101ED0009000FFF711FC0546D7F8900010F0020FB4
:101EE00005D0FFF709FC401B0228F5D951E0207806
:101EF000400740F1AF80786D10F0805F0BD1786DB6
:101F00004FF0010840F080507865786D00F0805007
:101F10000090009801E04FF00008BB4E484659F889
:101F2000060010F4807F14D159F8060040F4807048
:101F300049F80600FFF7E0FB0546484659F8060059
:101F400010F4807F05D1FFF7D7FB401B0228F4D99E
:101F50001FE0A668012E07D0D7F88C00052E55D1BA
:101F600040F00400C7F88C00D7F88C0040F0010066
:101F7000C7F88C00FFF7C0FB054641F28836D7F85A
:101F80008C0010F0020F5ED1FFF7B6FB401BB04291
:101F9000F5D90320CCE020F480703060FFF7ACFB73
:101FA00005464846D9F8000010F4806F3FF4F5AEBE
:101FB000FFF7A2FB411B03200229F2D9B8E03868E1
:101FC000216920F0FE4040EA01603860E5E620F437
:101FD0008030C8F80000D8F8000020F48020C8F84D
:101FE0000000FFF789FB002E054646467FF41BAF35
:101FF000D9F800004E4610F4003F3FF4CBAEFFF797
:102000007BFB411B03206429F2D991E020F0010001
:10201000C7F88C00D7F88C0020F00400C7F88C00BB
:10202000FFF76AFB0546002EA7D141F28836D7F8A4
:102030008C0010F0020F06D0FFF75EFB411B03205F
:10204000B142F4D974E0B8F1000F1EBF786D20F0F2
:1020500080507865207880062ED5A169D7F8940045
:1020600091B140F00100C7F89400FFF745FB054629
:10207000D7F8940010F0020F1ED1FFF73DFB411B73
:1020800003200229F4D953E020F00100C7F894009E
:10209000FFF732FB0546D7F8940010F0020F0BD083
:1020A000FFF72AFB411B03200229F4D940E000BFBF
:1020B0000010024004100240E669002E00F09F80EC
:1020C000786800F00C000C2836D1012E2FD0B868AB
:1020D000216A00F003028A4229D1616A6FF00F027F
:1020E00002EB011100F0F0028A4220D1A16A00F453
:1020F000FE42B2EB012F1AD1E16A00F07842B2EB56
:10210000C16F14D1216B434A02EA015100F4C002AD
:10211000A1F500118A420AD1616B4FF07E4200F0B6
:10212000C06001F0FE0102EB0161884267D001202E
:10213000C0B201B0BDE8F083D9F8000020F0807093
:10214000C9F80000FFF7D8FA0546022E0CD1484620
:10215000D9F8000010F0007F13D0FFF7CDFA411B33
:1021600003200229F3D9E3E74846D9F8000010F02C
:10217000007F40D0FFF7C0FA411B03200229F3D9AA
:10218000D6E704F12006B8686FF00F054ECE05EBD8
:1021900002121F4D28400843216B10431D4A40EA9C
:1021A000032002EA01514FF07E42A1F500110843DD
:1021B000616B40EAC66001F0FE0102EB0161084379
:1021C000B860D9F8000040F08070C9F80000B86825
:1021D00040F08070B860FFF78FFA04464846D9F89F
:1021E000000010F0007F0AD1FFF786FA011B0320E0
:1021F0000229F3D99CE7B86804490840B860002078
:1022000096E700BF080000200060FEFFFCFFEEFE26
:102210000C809F010000E0FF411E0020B0EB116F19
:102220001CBF01207047044AF023516003490B7022
:10223000072190601160704710E000E023ED00E09E
:10224000704770477047000090F83C20012A01D188
:10225000022149E070B5012280F83C20234AD1E9EF
:1022600000C3D1E902E403EA020524F47C542EF40D
:102270007053234302F5C0542B4302F5006505EA71
:102280000C052B430D692540194C2B434D692B43FD
:1022900002F5605502F5F0422B400D6B2A401A43BF
:1022A000CB691A438B6904EA03438B4C13430268DE
:1022B000A24202D0864CA24210D10E4CD1E9085C59
:1022C0000D4E2340D1E90A4106EA0456334325F076
:1022D000085633432CF0005633430B43002153641C
:1022E00080F83C10BDE87040C8B27047FF87F0EF3F
:1022F0000000FFEFFFFF0FDC0000F0DC70477047CD
:102300007047000090F83C300222012B37D070B5A6
:1023100080F83D200122704D80F83C20026854680E
:102320009368AA4202D06A4EB24203D14E6824F4A6
:1023300070043443134EB2F1804F06EA04060C6871
:1023400046EA040656600DD05F4CA2420AD05F4CAC
:10235000A24207D05E4CA24204D05E4CA24201D001
:10236000AA4204D1896823F08003194391600022B6
:10237000012180F83C2080F83D10BDE87040D0B2CB
:10238000704700BF8FFFFFFD704710B5044650B384
:1023900094F83D0028B9002084F83C00204600F065
:1023A00025F80220211D84F83D00206801F0E0F9A5
:1023B000012084F8480084F83E0084F83F0084F847
:1023C000400084F8410084F8420084F8430084F817
:1023D000440084F8450084F8460084F8470084F8F7
:1023E0003D00002010BD012010BD0000F8B50068C0
:1023F0001A4988421BD01A49884223D03249884260
:1024000018BF8FBD17480022016841F0020101602A
:102410000021006800F00200039003981D20FFF7E0
:10242000CDF91D2004B0BDE88040FFF7B9B90D48D3
:10243000816841F480218160806800F480200190EF
:1024400001988FBD0748816841F400318160806840
:1024500000F40030029002988FBD00BF0048014098
:10246000004401405810024090F83D1001291CBF63
:1024700001207047022180F83D100168C868B1F161
:10248000804F40F00100C8600ED00F4881420BD051
:102490000E48814208D00E48814205D00D48814245
:1024A00002D00D48814209D188680C4A02400020C0
:1024B000062A08D0B2F5803F08BF7047086840F090
:1024C0000100086000207047000400400008004040
:1024D000002C014000400140003401400700010091
:1024E00010B590F83C2004460220012A4BD084F815
:1024F0003D0001203F4B84F83C00206882681A4070
:1025000082600A688AB3102A2FD0202A2DD0302A60
:102510002BD0402A39D0502A43D0602A4DD0364B98
:102520009A4222D0B2F5805F26D0B2F5005F50D03B
:10253000B2F1101F19D0314B9A4216D0304B9A424B
:1025400013D0304B9A4210D0702A51D1D1E90123D7
:10255000C9681A4342EA0121826822F47F4211438A
:102560008160816841F0770105E08168264B194060
:10257000114341F0070181600020002184F83C10E4
:10258000012184F83D10C0B210BD4B68CA681946DD
:1025900001F0BAFA20681C4A8168114041F04701F5
:1025A000E9E74B68CA68194601F0AEFA2068164A96
:1025B0008168114041F05701DDE74B68CA68194650
:1025C00001F0B3FA2068104A8168114041F06701B8
:1025D000D1E7D1E90123C9681A4342EA012182689F
:1025E00022F47F4211438160816841F48041C2E757
:1025F0000120C2E78800CEFF70001000200010000C
:10260000300010004000100088FFCFFF704700002E
:10261000F8B504460068C768066906EA070515F0BC
:10262000020F14D06FF0020101610121217780694E
:1026300010F0030F03D02046FFF7E8FF05E0204627
:1026400000F0EAF8204600F078F9002020776807CB
:1026500015D520686FF0040101610221217780699E
:1026600010F4407F03D02046FFF7D0FF05E020465E
:1026700000F0D2F8204600F060F90020207728070B
:1026800015D520686FF00801016104212177C06928
:1026900010F0030F03D02046FFF7B8FF05E02046F7
:1026A00000F0BAF8204600F048F900202077E8064C
:1026B00015D520686FF01001016108212177C069EC
:1026C00010F4407F03D02046FFF7A0FF05E020462E
:1026D00000F0A2F8204600F030F900202077E8074B
:1026E00006D020686FF001010161204600F0AEF9CC
:1026F00017F0800718BF16F4025005D02068224951
:1027000001612046FFF79DFD47B116F4807005D0AA
:1027100020681E4901612046FFF792FD680606D534
:1027200020686FF040010161204600F0EDF9A80635
:1027300006D520686FF0200101612046FFF782FD79
:10274000E80205D52068124901612046FFF7D7FD50
:10275000A80205D520680F4901612046FFF7CEFD8C
:10276000680205D520680C4901612046FFF7C8FDC5
:10277000280258BFF8BD2068084901612046BDE81D
:10278000F840FFF701BE00BF7FDFFFFFFFFEFFFF46
:10279000FFFFEFFFFFFFDFFFFFFFBFFFFFFF7FFF39
:1027A00010B586B0044601A81421FDF76CFE206820
:1027B0001649884210D01649884225D1154801682B
:1027C00041F001010160006800F0010000900098F4
:1027D0000220029040200CE00E48016841F0010107
:1027E0000160006800F00100009000980220029053
:1027F00080200190002001A9039004900120059001
:102800004FF09040FEF79EFE06B010BD004801401C
:10281000004401404C10024070470000B0B504462F
:1028200090F83C000D46012801D1022052E04FEA09
:10283000B2010120052984F83C0048D8DFE801F006
:10284000030B131B23332068294601F01FF820686F
:1028500050F8181F1EE02068294601F04BF8206848
:1028600050F8181F26E02068294601F07BF8206800
:1028700050F81C1F0EE02068294601F0ADF82068D2
:1028800050F81C1F16E02068294601F0DFF8206888
:1028900050F8501F41F008010160016821F0040167
:1028A000016029690FE02068294601F0FDF82068E1
:1028B00050F8501F41F400610160016821F480610B
:1028C00001602969090202681143016000200021AA
:1028D00084F83C10C0B2B0BD10B5044650B394F8B3
:1028E0003D0028B9002084F83C00204600F024F880
:1028F0000220211D84F83D00206800F039FF0120EE
:1029000084F8480084F83E0084F83F0084F84000D2
:1029100084F8410084F8420084F8430084F84400BD
:1029200084F8450084F8460084F8470084F83D00A8
:10293000002010BD012010BD70477047B0B504469F
:1029400059B1081F4FEAB000032809D8DFE800F0AA
:10295000020B0E1104F13F000DE004F13E000AE00D
:1029600004F1430007E004F1400004E004F14100F9
:1029700001E004F14200007801281CBF0120B0BD35
:1029800061B1081F4FEAB00003280BD8DFE800F060
:10299000020E1216022084F83F0012E0022084F892
:1029A0003E000EE0022084F843000AE0022084F892
:1029B000400006E0022084F8410002E0022084F892
:1029C000420020680122012500F050FF21681848CC
:1029D00008444FEAB020072808D805FA00F010F0A4
:1029E000E50F1EBF486C40F400404864B1F1804FD1
:1029F0000ED0104881420BD00F48814208D00F48BA
:102A0000814205D00E48814202D00E48814209D150
:102A100088680D4A02400020062A08D0B2F5803F9F
:102A200008BFB0BD086840F0010008600020B0BDDC
:102A300000D4FEBF0004004000080040002C01400C
:102A40000040014000340140070001002DE9F04141
:102A5000B84C006804F17841884201D0BDE8F081AB
:102A6000274F204601210125B8470028254E4FF069
:102A700002014FF0020818BF012030712046B8470C
:102A800000284FF0040118BF012030732046B847DA
:102A900000284FF0010118BF012030754FF0904021
:102AA000B84700284FF0000118BF01203077002000
:102AB000202908BFBDE8F081735C7218022B06D094
:102AC000012B0DD0D3B91379C3B9157016E0137962
:102AD0006BB11070557153884F2B98BF90710DE0FA
:102AE0001379002B14BF107082F8008006E0538821
:102AF000013353809BB2512B28BF95710831D7E722
:102B0000E1160008440200207047FEE7FEB5C02031
:102B100001A90190002005900120CDE902000220CA
:102B200004908448FEF70EFD06B080BD70B500F03D
:102B3000A7FD414D002408260CE0286940F0400024
:102B40002861286840F04000286000F08FFD40EACE
:102B50004404013E3006F0D1286940F0400028616D
:102B600000F0AAFDE0B270BD70B5F14E0446082534
:102B7000306940F040003061280608BF70BD04F0A5
:102B8000800000F08DFD30686400013D40F04000A1
:102B90003060EDE7E648016841F0800101600168BE
:102BA00041F040010160016941F04001016170475D
:102BB000F448016841F080010160016841F0400182
:102BC0000160016941F080010161016941F040014A
:102BD00001617047EB48016941F040010161016901
:102BE00041F080010161016841F04001016001682C
:102BF00041F080010160704770B500F041FDFA4C72
:102C000005254FF6FF76206840F04000206000F078
:102C10002DFD40B1013D3542F9D100F04DFDFFF7EA
:102C2000D9FF012070BD00F047FD206940F0400051
:102C30002061002070BD00BF18040048FEB54FF6AB
:102C4000FF7003210190002005900290CDE903015F
:102C5000F34801A9FEF776FC06B080BDFEB54FF63D
:102C6000FF70012101900020059002910321CDE920
:102C70000301EB4801A9FEF765FC06B080BD00BF6B
:102C8000B0B504460020002100F014F900F052F91C
:102C90004FF4963503E0204600F024F9013D002D65
:102CA000F9D1B0BDF0B587B000262148214C0127ED
:102CB00002AD0696016841F004010160016801F06F
:102CC000040101910199016841F00101016001686D
:102CD00001F0010101910199016841F002010160D7
:102CE0002946006800F002000190019803974FF414
:102CF000487002902046CDE90466FEF723FC4FF4AD
:102D000080700397294602904FF09040CDE9046609
:102D1000FEF718FCFFF7A2FF0748215841F4807125
:102D20002150A06940F40870A06107B0F0BD00BF59
:102D30004C1002400004004818FCFFFF203AD3B2B8
:102D40005B0053FA82F2024B03EB021200F016B85A
:102D5000EC4B0008F8B50C46054640F23F1600273C
:102D600009E0E25D002A08BFF8BDB1B22846FFF7CE
:102D7000E5FF0137103E132FF3D9F8BD2DE9F84FC9
:102D800014468846814600F095F8DFF824A1DFF864
:102D900050B100270125182F08BFBDE8F88F00F0BB
:102DA000C9F800260CE034F8170005FA06F10142D4
:102DB00014BFBBF80000BAF8000000F093F8013629
:102DC000102EF0D109F1010941465FFA89F000F0B7
:102DD00071F80137DFE700BF10B5FFF763FF002090
:102DE00000F014F8084C48F23021208020888842F6
:102DF00002D100F0F9FA01E000F06CFB002000F0D5
:102E000005F8208010BD00BF86000020B0B5214C21
:102E1000D4F8101441F40071C4F81014D4F810144C
:102E200041F48071C4F81014D4F8001441F020016A
:102E3000C4F8001418490860D4F8100440F02000C9
:102E4000C4F8100400BF00BF00BFD4F8000440F075
:102E50002000C4F80004D4F8000440F48070C4F8E2
:102E60000004FFF7EBFE206940F48070206100BF92
:102E700000BF00BFD4F8F857206840F4807020608D
:102E8000FFF7ECFED4F8000440F40070C4F800042E
:102E9000A8B2B0BD180000481408004881B0ADF8D1
:102EA00002000348BDF80210018001B0704700BF66
:102EB0001400002010B50C460146202000F064F8F4
:102EC00021202146BDE8104000F05EB881B0ADF889
:102ED00002000348BDF80210018001B0704700BF36
:102EE0008400002040490A6942F400720A610A68BD
:102EF00042F480720A600A6842F020020A60C1F857
:102F0000FC03086940F02000086100BF00BF00BF5B
:102F1000086840F020000860086840F4807008608D
:102F200000BF00BF00BF086840F400700860704731
:102F3000180400482C48016941F4007101610169DD
:102F400041F480710161016841F02001016022219A
:102F5000C0F8FC13016941F02001016100BF00BF0E
:102F600000BF016841F020010160016841F48071F7
:102F7000016000BF00BF00BF016841F40071016043
:102F8000704700BF18040048174A136943F40073E0
:102F90001361136943F480731361136843F02003D2
:102FA0001360C2F8FC03106940F02000106100BFFC
:102FB00000BF00BF106840F020001060106840F4AF
:102FC00080701060C2F8FC13106940F0200010619E
:102FD00000BF00BF00BF106840F020001060106804
:102FE00040F48070106070471804004870B50C4CB5
:102FF0000C4E05464FF6FF7101222046B0472902CC
:1030000020460022B04704F58064042101222046B6
:10301000B0472046042100223346BDE870401847DF
:1030200000080048EB160008C1F3045CC1F34061DE
:10303000072300EB810003FA0CF302FA0CF241695A
:10304000994311434161704710B58CB0002401A829
:1030500020210B94CDE90944FDF715FA1C484FF4E3
:1030600000314FF0A0420423C0E900210121C0E952
:103070000244C0E9044483618483016280F82440EF
:10308000C0E90B4480F83840C46380F84040FEF744
:1030900075F808B1FDF778FE0D4809A90994FDF708
:1030A00077FE08B1FDF770FE06207F210290002018
:1030B000039004910421CDE90510064801A901906F
:1030C0000348FDF7BDFE08B1FDF75EFE0CB010BD74
:1030D000880000200008302EB0B588B06846202156
:1030E000FDF7D1F91748184A4FF4003100240425A0
:1030F000C0E900210121C0E90244C0E9044485611E
:103100008483016280F82440C0E90B4480F8384091
:10311000C46380F84040FEF731F808B1FDF734FE93
:1031200006206946CDE901047F20CDE90305074863
:10313000059400900348FDF783FE08B1FDF724FED7
:1031400008B0B0BDF4000020000100500080F03E47
:103150002DE9F04F87B04FF00008354801224FF4B9
:103160007F474FF0010ACDF81880016841F0040153
:103170000160016801F0040101910199016841F0C9
:1031800020010160016801F02001019101990168AD
:1031900041F001010160016801F001010191019913
:1031A000016841F002010160016801F00201019132
:1031B0000199016841F0080101604FF47F41006806
:1031C00000F00800019001981A4800F580668346D7
:1031D0003046FEF78AFA0BF50065042100224FF015
:1031E00004092846FEF781FACDE9027A02AF124CB3
:1031F0003046CDE904883946A0474FF09040394623
:10320000CDE902A8CDF810A0A0470720CDF80C808A
:10321000394602905846CDF810A0A04728463946B6
:10322000CDE9029ACDE90488A04707B0BDE8F08F48
:103230004C1002400004004845150008B0B594B099
:103240000DAC1C212046FDF71EF968463421FDF720
:103250001AF92048204A41F63F7100236325C0E94E
:103260000021C0E90235C0E904338361FFF78DF81E
:1032700008B1FDF789FD1748FFF72EFB08B1FDF7F0
:1032800083FD142014210E9060200D9004F108009D
:10329000FDF7F9F80F48214600220025FFF7BEFA96
:1032A00008B1FDF771FD6C4614212046FDF7EBF8DF
:1032B0004FF4005006952146059006480C95FEF700
:1032C000C3FF08B1FDF760FD0248FFF769FA14B0CB
:1032D000B0BD00BF6001002000440140B0B594B013
:1032E0000DAC1C212046FDF7CEF868463421FDF7D1
:1032F000CAF82048204A40F69F7100236325C0E9A0
:103300000021C0E90235C0E904338361FFF73DF8CD
:1033100008B1FDF739FD1748FFF7DEFA08B1FDF7F0
:1033200033FD142014210E9060200D9004F108004C
:10333000FDF7A9F80F48214600220025FFF76EFA95
:1033400008B1FDF721FD6C4614212046FDF79BF8DE
:103350004FF4005006952146059006480C95FEF75F
:1033600073FF08B1FDF710FD0248FFF719FA14B01A
:10337000B0BD00BFAC0100200048014080B588B05E
:10338000FA48164A00214F2342F20F7CCDE906117C
:10339000CDE90411C0E90023C0E9021C016181618B
:1033A0000391CDE90111FEF7F0FF08B1FDF7ECFC48
:1033B0004FF4805004A90490EC48FFF791F808B14D
:1033C000FDF7E2FC002001A903900190E748FEF719
:1033D00099FF08B1FDF7D8FC08B080BD000400409B
:1033E000FEE7FEE77047000010B59E4C002001216B
:1033F000A04701200021A047102041F29071A04772
:1034000060204FF41C51A04761200121A0474620B5
:103410000221A047132048F21001A0472C48EE30AB
:1034200081B21220A04702204FF4A061A0470320E0
:1034300041F23001A047302040F20331A047312053
:1034400040F20331A047322040F20331A04733203D
:103450004FF44071A04734200321A047352040F2AB
:103460000331A04736201421A047372040F2033112
:10347000A047382040F20331A047392040F2033101
:10348000A0473A204FF44071A0473B200321A047BA
:103490003C2040F20331A0473D204FF4A051A0470B
:1034A00092204FF40071A047932040F20331A047CF
:1034B000902040F60D01A047032041F21801A047DB
:1034C000072040F273112246BDE81040104700BFAC
:1034D0001080FFFFB0B5634DE32043F20801A84719
:1034E000E7201221A847EF2041F23121A84701200F
:1034F0000021A84702204FF4E061A847032041F2D1
:103500003001A84704200021A847082040F20721E5
:10351000A84709200021A8470A200021A8470C201D
:103520000021A8470D200021A8470F200021A8470F
:1035300010200021A84711200721A84712200021B0
:10354000A84713200021A847474CC820A0471020B7
:1035500041F29061A847112040F22721A84732206C
:10356000A04712201D21A8473220A04713204FF466
:103570000061A84729201421A8472B200B21A84728
:103580003220A04720200021A84721200021A84761
:1035900030200721A847312040F20771A847322088
:1035A0000621A847352040F20471A847362041F68D
:1035B0000471A84737200421A84738200021A847D4
:1035C000392040F20671A8473C2040F20171A8471B
:1035D0003D200F21A84750200021A8475120EF216E
:1035E000A84752200021A847532040F23F11A84786
:1035F00060204FF41C51A84761200121A8476A2090
:103600000021A84780200021A84781200021A84749
:1036100082200021A84783200021A8478420002180
:10362000A84785200021A84790201021A847922074
:103630000021A84793200321A84795204FF48871C3
:10364000A84797200021A84798200021A8470320D9
:1036500041F21801A847072040F273112A46BDE83D
:10366000B0401047892F00082515000880B51A487A
:103670008021FEF735F80138B0FA80F0400980BDAE
:10368000FEB5802001A90190002005900290012044
:103690000390022004901048FDF754FF06B080BD4F
:1036A0000449002808BF1031086840F08000086015
:1036B000704700BF18040048FEB58020112101901A
:1036C00000200590CDE90210022001A904900248D3
:1036D000FDF738FF06B080BD000400487047FEF7D4
:1036E0000FB870B594B006AC1421142604F108008C
:1036F000FCF7C9FE01A81421FCF7C5FE4FF40070C9
:10370000FEF78EF80120032506904FF480300790D5
:1037100002200D90CDE90E55CDE91060CDE91200E3
:103720002046FEF72BFB18B1EFF3108072B6FEE7D0
:103730000F200295022101900020CDE903000590A1
:1037400001A8FEF7E9F918B1EFF3108072B6FEE7B1
:1037500014B070BD0248016841F470010160704707
:1037600088ED00E00148FEF753BF00BFF8010020DC
:10377000B0B50368364DB0F1804F0AD0354A90425B
:1037800007D0354A904204D0344A904201D0A84232
:1037900040D105F5C0544A6823F07003041BB4FA05
:1037A00084F4134305F5E0524FEA541E05F5A05486
:1037B000821A041BB2FA82F2B4FA84F452094FEA74
:1037C000541CCC6823F4407323434C6923F08003DA
:1037D000002A43EA040303608B68C3620B688362B8
:1037E0000BD1BEF1000F08D1A84206D005F500624A
:1037F000904202D0BCF1000F01D0096901630121A0
:103800004161016911F0010F1EBF016921F0010141
:103810000161B0BD05F5C05405F5E052041B821AE4
:10382000B4FA84F4B2FA82F24FEA541E05F5A054B9
:103830005209041BB4FA84F44FEA541C084CA04209
:10384000BFD0084CA042BCD0074CA042B9D0BCE7C6
:10385000002C0140000400400008004000340140FA
:1038600000400140004801400044014001F01F01B8
:10387000012303FA01FC036A02FA01F123EA0C03B3
:103880000362026A114301627047000070B5026A68
:10389000036A23F0010322F002020362D0F804E07D
:1038A00083698D680C6815434A4A1A4042EA040C41
:1038B000944A02444FEAB222072A13D8012303FA9A
:1038C00002F212F0E50F0DD0CE68D1E905342EF4E6
:1038D00040721A4326F0040342EA040E25F00C025B
:1038E00043EA0205C0F804E0C0F818C04968416323
:1038F000056270BD70B5026A036A23F0100322F0FE
:1039000020020362466883698D680C6842EA051EDE
:103910004D4A1A406FF0040342EA042C794A0244EB
:1039200003EBB223032B0DD34FEAB222022A00D0BD
:1039300082B9CA686FF04F0303EA02122EF0C00387
:1039400042EA030ED1E9052326F4406444EA8202E8
:1039500042EA83064660C0F818C049688163C0F82F
:1039600020E070BD70B5026A036A23F4807322F40C
:10397000007203624668C3698D680C6842EA052ECE
:10398000144A1A406FF0040342EA040C5D4A0244F0
:1039900003EBB223032B0DD34FEAB222022A00D04D
:1039A00082B9CA6840F2FF4312029A432EF4406380
:1039B00042EA030ED1E9052326F4405444EA0212F8
:1039C00042EA03164660C0F81CC04968C163C0F8EB
:1039D00020E070BD8CFFFEFF70B5026A036A23F41D
:1039E000805322F4005203624668C3698D680C68F4
:1039F00042EA053E144A1A406FF0040342EA042CDE
:103A0000404A024403EBB223032B0DD34FEAB22208
:103A1000022A00D082B9CA6844F6FF7312039A439F
:103A20002EF4404342EA030ED1E9052326F4404434
:103A300044EA821242EA83164660C0F81CC0496814
:103A40000164C0F820E070BDFF8CFFFE70B5D0F8B7
:103A500020C0036A23F480332CF4003503624668E7
:103A6000026D8C680B6845EA044C0E4C224042EA19
:103A7000030E244A02444FEAB222072A0AD801233D
:103A800003FA02F212F0E50F1EBF4A6926F48033F2
:103A900043EA02264660C0F850E049688164C0F8F5
:103AA00020C070BD8FFFFEFF70B5D0F820C0036A44
:103AB00023F480132CF4001503624668026D8C68B1
:103AC0000B6845EA045C0E4C224042EA032E0D4A84
:103AD00002444FEAB222072A0AD8012303FA02F26B
:103AE00012F0E50F1EBF4A6926F4802343EA8226BE
:103AF0004660C0F850E04968C164C0F820C070BD9D
:103B0000FF8FFFFE00D4FEBFD0F820C0036A23F071
:103B100001030362836923F0F00343EA0212826126
:103B20002CF00A02114301627047D0F820C0036AEA
:103B300023F010030362836923F4704343EA0232E3
:103B400082612CF0A00242EA011101627047FEE797
:103B500010B5074C00F00F03044AB0F1FF3F2344B7
:103B6000C8BF83180801187010BD00BF00E400E052
:103B700014ED00E0F0B589B0274D6888012826D003
:103B8000002846D13448284D01AC019032A0D0E93C
:103B90000110CDE9021018202146A847314800F055
:103BA000ABF853EC102B30A12046FCF795FB4820D6
:103BB0002146A847304800F09FF853EC102B2FA166
:103BC0002046FCF789FB60202146A84721E01348E6
:103BD000154E01AC019011A0D0E90110CDE9021001
:103BE00000202146B047AA88104F11A12046B847AF
:103BF00030202146B047EA8810A12046B84760200F
:103C00002146B0472A7810A12046B8479020214687
:103C1000B04709B0F0BD00BF0000002020202020E8
:103C20002020205061726100552D0008D902000843
:103C3000202020205041363A2564000020202020FA
:103C40005041373A25640000202020206565705FD0
:103C50007061363A25640000202020202020204476
:103C60006174610088000020202020202020205640
:103C7000313A252E32660000F4000020202020205A
:103C800020202056323A252E3266000070B50446B8
:103C9000FEF78EFF154DA020A847154EB0472046D1
:103CA000A847B047FEF796FFFEF782FFA120A8477E
:103CB000B047FEF73BFF0446FEF76CFFFEF78AFFB6
:103CC000204670BDF8B50C460546FEF771FF074E5D
:103CD000A020B047064FB8472846B047B84720460F
:103CE000B047B847BDE8F840FEF774BF692B00083D
:103CF000F92B00080000000010B50446FDF7A2FBF8
:103D00002046FDF737FA00F0FDFD9FED070B53EC61
:103D1000102B00F00BFE9FED060B53EC102B00F068
:103D200099FC41EC100B10BD6666666666660A403B
:103D3000000000000076AF40B0B51C4C607950B177
:103D400000200025FEF79CFF424865714188B1FACA
:103D500081F149094180607B68B13E4881880A3120
:103D60008AB2632A88BF0A21818088B237490968EC
:103D7000486300206073607D68B13648C1880A31AD
:103D80008AB2632A88BF0A21C18088B23049096893
:103D9000486300206075607F38B100200025FEF781
:103DA0006FFF2C48012165774170B0BD44020020AF
:103DB000B0B5FDF7ABFCFFF794FCFFF7C9F9FFF7CF
:103DC000DDFAFFF73BFAFFF789FAFFF73DF9FFF756
:103DD00083F900200024FFF709F9FEF7FDFF00201A
:103DE000FEF74EFF0020FFF759F84FF6FF70FFF780
:103DF0006DF81548FEF738FB14480021FEF79EFDCC
:103E000013480021FEF79AFDFEF780FE114D6878F9
:103E1000A0B101200921FFF755FF4FF4FA70FDF71B
:103E200081FB01206C70FFF731FF0F2802D10120C8
:103E3000FFF7DCF80120FFF729FF2870FFF77CFF70
:103E4000FFF798FEE3E700BFF801002060010020C3
:103E5000AC010020000000205FEA400C08BF91F098
:103E6000000F4FEA8C234FEAC12243EA51514FEA37
:103E70001C5018BF00F5F0404FEA300018BF41F069
:103E800000415FEA6C5C00F02980BCF1FF3F08BF95
:103E900040F080407047130C06BF12044FF0100C26
:103EA0004FF0000C130E04BF12020CF1080C130F9C
:103EB00004BF12010CF1040C930F04BF92000CF12B
:103EC000020CD30F04BF52000CF1010C11464FF04D
:103ED0000002A0F11F00A0EB0C00704711F0004F92
:103EE00008BF704731F000413FF4D5AF0B0C06BF5F
:103EF00009044FF0100C4FF0000C0B0E04BF090228
:103F00000CF1080C0B0F04BF09010CF1040C8B0F12
:103F100004BF89000CF1020CCB0F04BF49000CF167
:103F2000010CCCF1200322FA03F341EA030102FA67
:103F30000CF2A0EB0C0000F10100704723F07F476A
:103F400020F07F4C80EA030000F00040ACEB070358
:103F500003F57C5303F1FF032DE9804909B44FEACF
:103F6000144324EA03484FEA154B25EA0B4E0FF29F
:103F7000042606EB13273E7803FB0667C7F5000708
:103F800007FB06F64FEAD64606F102064FEA54371B
:103F900007FB066CCCF1005C4FEA1C472CEA074C8F
:103FA0000CFB06F507FB06F404EB15464FEA9616E4
:103FB00049085FEA320234BF00204FF000404FEA68
:103FC000D13706FB07FC4FEA1C4C0CFB0BF7D21B4E
:103FD00003FB0CF761EB07010CFB0EF7B0EB07409E
:103FE00072EB17420CFB08F734BFA2EB0742B2EBAF
:103FF000074261EB17414FEA0C444FEA910706FB79
:1040000007FC4FEA1C4C0CFB0BF7B0EBC74072EB04
:10401000573203FB0CF734BFA2EBC742B2EBC742E7
:1040200061EB57310CFB0EF7B0EBC70072EB577228
:104030000CFB08F734BFA2EBC702B2EBC70261EB7F
:1040400057714FEA816141EA92114FEA826242EA76
:1040500090124FEA806004EBCC04039F4FEAD13703
:1040600006FB07FC4FEA1C4C0CFB0BF7D21B03FBB7
:104070000CF761EB07010CFB0EF7B0EB074072EB9E
:1040800017420CFB08F734BFA2EB0742B2EB074222
:1040900061EB17414FEA8C5504EB9C244FEA9107E2
:1040A00006FB07FC4FEA1C4C0CFB0BF7B0EBC740C0
:1040B00072EB573203FB0CF734BFA2EBC742B2EBF3
:1040C000C74261EB57310CFB0EF7B0EBC70072EB48
:1040D00057720CFB08F734BFA2EBC702B2EBC70262
:1040E00061EB57714FEA816141EA92114FEA8262B6
:1040F00042EA90124FEA806015EB4C2544F100042F
:104100004FEAD13706FB07FC4FEA1C4C0CFB0BF7C0
:10411000D21B03FB0CF761EB07010CFB0EF7B0EBB6
:10412000074072EB17420CFB08F734BFA2EB0742C3
:10413000B2EB074261EB17414FEA813141EA92410C
:104140004FEA823242EA90424FEA80304FEA0C76E0
:1041500015EB1C1544F1000448EA03434EEA0B48F2
:104160004FF0000EB2EB080C71EB030724BF624660
:1041700039464EEB0E0E4FF0000B001852414941EC
:104180004BEB0B0BB2EB080C71EB03077BF1000B55
:1041900024BF624639464EEB0E0E4FF0000B00185E
:1041A000524149414BEB0B0BB2EB080C71EB03078F
:1041B0007BF1000B24BF624639464EEB0E0E51EAEE
:1041C000020718BF46F0010616EB0E7655F1000205
:1041D00054F1000103D5BDE88901BDE80088BDE8C0
:1041E0008901BDE80048B619524141EB0101A3F134
:1041F0000103704780807F7E7D7C7B7A797877763B
:1042000076757473727171706F6E6E6D6C6C6B6AB3
:104210006A69686867666665646463636261616051
:10422000605F5F5E5E5D5D5C5C5B5B5A5A595958CE
:104230005857575656555555545453535252525138
:10424000515050504F4F4F4E4E4D4D4D4C4C4C4B8E
:104250004B4B4A4A4A4949494848484747474746D5
:104260004646454545444444444343434342424211
:10427000424141419C46002B30D477002BD04FEA7D
:1042800037071CB503B44FF010004FF01001BAF11E
:10429000000F06D0BCF1000FDCBF40F0080040F07A
:1042A00008014FF000000FBCBDE810400BF1010BFE
:1042B000BBF1010F08BF5FEA170722BF12F101022D
:1042C00011F101014FF0004143F1000300F0004003
:1042D00043EA00007047F9D35708D0E746EA06469C
:1042E0004FEA164613F1400F1FDD13F1200FDFBF19
:1042F00016430A46002120335B42BED0C3F120079B
:1043000046EA06464FEA164602FA07F746EA070665
:1043100022FA03F2C3F1200701FA07F742EA070283
:1043200021FA03F14FF00003A7E746EA020646EA46
:1043300006464FEA164646EA0106BCBF46EA06466E
:10434000360C4FF000034FF000024FF0000194E7ED
:104350002DE9804C70B49A46934691E8380007C81E
:1043600031EA400C48BF34EA430C03D5FFF7E6FDC1
:10437000FFF780FFF0BCBDE8008C2DE9804C70B4E5
:104380009A46934691E8380007C810F0804F08BF5E
:1043900013F0804F03D100F005F8FFF76BFFF0BC7E
:1043A000BDE8008C20F07F4723F07F4C80EA0300BB
:1043B00000F0004007EB0C03A3F57C53A3F1FE03D0
:1043C00092F0000F00F0B38095F0000F00F07780BE
:1043D0002DE901494FEA114021EA00484FEA14460D
:1043E00024EA064700FB06FC08FB06F607FB08F874
:1043F00018EB06484CEB164C00FB07F718EB074888
:104400004CEB17404FEA124B22EA0B4E4FEA15468F
:1044100025EA06470BFB06FC0EFB06F607FB0EFE25
:104420001EEB064E4CEB164C0BFB07F71EEB074E34
:104430004CEB174B18EB0B0840F1000018EB0E0B80
:1044400058EB000840F100008F1A4FF000014FF0C8
:1044500000063CBFC943661B14BFB5EB040C00212A
:104460003CBFC943F61B4FEA174427EA04454FEA0D
:104470001C472CEA074C04FB076205FB07F70CFB03
:1044800005F616EB074642EB174204FB0CFC16EB55
:104490000C4642EB1C421BEB060658EB0202414164
:1044A0004EEA8E0E46EA9E0601D5BDE80189B61990
:1044B000524141EB0101A3F10103BDE801894FEA3B
:1044C000144524EA05464FEA114721EA074C05FB4B
:1044D00007F406FB07F70CFB06F111EB074144EB71
:1044E000174405FB0CFC11EB0C4144EB1C444FEA58
:1044F000124722EA074C05FB07F206FB07F70CFB05
:1045000006F616EB074642EB174205FB0CFC16EBD2
:104510000C4642EB1C456A1854F1000148BF704735
:10452000B619524141EB0101A3F10103704795F027
:10453000000F37D04FEA114221EA02464FEA1447F2
:1045400024EA074C02FB07F106FB07F70CFB06F415
:1045500014EB074441EB174102FB0CFC14EB0C4439
:1045600041EB1C414FEA154725EA074C02FB07F5D2
:1045700006FB07F70CFB06F616EB074645EB17455F
:1045800002FB0CFC16EB0C4645EB1C42121951F1D8
:10459000000148BF7047B619524141EB0101A3F138
:1045A000010370474FEA144524EA05464FEA1147D4
:1045B00021EA074C05FB07F106FB07F70CFB06F2A7
:1045C00012EB074241EB174105FB0CFC12EB0C42CE
:1045D00051EB1C414FF0000648BF7047921841EB69
:1045E0000101A3F10103704703B401984100009851
:1045F00050EAC12018BF04204A0D18BF40F0010046
:1046000040F2FF72B2EB515F08BF40F00200012898
:1046100008BF052002B0704730380A2801D20120B7
:10462000704700207047000010B500290AD00878B4
:10463000002807D005487844FCF702FB002801D089
:10464000002010BD0248784410BD0000A6170000ED
:104650009E1700002DE9C04130B4DFF8A0C23CEA4B
:10466000111418BF3CEA131400F0EC801CEA11147A
:1046700081EA030544EAD57418BF1CEA131500F05B
:10468000C780A4EB050404F17F7404F500344FF0F7
:10469000004545EAC12145EAC32341EA505143EAB6
:1046A00052534FEAC0204FEAC222994208BF9042BB
:1046B00000F09C804FEA13650FF24016765D4FEADA
:1046C000134506FB05F7C7F1807706FB07F74FEAAE
:1046D000D737A7FB03687642A7FB06CEC8F580381C
:1046E00038BFA8F1010807FB08E6A6FB028C4FF0D3
:1046F000000EE6FB03CEDCF1000CCEF1004E38BF1D
:10470000AEF1010EA6FB0C584FF00007E6FB0E873A
:10471000A1FB08C6A0FB07CE16EB0E064FF0000566
:1047200045F10005E1FB076515F1E04E7EBFA4F5FC
:1047300080345FEA46066D4116F1800745F10005B9
:104740004FEA172747EA05674FEA15254FEA06663D
:10475000A6F1DE46B6F1805F1FD9384605EBC4717D
:1047600024F0010C01EB0C11BCF1FE6F02D8F0BC7F
:10477000BDE8008124425CBF01F5801E9EEAC47F33
:1047800002D4F0BCBDE80081244238D4A1F1C0417C
:10479000F0BCBDE8004100F0C1B94FEAD02040EACA
:1047A00041504FEAD1214FEAD22242EA43524FEA26
:1047B000D323A7FB028607FB036605FB02661EEAFE
:1047C0000E0F58BFA6EB0056B6EB00564FEA520E3E
:1047D0004EEAC37E18EB0E0E56EB530EBDD518EB0A
:1047E00002085E417F1C55F10005B6E74FF48015C5
:1047F0004FF000074FF000064FF00008ADE701F161
:10480000C04101F000414FF00000F0BCBDE8008164
:104810000CEA131511EA0C1F00D00CE013EA0C1F70
:1048200000F025804FF0000081EA030101F0004113
:10483000F0BCBDE80081F0BCBDE8004181EA0301A5
:1048400000F06CB9F0BCBDE8004170B500F018F99B
:10485000097EFC3E00F007B84FF0000081EA03013A
:1048600001F00041704781EA030100F057B9F0BC44
:10487000BDE8004122494FF000007047FFFDFBF901
:10488000F7F5F4F2F0EEEDEBE9E8E6E4E3E1E0DE83
:10489000DDDBDAD8D7D5D4D3D1D0CFCDCCCBCAC8F5
:1048A000C7C6C5C4C2C1C0BFBEBDBCBBBAB9B8B71C
:1048B000B6B5B4B3B2B1B0AFAEADACABAAA9A8A80F
:1048C000A7A6A5A4A3A3A2A1A09F9F9E9D9C9C9BDD
:1048D0009A99999897979695959493939291919088
:1048E0008F8F8E8E8D8C8C8B8B8A89898888878719
:1048F0008685858484838382828181800000FF078E
:104900000000F87FB0FA80F310FA03F10AD0C3F187
:104910001D0303F580634FEA03524FEA415002EB57
:10492000D12170474FF000007047000070B5DFF8EC
:1049300048C11CEA111E1EBF1CEA13159EEA0C0F8B
:1049400095EA0C0F00F06F8081EA03044EEAD47EF2
:10495000AE4421EA4C1123EA4C1341F4801143F494
:104960008013AEF17F7EA1FB024CA0FB03653619DC
:1049700055EB0C05A1FB034C4CF10003A0FB021C02
:1049800016EB0C06654153F10003094218BF46F0CF
:10499000010613F4007F0BD14FEA03314FEA0530D3
:1049A00041EA155140EA165034036FF003020AE061
:1049B0004FEAC3214FEAC52041EA555140EA56501B
:1049C000F4026FF0020202EB2E4201EB025585EA7F
:1049D000CE710AD05FEA440C18BF24F0004450F1B5
:1049E000000041F1000120EAD47040F2FE7C6245F3
:1049F00000D270BDA84214BF4FF080444FF0404435
:104A0000002E08BF0024BEF1806FA8BFA1F1C041F5
:104A1000BDE8704080F2828001F1C04101F00041A8
:104A20004FF0000070470CEA13159EEA0C0F18BFF8
:104A300095EA0C0F06D081EA030E4FF000000EF04D
:104A4000004170BD00F01CF88900013E00F007B87D
:104A500000F009B84FEA430C5FEA5C5C08D081EAD9
:104A6000030100F05BB84FEA410C5FEA5C5CF6D1F1
:104A700002494FF0000070470000FF070000F87F78
:104A80000EF1020E2EF0030E5EF8046B364205D4D2
:104A9000012A43EB030515F5001F12D8012841EB4D
:104AA000010C1CF5001F0CD80ED14FEAD17C0CEB89
:104AB0004C0C0CF1020C15F5001F08BF4CEBD37C1D
:104AC00004E04FF0080C01E04FEAD37C0CEB4C05FE
:104AD00026FA05F606F00706B6F1040C06D20EEB30
:104AE000860CBDE870404CF0010C6047DFE80CF02C
:104AF000090B02024FF00041A1F500214FF0000028
:104B000070BD19461046012851EB010418BFD4F5B9
:104B1000001484BF002001F0004170BD0808A0F51A
:104B200000114FEA31017047F1EE100A4FF6FF71A4
:104B3000C0F2C03120EA010040F04070E1EE100AFE
:104B40007047FBF7FBBD000002400000000000A022
:104B50000000000005400000000000C80000000048
:104B60000C4000000000409C0000000019400000C4
:104B70000020BCBE0000000034400000BFC91B8EF6
:104B800000000004B5400000504BCFD06607E2CFD4
:104B9000010000006C4100003E8251AADFEEA73404
:104BA00001000000D9420000DCB5A0E23A301F97B6
:104BB000FFFFFFFFB4450000FD25A0C8E9A3C14FDA
:104BC000FFFFFFFFFF3F000000000080000000002B
:104BD000FF3F000000000080000000000000000017
:104BE000000000000102030406070809000000009D
:104BF00000000000000000000000000000000000B5
:104C000000000000000000000000000000000000A4
:104C10000000000000000000000000000000800113
:104C2000800180018001800180018001800180017C
:104C3000800180018001800100000000800180016E
:104C40000000000000000000000000000000000064
:104C5000CC00CC00CC00CC00CC00CC00000000008C
:104C60000000000000000000000000000000000044
:104C70000000000000000000000000000000000034
:104C80000000000000000000600C600C600C3006AA
:104C90003006FE1FFE1F300638071803FE1FFE1FDA
:104CA000180318038C018C018C01000000008000A7
:104CB000E003F80F9C0E8C1C8C188C009800F801F7
:104CC000E007800E801C8C188C189C18B80CF00F14
:104CD000E0038000800000000000000000000000F1
:104CE00000000E181B0C110C110611061103110304
:104CF0009B018E01C038C06C604460443044304435
:104D00001844186C0C380000000000000000E0019E
:104D1000F0033807180618063003F001F000F80019
:104D20009C310E33061E061C061C063FFC73F02148
:104D30000000000000000000000000000000000073
:104D40000C000C000C000C000C000C00000000001B
:104D50000000000000000000000000000000000053
:104D60000000000000000000000000000000000241
:104D700000038001C000C00060006000300030000F
:104D80003000300030003000300030006000600043
:104D9000C000C000800100030002000000002000ED
:104DA0006000C000800180010003000300060006CF
:104DB00000060006000600060006000600030003C9
:104DC00080018001C00060002000000000000000A1
:104DD0000000000000000000C000C000D806F80776
:104DE000E001300338070000000000000000000070
:104DF00000000000000000000000000000000000B3
:104E0000000000000000000080018001800180019E
:104E10008001FC3FFC3F8001800180018001800116
:104E20000000000000000000000000000000000082
:104E30000000000000000000000000000000000072
:104E400000000000000000000000000000008001E1
:104E5000800100010001800000000000000000004F
:104E60000000000000000000000000000000000042
:104E700000000000E007E007000000000000000064
:104E80000000000000000000000000000000000022
:104E90000000000000000000000000000000000012
:104EA0000000000000000000000000000000C00042
:104EB000C000000000000000000000000000000C26
:104EC000000C000600060006000300030003800338
:104ED000800180018001C000C000C000600060004F
:104EE0000000000000000000000000000000E003DF
:104EF000F007380E180C0C180C180C180C180C189D
:104F00000C180C180C180C18180C380EF007E003CD
:104F10000000000000000000000000000000000190
:104F20008001C001F00198018801800180018001A9
:104F30008001800180018001800180018001800169
:104F40000000000000000000000000000000E0037E
:104F5000F80F180C0C180C1800180018000C00069C
:104F600000038001C000600030001800FC1FFC1F1F
:104F70000000000000000000000000000000E00150
:104F8000F807180E0C0C0C0C000C0006C003C00730
:104F9000000C001800180C180C18180CF807E00387
:104FA0000000000000000000000000000000000CF5
:104FB000000E000F000F800DC00C600C600C300C58
:104FC000180C0C0CFC3FFC3F000C000C000C000CFF
:104FD0000000000000000000000000000000F80FCA
:104FE000F80F180018000C00EC03FC071C0E001C46
:104FF0000018001800180C181C0C180EF807E00315
:105000000000000000000000000000000000C007D9
:10501000F00F381C181818000C00CC03EC0F3C0ED5
:105020001C1C0C180C180C18181C380EF007E00388
:105030000000000000000000000000000000FC1F55
:10504000FC1F000C00060006000380038001C00165
:10505000C000E000600060007000300030003000F0
:105060000000000000000000000000000000E0035D
:10507000F007380E180C180C180C3806F007F0075B
:10508000180C0C180C180C180C18380CF80FE0033E
:105090000000000000000000000000000000E0032D
:1050A000F007380E1C0C0C180C180C181C1C381EA1
:1050B000F81BE0190018000C000C1C0EF807F0019A
:1050C00000000000000000000000000000000000E0
:1050D00000000000000000008001800100000000CE
:1050E00000000000000000000000000080018001BE
:1050F00000000000000000000000000000000000B0
:10510000000000000000000080018001000000009D
:10511000000000000000000000000000800180018D
:1051200000010001800000000000000000000000FD
:105130000000000000000000000000000010001C43
:10514000800FE003F8001800F800E003800F001C57
:10515000001000000000000000000000000000003F
:10516000000000000000000000000000F81F000028
:1051700000000000F81F0000000000000000000018
:10518000000000000000000000000000000000001F
:1051900000000000000000000000000008003800CF
:1051A000F001C007001F0018001FC007F001380001
:1051B0000800000000000000000000000000E00304
:1051C000F80F180C0C180C180018000C000600033F
:1051D0008001C000C000C00000000000C000C0008E
:1051E00000000000000000000000000000000000BF
:1051F000E00718180420C229224A1144094409442E
:10520000094409221113E20C024004201818E00797
:10521000000000000000000000000000000080030B
:105220008003C006C006C006600C600C3018301841
:105230003018F83FF83F1C700C600C6006C006C0C8
:105240000000000000000000000000000000FC035F
:10525000FC0F0C0C0C180C180C180C0CFC07FC0F99
:105260000C180C300C300C300C300C18FC1FFC07E8
:105270000000000000000000000000000000C00767
:10528000F01F38381C300C7006600600060006005F
:1052900006000600060006600C701C30F01FE007D8
:1052A0000000000000000000000000000000FE03FD
:1052B000FE0F060E061806180630063006300630B9
:1052C00006300630063006180618060EFE0FFE03DE
:1052D0000000000000000000000000000000FC3F93
:1052E000FC3F0C000C000C000C000C00FC1FFC1F11
:1052F0000C000C000C000C000C000C00FC3FFC3FF0
:105300000000000000000000000000000000F83F66
:10531000F83F18001800180018001800F81FF81FB0
:1053200018001800180018001800180018001800BD
:105330000000000000000000000000000000E00F7E
:10534000F83F3C780E6006E007C00300030003FE50
:1053500003FE03C007C006C00EC03CF0F83FE00FDC
:1053600000000000000000000000000000000C3001
:105370000C300C300C300C300C300C30FC3FFC3F4F
:105380000C300C300C300C300C300C300C300C303D
:10539000000000000000000000000000000080018C
:1053A00080018001800180018001800180018001F5
:1053B00080018001800180018001800180018001E5
:1053C00000000000000000000000000000000006D7
:1053D000000600060006000600060006000600069D
:1053E000000600060006180618063807F003E0015C
:1053F0000000000000000000000000000000063077
:105400000618060C060606038601C600660076002E
:10541000DE008E0106030606060C0618063006603E
:105420000000000000000000000000000000180064
:1054300018001800180018001800180018001800AC
:10544000180018001800180018001800F81FF81F9E
:1054500000000000000000000000000000000EE05E
:105460001EF01EF01EF036D836D836D836D866CCA8
:1054700066CC66CCC6C6C6C6C6C6C6C686C386C306
:1054800000000000000000000000000000000C30E0
:105490001C303C303C306C306C30CC30CC308C31FB
:1054A0000C330C330C360C360C3C0C3C0C380C30EA
:1054B0000000000000000000000000000000E00705
:1054C000F81F1C380E70066003C003C003C003C081
:1054D00003C003C003C006600E701C38F81FE0074D
:1054E0000000000000000000000000000000FC0FB1
:1054F000FC1F0C380C300C300C300C300C18FC1F1E
:10550000FC070C000C000C000C000C000C000C0044
:105510000000000000000000000000000000E007A4
:10552000F81F1C380E70066003E003C003C003C000
:1055300003C003C007E006630E3F1C3CF83FE0F7E2
:1055400000C0000000000000000000000000FE0F8E
:10555000FE1F06380630063006300638FE1FFE07EE
:1055600006030606060C0618061806300630066006
:105570000000000000000000000000000000E00348
:10558000F80F1C0C0C180C180C001C00F803E00F92
:10559000001E0038063006300E301C1CF80FE007E5
:1055A0000000000000000000000000000000FE7F7E
:1055B000FE7F8001800180018001800180018001E7
:1055C00080018001800180018001800180018001D3
:1055D00000000000000000000000000000000C308F
:1055E0000C300C300C300C300C300C300C300C30DB
:1055F0000C300C300C300C300C301818F81FE00751
:105600000000000000000000000000000000036037
:105610000630063006300C180C180C18180C180C34
:10562000380E30063006700760036003C001C00109
:105630000000000000000000000000000000036007
:10564000C361C361C36166336633663366336633F1
:1056500066336C1B6C1B6C1B2C1A3C1E380E380EF0
:1056600000000000000000000000000000000FE04B
:105670000C7018303018700C600EC0078003800367
:10568000C003E006700C301C18180C300E6007E0E8
:10569000000000000000000000000000000003C047
:1056A00006600C301C383818300C6006E007C00368
:1056B00080018001800180018001800180018001E2
:1056C0000000000000000000000000000000FC7F5F
:1056D000FC7F006000300018000C00060003800111
:1056E000C0006000300018000C000600FE7FFE7F46
:1056F0000000000000000000000000000000E003C7
:10570000E003600060006000600060006000600016
:105710006000600060006000600060006000600089
:10572000600060006000E003E00300000000300063
:105730003000600060006000C000C000C000C00118
:1057400080018001800100030003000300060006C1
:105750000000000000000000000000000000E00366
:10576000E003000300030003000300030003000341
:105770000003000300030003000300030003000311
:10578000000300030003E003E0030000000000004A
:10579000C001C00160036003600330063006180CCE
:1057A000180C0000000000000000000000000000D5
:1057B00000000000000000000000000000000000E9
:1057C00000000000000000000000000000000000D9
:1057D0000000000000000000000000000000FFFFCB
:1057E000FFFF0000000000000000000000000C00AF
:1057F0000C000C000C000C000C000000000000006D
:105800000000000000000000000000000000000098
:105810000000000000000000000000000000000088
:105820000000000000000000F003F8071C0C0C0C46
:10583000000FF00FF80C0C0C0C0C1C0FF80FF018EC
:105840000000000000000000000000000000180040
:105850001800180018001800D803F80F380C181892
:1058600018181818181818181818380CF80FD80322
:105870000000000000000000000000000000000028
:105880000000000000000000C003F007300E180CFC
:105890001800180018001800180C300EF007C0038C
:1058A00000000000000000000000000000000018E0
:1058B0000018001800180018C01BF01F301C181822
:1058C00018181818181818181818301CF01FC01BB2
:1058D00000000000000000000000000000000000C8
:1058E0000000000000000000C003F00F300C18188A
:1058F000F81FF81F180018003818301CF00FC007E8
:105900000000000000000000000000000000800F08
:10591000C00FC000C000C000F007F007C000C0000A
:10592000C000C000C000C000C000C000C000C00077
:105930000000000000000000000000000000000067
:105940000000000000000000E00DF80F180E0C0C25
:105950000C0C0C0C0C0C0C0C0C0C180EF80FE00DB5
:10596000000C0C0C1C06F807F001000000001800E9
:105970001800180018001800D807F80F381C18185D
:105980001818181818181818181818181818181897
:105990000000000000000000000000000000C00047
:1059A000C000000000000000C000C000C000C00037
:1059B000C000C000C000C000C000C000C000C000E7
:1059C0000000000000000000000000000000C00017
:1059D000C000000000000000C000C000C000C00007
:1059E000C000C000C000C000C000C000C000C000B7
:1059F000C000C000C000F8007800000000000C00EB
:105A00000C000C000C000C000C0C0C060C038C01A0
:105A1000CC006C00FC009C018C030C030C060C0CED
:105A20000000000000000000000000000000C000B6
:105A3000C000C000C000C000C000C000C000C00066
:105A4000C000C000C000C000C000C000C000C00056
:105A50000000000000000000000000000000000046
:105A600000000000000000007C3CFF7EC7E383C113
:105A700083C183C183C183C183C183C183C183C106
:105A80000000000000000000000000000000000016
:105A900000000000000000009807F80F381C1818DC
:105AA0001818181818181818181818181818181876
:105AB00000000000000000000000000000000000E6
:105AC0000000000000000000C003F00F300C1818A8
:105AD00018181818181818181818300CF00FC003D8
