:020000040800F2
:100000001009002099020008C94E00084942000862
:10001000C54E00082D1500080F5A0008000000000A
:10002000000000000000000000000000195300085C
:100030003115000800000000CD4E00081B530008D9
:10004000B3020008B3020008B3020008B3020008BC
:10005000B3020008B3020008B3020008B3020008AC
:10006000B3020008B3020008B3020008B30200089C
:10007000B3020008B3020008B3020008B30200088C
:10008000B302000800000000B3020008B302000839
:10009000B3020008B3020008B3020008B30200086C
:1000A000B3020008B3020008B3020008B30200085C
:1000B000A1530008B1530008C1530008B30200085F
:1000C000B3020008B3020008B3020008B30200083C
:1000D000B3020008B3020008B3020008B30200082C
:1000E000B3020008B3020008B3020008B30200081C
:1000F000B3020008B3020008B302000800000000C9
:1001000000000000B302000800000000B302000875
:10011000B302000800000000B3020008B3020008A8
:10012000B3020008B3020008B3020008B3020008DB
:10013000B30200080000000000000000B302000845
:10014000B3020008B3020008000000000000000035
:10015000000000000000000000000000000000009F
:10016000000000000000000000000000B3020008D2
:10017000B3020008000000000000000000000000C2
:1001800000000000B30200080000000000000000B2
:10019000000000000000000000000000000000005F
:1001A0000000000000000000B3020008B3020008D5
:1001B000B3020008B3020008B30200080000000008
:1001C00000000000B3020008000000000000000072
:1001D000B3020008B302000800F002F800F04CF887
:1001E0000AA090E8000C82448344AAF10107DA4592
:1001F00001D100F041F8AFF2090EBAE80F0013F098
:10020000010F18BFFB1A43F0010318478874000060
:10021000A8740000103A24BF78C878C1FAD85207F1
:1002200024BF30C830C144BF04680C607047000070
:100230000023002400250026103A28BF78C1FBD8EF
:10024000520728BF30C148BF0B607047662906F0CF
:10025000E080642900F05480002070471FB506F04C
:10026000D3F800F0C1FB04000020002105F04CFE93
:10027000E0601FBD10B510BD00F0B6FC1146FFF7E1
:10028000EDFF05F0F9FD00F0D4FC03B4FFF7F2FF39
:1002900003BC00F017FD00000948804709480047EB
:1002A000FEE7FEE7FEE7FEE7FEE7FEE7FEE7FEE726
:1002B000FEE7FEE704480549054A064B7047000083
:1002C0008D530008D90100081003002010090020F8
:1002D00010050020100500200FB41CB5074B06AA1E
:1002E0007B4469460090059800F065FB0020694654
:1002F00000F074FB1CBC5DF814FB0000F906000064
:100300002DE9F0410646002410687529314616A5EE
:1003100010D0AFF30080002802DA404213A507E0B6
:1003200031688A0701D512A502E0490704D511A555
:10033000012401E0AFF3008000210A2206F1240726
:1003400009E0B0FBF2FCB0FBF2F302FB1C00303022
:1003500078541846491C0028F3D123462A463046D3
:10036000BDE8F04100F0B9B8000000002D00000029
:100370002B000000200000002DE9F0474FF0000A9C
:1003800089460446C0F820A02046E1688847002836
:1003900076D0252806D0D4E901219047206A401C58
:1003A0002062F1E7E168204600258847C4F81CA0D8
:1003B00006460027C4F818A02A2E09D0304605F0BA
:1003C0005DFB38B304EB8708303EC8F8186019E0CD
:1003D00059F8041B204604EB87029161E1688847C5
:1003E000012F064618D1E069002820DA25F0200503
:1003F0001DE0D8F8180000EB800006EB4000303814
:10040000C8F818002046E1688847064605F036FB24
:100410000028EED1012F0AD02E2E08D12046E16807
:1004200088477F1C0646022F45F02005C4DBA069E3
:10043000002803DA404245F00105A061E80701D039
:1004400025F01005B6B1A6F14100192802D82036D2
:1004500045F400654A463146204625604D46FFF783
:10046000F5FE58B1012806D0ED1D25F0070000F17A
:10047000080989E704E005F1040985E730468AE7C1
:10048000206ABDE8F0874FF0000200B5134694469D
:100490009646203922BFA0E80C50A0E80C50B1F1DC
:1004A0002001BFF4F7AF090728BFA0E80C5048BFF0
:1004B0000CC05DF804EB890028BF40F8042B08BF8E
:1004C000704748BF20F8022B11F0804F18BF00F88A
:1004D000012B70477047704770472DE9F0470D4674
:1004E00099469246044600F124080168880604D51E
:1004F000E06921F01001216000E00120A84201DD47
:10050000471B00E00027A1697A1902EB0900081ACD
:10051000A0612078C00602D42046AFF300800026F8
:1005200008E0D4E901211AF806009047206A401C2F
:10053000761C20624E45F4DB2078C0060AD52046A2
:10054000AFF3008006E0D4E9012130209047206A13
:10055000401C2062381EA7F10107F4DC07E0D4E953
:10056000012118F805009047206A401C2062281ECF
:10057000A5F10105F3DC2046AFF3008020780006EA
:1005800002D50220BDE8F0870120FBE770472DE986
:10059000FF4F0C461E464FF0FF378BB0D2E90001EB
:1005A000DDF860800A908A46C1F30A5505B93D46D8
:1005B000002108464FF00000BAF1000F00F440009F
:1005C00005DA00EB80004FF4400101EA50004FEAE9
:1005D0009059B9F1010F00DDB9460A9850EA4A0076
:1005E0000ED044F61050A5F2FF3545432F14B8F154
:1005F000000F1ED07542291E1EDDC9F100021CE04D
:10060000B8F1010F4FF0000001D0302103E0F243B8
:1006100005E02154401CB042FBDB304600220021A3
:1006200021540B99C1F80880C1E900200FB0BDE842
:10063000F08FBD1B6D1CDEE74A4600DA694206A852
:1006400000F05CFA06AB93E8070003AB83E8070011
:1006500050460A9900F03DFB8DE80700A0F50050D8
:100660001F3800900398002D0ADD42F21F014A4610
:100670000844002303A90390684600F0A6FD09E0A2
:10068000A0F500504A461F38002303A9039068468E
:1006900000F0B0FD8DE807000004000C03D04FF01F
:1006A000FF30410800E01046B8F1000F03D00022EF
:1006B000009215461EE0751E05D400F099F93032FF
:1006C00062556D1EF9D5B3460122084302D00022BF
:1006D0007F1C04E02078302801D100227F1E002AF0
:1006E000099784D01DE0112D07DA00F081F930322E
:1006F00062556D1C50EA0102F5D1084302D0009802
:10070000C8B10EE00021681E05E0235C625C635402
:100710002254401E491C8142F7DBAB46A81B401EF9
:100720000990002004F80B000B98099AC0F8088083
:10073000C0E9002B7AE711264FF0000857E72DE9B2
:10074000F04F88460446D21D22F0070191B0D1E94E
:100750000001CDE90A0105F05CF902460B98C00FD3
:1007600001D02D2007E02068810701D52B2002E071
:10077000202101EAC000032A099001D0072A05DBE5
:1007800003464146204600F079F90BE120788006C7
:1007900001D5E06900E00620B8F1650F814606D07A
:1007A000B8F1660F18D0B8F1670F70D131E00020B2
:1007B000B9F1110F009001DB112301E009F10103F0
:1007C0000AAA01A90CA8FFF7E2FEDDE90C700026D9
:1007D00009F10105834647E001204B4600904FF0A8
:1007E00000470AAA01A90CA8FFF7D1FEDDE90DB068
:1007F0000C995D46002610B909F101000D18B9EBFE
:10080000050003D4C0F1FF3609F10105A5EB09008D
:100810002BE0B9F1010F01DA4FF001090020B9F125
:10082000110F0090484601DD112300E003460AAA9B
:1008300001A90CA8FFF7ABFEDDE90C704D460026C0
:100840008346207800070AD4AB4500DA5D4601A84C
:10085000012D04DD411911F8011C302907D04F4545
:1008600002DA17F1040F04DA012082460FE06D1E50
:10087000EEE7002F02DCED1B3E4403E0781CA842AB
:1008800000DD7D1CB81B00F1010A4FF00047207805
:10089000000703D4AA4501DB4FF0FF3A0021B7F16E
:1008A000004F0DF143088DF8431024D002202B2374
:1008B000002F01DA7F422D230A21021EA0F1010040
:1008C00000DC5FB197FBF1FC97FBF1F201FB1C7CB4
:1008D00017460CF1300C08F801CDEEE7A8F1010045
:1008E00003702188090501D5452100E06521A0F1AB
:1008F000010800F8011C09980FA9A1EB0807FF1DCA
:1009000000B10120411901EBEA70A1693844081ACD
:10091000401EA0612078C00602D42046AFF30080BC
:10092000099828B1D4E901219047206A401C20622F
:100930002078C00622D52046AFF300801EE0002EAE
:1009400004DBB34502DD01A8805D00E03020D4E97E
:1009500001219047206A401C2062761CAAF1010008
:100960005FEA000A0AD100F03FF8C0680168405C05
:10097000D4E901219047206A401C2062281EA5F17D
:100980000105DCDC07E0D4E9012118F8010B9047F0
:10099000206A401C2062381EA7F10107F3DC2046C4
:1009A000AFF30080032011B041E6000001694A1C4A
:1009B00002610878704700B58FB0CDE901310021A0
:1009C000059105497944CDE9031011466846FFF7C2
:1009D000D3FC0FB000BD0000E5FFFFFF0A6802F87E
:1009E000010B0A607047000000487047D0020020E9
:1009F00030B5B0F10A024FEA900E71F100034EEAF1
:100A0000817EB0EB0E0061EB91014FEA101E4EEAC1
:100A1000017E10EB0E0041EB11114FEA102E4EEA51
:100A2000016E10EB0E0041EB11214FEA104E4EEA21
:100A3000014E10EB0E0041EB1141401841F1000155
:100A40004FEAD00040EA41704FEAD10110EB800537
:100A50004FEA810444EA907444EB01046D1944EBBD
:100A60000404521BA3414FF0000348BF0A3200D5D3
:100A700030BD401C41F1000130BD00002DE9F041C6
:100A80001F46044603260168072A01F4006004DBC0
:100A900008B116A505E016A503E008B115A500E00C
:100AA00015A521F010002060A069C01EA0610FB143
:100AB000401EA0612046AFF300804FB1D4E9012170
:100AC00038469047206A401C2062C01C206206E025
:100AD000206AFAE7D4E9012115F8010B9047761E48
:100AE000F8D22046AFF30080BDE8F0814E414E00C1
:100AF0006E616E00494E4600696E66002DE9F04752
:100B0000814616468AB0354878440DC88DE80D00F8
:100B100032487844801C03AC0DC884E80D0041F6CF
:100B20009B300844372190FBF1F290FBF1F5A5F1E1
:100B3000800501FB12041B3C02D56442012000E049
:100B40000020DFF898A080460027FA44AAF1BE0AE8
:100B50000EE0E0070AD03246684607EB4701012362
:100B60000AEB810100F046FB8DE8070064107F1C52
:100B7000002CEED1194F7F44AE3F19E0E80715D0A5
:100B800007EB04100DF1180A90E80E008AE80E0039
:100B9000C068F04201D1981908903246012306A995
:100BA00003A800F027FB03AB83E807006D10641C6B
:100BB000002DE3D14FF0010332466946B8F1000F32
:100BC00003A802D000F001FB01E000F013FBC9E92B
:100BD0000001C9F808200AB0BDE8F087706B00007A
:100BE00000487047B00200207546FFF7F9FFAE4697
:100BF00005006946534620F00700854618B020B529
:100C0000FFF758FBBDE820404FF000064FF000070B
:100C10004FF000084FF0000B21F00701AC46ACE8A4
:100C2000C009ACE8C009ACE8C009ACE8C0098D4611
:100C3000704710B50446AFF300802046BDE8104071
:100C4000FFF723BB4FF0013C50F8042B51F8043B55
:100C50009A4221D1A2EB0C03934313EACC1317D190
:100C600050F8042B51F8043B9A4215D1A2EB0C0327
:100C7000934313EACC130BD150F8042B51F8043BE7
:100C80009A4209D1A2EB0C03934313EACC13DBD0B5
:100C90004FF00000704700BFD01A01BAB1FA81F1DD
:100CA00001F0180122FA01F0CB40C1F12001DBB2C2
:100CB000C0B2C01A2CFA01F3D11A914311EAC31140
:100CC000E6D1704701491820ABBEFEE726000200BE
:100CD00070475FEA400C08BF91F0000F4FEA8C2389
:100CE0004FEAC12243EA51514FEA1C5018BF00F5A8
:100CF000F0404FEA300018BF41F000415FEA6C5C01
:100D000000F02980BCF1FF3F08BF40F080407047F1
:100D1000130C06BF12044FF0100C4FF0000C130E12
:100D200004BF12020CF1080C130F04BF12010CF1E6
:100D3000040C930F04BF92000CF1020CD30F04BFFC
:100D400052000CF1010C11464FF00002A0F11F00FF
:100D5000A0EB0C00704711F0004F08BF704731F056
:100D600000413FF4D5AF0B0C06BF09044FF0100C47
:100D70004FF0000C0B0E04BF09020CF1080C0B0F16
:100D800004BF09010CF1040C8B0F04BF89000CF1A6
:100D9000020CCB0F04BF49000CF1010CCCF1200375
:100DA000A0EB0C0022FA03F302FA0CF241EA030171
:100DB00000F10100704720F07F4C80EA030023F02F
:100DC0007F47ACEB070303F57C5300F0004003F1D1
:100DD000FF032DE980494FEA154B09B44FEA14434C
:100DE00025EA0B4E24EA03480FF2042606EB1327EC
:100DF00049083E785FEA320203FB0667C7F5000741
:100E000007FB06F64FEA54374FEAD64606F10206CC
:100E100007FB066CCCF1005C4FEA1C472CEA074C40
:100E200007FB06F40CFB06F504EB15464FEA961695
:100E300034BF00204FF000404FEAD13706FB07FCDB
:100E40004FEA1C4C0CFB0BF7D21B03FB0CF761EBBE
:100E500007010CFB0EF7B0EB074072EB17420CFBDF
:100E600008F734BFA2EB0742B2EB074261EB174130
:100E70004FEA0C444FEA910706FB07FC4FEA1C4C73
:100E80000CFB0BF7B0EBC74072EB573203FB0CF7D0
:100E900034BFA2EBC742B2EBC74261EB57310CFB48
:100EA0000EF7B0EBC70072EB57720CFB08F734BFBC
:100EB000A2EBC702B2EBC70261EB5771039F4FEA87
:100EC000816141EA921104EBCC044FEAD1374FEA39
:100ED000826206FB07FC42EA90124FEA80604FEA0A
:100EE0001C4C0CFB0BF7D21B03FB0CF761EB07014F
:100EF0000CFB0EF7B0EB074072EB17420CFB08F748
:100F000034BFA2EB0742B2EB074261EB17414FEA55
:100F10008C554FEA910704EB9C2406FB07FC4FEA33
:100F20001C4C0CFB0BF7B0EBC74072EB573203FBCA
:100F30000CF734BFA2EBC742B2EBC74261EB5731AB
:100F40000CFB0EF7B0EBC70072EB57720CFB08F707
:100F500034BFA2EBC702B2EBC70261EB577115EBCE
:100F60004C254FEA816141EA92114FEA82624FEAD1
:100F7000D13742EA901206FB07FC44F100044FEA25
:100F800080604FEA1C4C0CFB0BF7D21B03FB0CF7E9
:100F900061EB07010CFB0EF7B0EB074072EB174259
:100FA0000CFB08F734BFA2EB0742B2EB074261EB40
:100FB000174115EB1C154FEA813141EA92414FEA86
:100FC000823242EA90424FEA80304FEA0C7644F196
:100FD000000448EA03434EEA0B484FF0000EB2EB20
:100FE000080C71EB030724BF624639464EEB0E0E28
:100FF0004FF0000B0018524149414BEB0B0BB2EB89
:10100000080C71EB03077BF1000B24BF62463946E5
:101010004EEB0E0E4FF0000B0018524149414BEBC6
:101020000B0BB2EB080C71EB03077BF1000B24BF39
:10103000624639464EEB0E0E51EA020718BF46F0E3
:10104000010616EB0E7655F1000254F1000103D5AE
:10105000BDE88901BDE80088BDE88901BDE8004818
:10106000B619524141EB0101A3F1010370478080A1
:101070007F7E7D7C7B7A79787776767574737271F2
:1010800071706F6E6E6D6C6C6B6A6A6968686766AA
:1010900066656464636362616160605F5F5E5E5D3C
:1010A0005D5C5C5B5B5A5A595958585757565655B0
:1010B00055555454535352525251515050504F4F12
:1010C0004F4E4E4D4D4D4C4C4C4B4B4B4A4A4A4962
:1010D00049494848484747474746464645454544A5
:1010E0004444444343434342424242414141002B32
:1010F0009C4630D477002BD01CB54FEA370703B499
:101100004FF010004FF01001BAF1000F06D0BCF103
:10111000000FDCBF40F0080040F008014FF0000075
:101120000FBCBDE810400BF1010BBBF1010F08BF74
:101130005FEA170722BF12F1010211F101014FF01E
:10114000004143F1000300F0004043EA0000704713
:10115000F9D35708D0E746EA064613F1400F4FEAA5
:1011600016461FDD13F1200FDFBF16430A4600218C
:1011700020335B42BED0C3F1200746EA064602FA9E
:1011800007F74FEA164646EA0706C3F1200722FA98
:1011900003F201FA07F721FA03F14FF0000342EAE4
:1011A0000702A7E746EA020646EA06464FEA16465F
:1011B00046EA0106BCBF46EA0646360C4FF000037D
:1011C0004FF000024FF0000194E72DE9804C9A4661
:1011D000934670B491E8380007C831EA400C48BF24
:1011E00034EA430C03D5FFF7E6FDFFF780FFF0BCC0
:1011F000BDE8008C2DE9804C9A46934670B491E886
:10120000380007C810F0804F08BF13F0804F03D19B
:1012100000F005F8FFF76BFFF0BCBDE8008C20F094
:101220007F4780EA030023F07F4C07EB0C03A3F514
:101230007C5300F00040A3F1FE0392F0000F00F099
:10124000B38095F0000F00F077802DE901494FEA57
:1012500011404FEA144621EA004800FB06FC24EA4C
:10126000064708FB06F607FB08F800FB07F718EB34
:1012700006484CEB164C4FEA124B18EB07484FEA66
:1012800015464CEB174022EA0B4E0BFB06FC25EAF9
:1012900006470EFB06F607FB0EFE0BFB07F71EEBE1
:1012A000064E4CEB164C4FF000061EEB074E4CEB77
:1012B000174B18EB0B0840F1000018EB0E0B58EB26
:1012C000000840F100008F1A4FF000013CBFC943F5
:1012D000661B14BFB5EB040C00213CBFC943F61BD1
:1012E0004FEA17444EEA8E0E27EA04454FEA1C47A0
:1012F00004FB07622CEA074C05FB07F70CFB05F61D
:1013000004FB0CFC16EB074642EB174216EB0C46AF
:1013100042EB1C421BEB060658EB0202414146EA37
:101320009E0601D5BDE80189B619524141EB010184
:10133000A3F10103BDE801894FEA14454FEA1147C3
:1013400024EA054621EA074C05FB07F406FB07F7EC
:101350000CFB06F105FB0CFC11EB074144EB1744B9
:101360004FEA124711EB0C4144EB1C4422EA074CB4
:1013700005FB07F206FB07F70CFB06F605FB0CFC6A
:1013800016EB074642EB174216EB0C4642EB1C45A8
:101390006A1854F1000148BF7047B619524141EB39
:1013A0000101A3F10103704795F0000F37D04FEA18
:1013B00011424FEA144721EA024624EA074C02FB95
:1013C00007F106FB07F70CFB06F402FB0CFC14EB21
:1013D000074441EB17414FEA154714EB0C4441EB2E
:1013E0001C4125EA074C02FB07F506FB07F70CFB3F
:1013F00006F602FB0CFC16EB074645EB174516EB11
:101400000C4645EB1C42121951F1000148BF7047D0
:10141000B619524141EB0101A3F1010370474FEAB4
:1014200014454FEA114724EA054621EA074C05FB1B
:1014300007F106FB07F70CFB06F24FF0000605FB71
:101440000CFC12EB074241EB174112EB0C4251EB43
:101450001C4148BF7047921841EB0101A3F1010301
:101460007047000038B5044600200090206803F063
:101470004AFA00284FD1206880682849084048B1BE
:10148000E06D40F01000E065206E40F00100206645
:10149000012038BD206803F01BFA00BF2048806897
:1014A00000F0E07000F4000080B11E4800681E49A2
:1014B000B0FBF1F0401C00EB40008000009002E027
:1014C0000098401E009000980028F9D100F0A8FE76
:1014D00005461AE0206803F016FA10B9206803F0F8
:1014E000F7F900F09DFE401B02280ED92068006825
:1014F00000F0010048B9E06D40F01000E065206E9A
:1015000040F0010020660120C3E72068006800F079
:1015100001000028DED00020BBE700003F00008073
:101520000003005020000020400D030000BFFEE734
:101530007047002109E0002201E0531C9AB240F6F6
:10154000B8339A42F9DB4B1C99B28142F3DB704706
:1015500072B600BFFEE700002DE9F0439BB00446E1
:101560000E464FF00008306800B100BF00BF94F88D
:101570005800012803D102201BB0BDE8F0830120F0
:1015800084F8580000BF0020179018902068B0F130
:10159000A04F02D13148009001E000200090009857
:1015A00050B9E06D40F02000E06500BF002084F8F5
:1015B000580000BF0120DFE7009803F0B8F90746A4
:1015C000206803F0B4F9D8BBD7BB254D306800B311
:1015D00094F83800716841EA4030A96821F460410C
:1015E0000843A8604FF0A04003F092F981461B48E1
:1015F00003F08EF949EA0009B9F1000F27D1B1686B
:1016000030680843A96840F61F7291430843A860F8
:101610001DE0A86820F46040A8604FF0A04003F0EF
:1016200077F981460D4803F073F949EA0009B9F1E9
:10163000000F0CD1A86840F61F718843A86006E02F
:10164000FFE7E06D40F02000E0654FF0010800BFCB
:10165000002084F8580000BF40468DE7000100508C
:10166000000300502DE9F84F05460C464FF0000AE4
:1016700000200090FE49E068884200D000E000BFF2
:1016800000BF95F85800012802D10220BDE8F88F6C
:10169000012085F8580000BF286803F043F90028AE
:1016A0007DD12968D4E9002001F1300CC0F3012B71
:1016B0000CEB8B03D3F800C000F01F0E4FF01F0B94
:1016C0000BFA0EFB2CEA0B0C00F01F0BC2F3846E1E
:1016D0000EFA0BFE4CEA0E0CC3F800C000BF2868DF
:1016E00003F020F98146286803F008F98046B9F133
:1016F000000F64D1B8F1000FFBD1A068B0F1004F2A
:101700000AD121680022286803F01EF94FF0004139
:10171000286803F03EF908E0A2682168286803F011
:1017200013F90021286803F034F960692968C96851
:10173000C1F3C101490000FA01F7206904283FD034
:1017400028682268216900F1600C0CEB8103D3F852
:1017500000C0DFF820B30CEA0B0C02F0F84B4BF0A2
:10176000004B4BEA070B4CEA0B0CC3F800C000BF60
:101770002868A269216900F1600C0CEB8103D3F8A1
:1017800000C02CF0807C4CEA020CC3F800C000BF03
:101790002868227F2169012A02D1520601E0C6E1B0
:1017A0000022134600F1600C0CEB8102D2F800C05D
:1017B0002CF0007C4CEA030CC2F800C000BFA7E08C
:1017C0000021286803F091F8C0F3120030B900211D
:1017D000286803F08AF8C0F3846007E000212868D5
:1017E00003F083F890FAA0F0B0FA80F02168C1F31A
:1017F000120119B92168C1F3846104E0216891FAEA
:10180000A1F1B1FA81F1884204D100221146286881
:1018100003F0B4F80121286803F067F8C0F3120060
:1018200030B90121286803F060F8C0F3846007E054
:101830000121286803F059F890FAA0F0B0FA80F07E
:101840002168C1F3120119B92168C1F3846104E070
:10185000216891FAA1F1B1FA81F1884204D1002204
:101860000121286803F08AF80221286803F03DF876
:10187000C0F3120030B90221286803F036F8C0F333
:10188000846007E00221286803F02FF890FAA0F0A6
:10189000B0FA80F02168C1F3120119B92168C1F3CF
:1018A000846104E0216891FAA1F1B1FA81F18842E2
:1018B00004D100220221286803F060F8032128687F
:1018C00003F013F8C0F3120030B90321286803F0C5
:1018D0000CF8C0F3846007E00321286803F005F8E2
:1018E00090FAA0F0B0FA80F02168C1F3120119B9A2
:1018F0002168C1F3846104E0216891FAA1F1B1FA91
:1019000081F1884204D100220321286803F036F8CF
:10191000286802F0F8FF002872D12868E268216880
:10192000D0F8B030C1F3120C23EA0C0302F0180B0C
:10193000DFF844C12CFA0BFC0CEA010C43EA0C035F
:10194000C0F8B03000BF4A49E068884258D12368E7
:10195000C3F312031BB92368C3F3846304E0236851
:1019600093FAA3F3B3FA83F35B1C03F01F03092B71
:101970003ED82368C3F312031BB92368C3F38463FF
:1019800004E0236893FAA3F3B3FA83F35B1C03F038
:101990001F034FF0010C0CFA03FC2368C3F312037E
:1019A0001BB92368C3F3846304E0236893FAA3F3A9
:1019B000B3FA83F35B1C03F01F034CEA836C2368C8
:1019C000C3F312031BB92368C3F3846304E02368E1
:1019D00093FAA3F3B3FA83F35B1C03F01F0303EB47
:1019E00043034FF0000B4BEA03534CEA030347E079
:1019F0002368C3F3120323B92368C3F3846305E0A8
:101A000043E0236893FAA3F3B3FA83F35B1C03F078
:101A10001F034FF0010C0CFA03FC2368C3F31203FD
:101A20001BB92368C3F3846304E0236893FAA3F328
:101A3000B3FA83F35B1C03F01F034CEA836C236847
:101A4000C3F312031BB92368C3F3846304E0236860
:101A500093FAA3F3B3FA83F35B1C03F01F030A3B6F
:101A600003EB43034FF0007B4BEA035306E0000017
:101A700000007F4000F0FF03FFFF07004CEA030374
:101A80001946A268286802F05FFF2F4920680840C5
:101A900050B300BF2D48806800F0E07600BF2C49AD
:101AA0002068884203D02B49206888421DD106F463
:101AB0000000D0B92868B0F1A04F3ED146F4000133
:101AC000224802F055FF244800682449B0FBF1F099
:101AD000401C00EB40008000009002E00098401E97
:101AE000009000980028F9D127E01D49206888421D
:101AF0000CD106F0807048B91A49286888421CD079
:101B000046F08071114802F033FF16E01649206854
:101B1000884212D106F4800078B9124928688842B8
:101B20000BD046F48001094802F022FF05E0E86D81
:101B300040F02000E8654FF0010A00BF002085F862
:101B4000580000BF5046A1E5000008800003005087
:101B5000000021C31000C09020000020400D0300B1
:101B6000000052C700010050000084CB0146086805
:101B7000006C70472DE9F84304464FF00008002040
:101B8000009014B90120BDE8F883606920B194F891
:101B90002400012800D100BFE06D30B9204600F0DC
:101BA00017F90020206684F8580020688168C1F386
:101BB000407131B1206881687E4A1140816000BF68
:101BC00000BF206802F0A9FEB0B9206881687A4A97
:101BD000114041F08051816000BF78480068784929
:101BE000B0FBF1F0401C4000009002E00098401E65
:101BF000009000980028F9D1206802F08EFE48B9C4
:101C0000E06D40F01000E065206E40F001002066BD
:101C10004FF00108206802F085FE0646E06D00F0F6
:101C20001000002877D1002EFCD1E06D20F48070E8
:101C300040F00200E065206802F065FEB0B94FF0A8
:101C4000A04002F060FE81465E4802F05CFE49EA78
:101C50000009B9F1000F09D160685B49896821F476
:101C60007C110143584A916000BF00BF607FE16B67
:101C700041EA4030E1680843A168084394F8241021
:101C800040EA014594F82400012803D1208D401E2C
:101C900045EA4045E06A28B1A08D00F47870216BD8
:101CA000084305432068C068484908402843216824
:101CB000C8602068006920F04060616B08432168BB
:101CC0000861206802F01AFE0746002E50D1EFBBD3
:101CD000207F002141EA803194F8380041EA400534
:101CE0002068C06844F20201884328432168C86024
:101CF000206988B12068006940F48030216808615B
:101D00002068D0F8C0006FF30D00216908432168F6
:101D1000C1F8C0000EE045E02068006920F4803082
:101D2000216808612068D0F8C0006FF30D002168B9
:101D3000C1F8C00094F84000012813D1606C40F055
:101D40000101A06C0843E16C084300E010E0216D44
:101D500008432168096940F2FC72914308432168F5
:101D6000086105E02068006920F001002168086131
:101D70006069012809D12068006B20F00F00216AFA
:101D8000491E08432168086305E02068006B20F0C5
:101D90000F0021680863E06D20F0020040F00100B0
:101DA000E06505E0E06D40F01000E0654FF00108EF
:101DB0004046E8E6C0FFFF5FC0FFFF7F2000002035
:101DC000400D030000010050000300500740F0FFE9
:101DD00010B598B00446142113A8FEF754FB442113
:101DE00002A8FEF750FB2068B0F1A04F3AD14FF4A3
:101DF000004002908003119002A800F07DFB08B122
:101E0000FFF7A6FB37480068401C364908600846C3
:101E1000006801280DD100BF3348C06C40F4005069
:101E20003149C8640846C06C00F40050019000BFFE
:101E300000BF00BF2C48C06C40F002002A49C864B3
:101E40000846C06C00F00200019000BF00BF88147B
:101E50001390032014900020159013A9234800F03C
:101E6000EBF83DE022492068884239D1C001029058
:101E70008003119002A800F03FFB08B1FFF768FB58
:101E800018480068401C1749086008460068012887
:101E90000DD100BF1448C06C40F400501249C86412
:101EA0000846C06C00F40050019000BF00BF00BFA6
:101EB0000D48C06C40F002000B49C8640846C06C75
:101EC00000F00200019000BF00BF4FF400401390EB
:101ED000032014900020159013A9044800F0ACF8DA
:101EE00018B010BD1000002000100240000400488F
:101EF000000100502DE9F0410446434802F0F0FC97
:101F00000646206802F00EFD00287AD100BF94F842
:101F10005800012802D10220BDE8F081012084F898
:101F2000580000BF2046FFF79DFA0546002D63D1FB
:101F3000E06D40F60161884340F48070E06533490C
:101F40002068884202D14FF0A04000E0206821685C
:101F5000884200D01EB9E06D20F48010E065E06D8D
:101F600000F48050B0F5805F04D1206E20F00600B0
:101F7000206601E0002020661C202168086000BF68
:101F8000002084F8580000BF20492068884202D110
:101F90004FF0A04000E020682168884204D01EB1C4
:101FA000052E01D0092E0ED12068C06800F0007007
:101FB00028B1E06D20F4005040F48050E0652068C6
:101FC00002F0BAFC1EE0E06D40F48010E0650F49BD
:101FD0002068884202D14FF0A04000E02068074608
:101FE000F86800F0007068B1E06D20F4005040F433
:101FF0008050E06506E004E000BF002084F858004F
:1020000000E00225284687E7000300500001005049
:1020100070B5044600F004F906462546681C10B168
:1020200004480068054400BF00F0FAF8801BA8428D
:10203000FAD370BD1C00002078B502460B46002183
:10204000CAE001268E401D6805EA0604002C73D004
:102050001D7905F00305012D04D01D7905F0030558
:10206000022D13D190684E000325B540A8434E00C1
:10207000DD68B54028439060506801258D40A84335
:102080001D79C5F300158D40284350601D7905F07A
:102090000305032D09D0D0684E000325B540A843A1
:1020A0004E009D68B5402843D0601D7905F00305BA
:1020B000022D13D1CE0802F1200555F826004D0758
:1020C000EE0E0F25B540A8434E07F60E1D69B5402C
:1020D0002843CE0802F1200545F8260010684E007E
:1020E0000325B540A8431D7905F003054E00B54012
:1020F000284310605D6805F44035002D6BD000BFAB
:10210000384D2D6E45F00105364E356635462D6E3F
:1021100005F00105009500BF00BF4FEAB6358E08F7
:1021200055F826008D072E0F0F25B540A843B2F1B4
:10213000904F02D100251AE04DE02B4DAA4201D16B
:10214000012514E0294DAA4201D102250FE0284DB6
:10215000AA4201D103250AE0264DAA4201D1042555
:1021600005E0254DAA4201D1052500E006258E0790
:10217000360FB5402843214D8E0845F82600204DE6
:102180002868A0435D6805F4801505B120431C4D07
:1021900028602D1D2868A0435D6805F4001505B171
:1021A0002043174D2D1D2860154D2D1F2868A04375
:1021B0005D6805F4003505B12043114D2D1F2860E1
:1021C0002D1F2868A0435D6805F4803505B12043C4
:1021D0000B4D083D2860491C1D68CD40002D7FF443
:1021E00030AF78BD001002400004004800080048ED
:1021F000000C00480010004800140048080001408E
:1022000008040140024613690B400BB1012000E0B5
:10221000002070470AB1816100E0816270470000D0
:10222000014800687047000014000020034800685F
:1022300003490968084401490860704714000020F8
:102240001C00002010B50024032000F0ABF80F2084
:1022500000F008F808B1012401E000F02FF8204652
:1022600010BD000070B50446002511480068D8B1C3
:102270000F4800684FF47A71B1FBF0F00D4909681E
:10228000B1FBF0F6304600F0FBFE58B9102C07D237
:1022900000222146501E00F047F80748046004E081
:1022A000012502E0012500E00125284670BD00005F
:1022B0001C000020200000201800002008B500BFEE
:1022C0000E48006E40F001000C4908660846006E9A
:1022D00000F00100009000BF00BF00BF0846806D05
:1022E00040F0805088650846806D00F08050009076
:1022F00000BF00BF00F0F6F808BD0000001002406B
:102300000146084600280DDB00BF00BF00F01F0398
:1023100001229A4043099B0003F1E023C3F8002106
:1023200000BF00BF00BF70472DE9F05F80460D463B
:10233000164603F087FB074639462A46334601F026
:102340000700C0F1070ABAF1040F02D94FF0040ADE
:1023500001E0C0F1070AD14600F1040ABAF1070F03
:1023600002D24FF0000A01E0A0F1030AD4464FF078
:10237000010A0AFA09FAAAF1010A0AEA020A0AFAA1
:102380000CFA4FF0010B0BFA0CFBABF1010B0BEA53
:10239000030B4AEA0B042146404603F05BFBBDE811
:1023A000F09F000000BF00F00702064B19684FF6CF
:1023B000FF031940044B0B4343EA0221014B196010
:1023C00000BF70470CED00E00000FA0502468ABB32
:1023D0004148006800F4C060B0F5806F2BD13E48E2
:1023E0008030006820F480703B4BC3F880001846B2
:1023F000006820F4C06040F400701860374800683E
:1024000032235843364BB0FBF3F0411C00E0491E29
:102410003148406900F48060B0F5806F01D1002937
:10242000F5D12D48406900F48060B0F5806F51D13E
:102430000320704708E028488030006820F480704E
:10244000254BC3F8800045E0B2F5007F3AD1224821
:10245000006800F4C060B0F5806F2AD11E4880305B
:10246000006840F480701C4BC3F880001846006878
:1024700020F4C06040F400701860184800683223EF
:102480005843174BB0FBF3F0411C00E0491E1248C3
:10249000406900F48060B0F5806F01D10029F5D16A
:1024A0000D48406900F48060B0F5806F12D10320C0
:1024B000BFE709488030006840F48070064BC3F8DD
:1024C000800007E00448006820F4C06040F48060A9
:1024D000014B18600020ACE7007000402000002095
:1024E00040420F000348806840F480400149886002
:1024F00070470000007000402DE9F84304460027B3
:10250000B846206800F40020B0F5002F73D1B9461A
:10251000D348806D00F0805078B900BFD048806DFE
:1025200040F08050CE4988650846806D00F08050AC
:10253000009000BF00BF4FF00109CA48006840F496
:102540008070C8490860FFF76BFE064606E0FFF79B
:1025500067FE801B022801D9032705E0C1480068F7
:1025600000F480700028F2D000BF002F46D1BC4894
:102570009030006800F44075CDB1206CA84216D0B0
:10258000B7489030006820F44075B548D0F8900006
:1025900040F48030B249C1F890000846D0F890006D
:1025A00020F48030C1F890000846C0F8905005F043
:1025B0000100A0B1FFF734FE064608E0FFF730FE49
:1025C000801B41F28831884201D9032706E0A448E4
:1025D0009030006800F002000028EFD000BF5FB923
:1025E0009F489030006820F44070216C08439C495B
:1025F000C1F8900003E00CE0B84600E0B846B9F13D
:10260000010F05D19648806D20F08050944988656F
:1026100000BF207800F0010048B191488830006880
:1026200020F00300616808438D49C1F888002078D4
:1026300000F00200022809D189488830006820F0A3
:102640000C00A16808438649C1F88800207800F092
:102650000400042809D182488830006820F0300046
:10266000E16808437E49C1F88800207800F008003E
:10267000082809D17A488830006820F0C000216914
:1026800008437749C1F88800207800F0200020280E
:1026900009D173488830006820F4406061690843BC
:1026A0006F49C1F88800207800F04000402809D127
:1026B0006B488830006820F44050A169084368499D
:1026C000C1F88800207800F08000802809D1644893
:1026D0008830006820F44040E16908436049C1F84F
:1026E0008800208800F48070B0F5807F09D15C48B4
:1026F0008830006820F44030216A08435849C1F806
:102700008800208800F40070B0F5007F09D154489B
:102710008830006820F44020616A08435049C1F8BD
:102720008800208800F48060B0F5806F13D14C4899
:102730008830006820F44010A16A08434849883175
:102740000860A06AB0F5801F05D14548C06840F414
:1027500080104349C860208800F40060B0F5006F25
:1027600013D13F488830006820F44000E16A0843F4
:102770003B4988310860E06AB0F5800F05D13848E0
:10278000C06840F480103649C860208800F480504A
:10279000B0F5805F13D132488830006820F0407077
:1027A000216B08432E4988310860206BB0F1807F8F
:1027B00005D12B48C06840F480102949C8602088A2
:1027C00000F40050B0F5005F13D125488830006850
:1027D00020F04060616B0843214988310860606BDC
:1027E000B0F1006F05D11E48C06840F480101C494C
:1027F000C860208800F48040B0F5804F13D118489D
:102800008830006820F04060A16B0843144988318B
:102810000860A06BB0F1006F05D11148C06840F4AA
:1028200080100F49C860208800F40040B0F5004FC8
:1028300013D10B488830006820F04050E16B08430A
:10284000074988310860E06BB0F1805F05D104482A
:10285000C06840F480300249C8604046BDE8F88353
:1028600000100240007000402DE9F04104460D4682
:102870004FF0000814B90120BDE8F0817D480068E0
:1028800000F00F00A8420ED27A48006820F00F0036
:102890002843784908600846006800F00F00A84205
:1028A00001D00120E8E7207800F00100002864D082
:1028B0006068032823D17048006800F0007008B9F0
:1028C0000120D9E702F004FB06466C48864237D95E
:1028D0006948806800F0F00030B1207800F0020014
:1028E00002282DD1A06858BB6348806820F0F00012
:1028F00040F08000604988604FF0800820E0606808
:10290000022806D15C48006800F4003040B901207C
:10291000B2E75948006800F4806008B90120ABE7CD
:1029200000F0B4F806465548864209D952488068F6
:1029300020F0F00040F080004F4988604FF08008A0
:102940004D48806820F00300616808434A49886068
:10295000FFF766FC074608E0FFF762FCC01B41F288
:102960008831884201D9032086E74348806800F017
:102970000C006168B0EB810FEED1207800F002000E
:10298000022820D1207800F00400042805D13A481C
:10299000806840F4E06038498860207800F00800E2
:1029A000082807D13448806820F4605040F4E06083
:1029B000314988603048806820F0F000A168084301
:1029C0002D49886008E0B8F1800F05D12A48806859
:1029D00020F0F000284988602648006800F00F00C9
:1029E000A84219D92348006820F00F002843214944
:1029F0000860FFF715FC074608E0FFF711FCC01B55
:102A000041F28831884201D9032035E7194800682E
:102A100000F00F00A842F0D1207800F00400042854
:102A200007D11548806820F4E060E1680843124946
:102A30008860207800F00800082808D10E488068D7
:102A400020F46050216940EAC1000B49886000F021
:102A50001DF809498968C1F30311094A515C01F065
:102A60001F01C8400749086007480068FFF7FAFBE4
:102A700002E70000002002400010024000B4C4043D
:102A800016640008200000201800002070B5224DB8
:102A9000AD6805F00C05042D01D120483AE01E4D2B
:102AA000AD6805F00C05082D01D11D4832E01A4D26
:102AB000AD6805F00C050C2D2BD1174DED6805F018
:102AC0000304154DED68C5F303156A1C022C0CD0E8
:102AD000032C09D1124DB5FBF2F50F4EF668C6F383
:102AE000062605FB06F10AE000BF0C4DB5FBF2F52A
:102AF000094EF668C6F3062605FB06F100BF00BFC7
:102B0000054DED68C5F341656D1C6B00B1FBF3F03D
:102B100000E0002070BD0000001002400024F4001E
:102B200000366E012DE9F843044614B90120BDE8D2
:102B3000F883207800F00100002865D0FC48806808
:102B400000F00C07FA48C06800F003060C2F01D112
:102B5000032E01D0082F0AD1F548006800F4003098
:102B6000002851D0606800284ED10120DFE700BF67
:102B70006068B0F5803F06D1ED48006840F48030D1
:102B8000EB4908601AE06068B0F5A02F0BD1E84867
:102B9000006840F48020E64908600846006840F478
:102BA000803008600AE0E248006820F48030E049A4
:102BB00008600846006820F48020086000BF606854
:102BC00088B1FFF72DFB054606E0FFF729FB401B08
:102BD000642801D90320AAE7D548006800F4003032
:102BE0000028F2D010E0FFF71BFB054606E0FFF7D8
:102BF00017FB401B642801D9032098E7CC480068E4
:102C000000F400300028F2D1207800F00200022801
:102C100060D1C748806800F00C07C548C06800F064
:102C200003060C2F01D1022E01D0042F18D1C04869
:102C3000006800F4806018B1E06808B9012076E708
:102C4000BB48406820F0FE40217C40EA0160B84962
:102C50004860B8480068FFF705FB18B3012066E735
:102C6000E06800B3B248006840F48070B049086082
:102C7000FFF7D6FA054606E0FFF7D2FA401B022816
:102C800001D9032053E7AA48006800F480600028B7
:102C9000F2D0A748406820F0FE40217C40EA016065
:102CA000A349486016E0A248006820F48070A0495B
:102CB0000860FFF7B5FA054606E0FFF7B1FA401BDA
:102CC000022801D9032032E79948006800F48060A7
:102CD0000028F2D1207800F00800082836D1606979
:102CE000D0B193489430006840F001009049C1F899
:102CF0009400FFF795FA054606E0FFF791FA401BAE
:102D0000022801D9032012E789489430006800F0B6
:102D100002000028F1D019E085489430006820F0C6
:102D200001008349C1F89400FFF77AFA054606E0EE
:102D3000FFF776FA401B022801D90320F7E67C480A
:102D40009430006800F002000028F1D1207800F0F3
:102D50000400042872D14FF000087548806D0121ED
:102D600021EA107078B100BF7148806D40F080504A
:102D70006F4988650846806D00F08050009000BF64
:102D800000BF4FF001086C48006800F48070B0B9D3
:102D90006948006840F4807067490860FFF740FAAE
:102DA000054606E0FFF73CFA401B022801D9032044
:102DB000BDE66148006800F480700028F2D000BFD2
:102DC000A068012808D15A489030006840F00100FE
:102DD0005749C1F8900021E0A06805280FD1544858
:102DE0009030006840F004005149C1F89000084656
:102DF000D0F8900040F00100C1F890000EE04C487F
:102E00009030006820F001004949C1F89000084660
:102E1000D0F8900020F00400C1F8900000BFA06836
:102E2000A8B1FFF7FDF9054609E0FFF7F9F9401BE6
:102E300041F28831884202D9032078E625E03C48F7
:102E40009030006800F002000028EED013E0FFF799
:102E5000E7F9054608E0FFF7E3F9401B41F2883146
:102E6000884201D9032062E631489030006800F0C2
:102E700002000028EFD1B8F1010F05D12C48806D78
:102E800020F080502A49886500BF207800F020009B
:102E9000202836D1A069D0B125489830006840F08C
:102EA00001002349C1F89800FFF7BAF9054606E08A
:102EB000FFF7B6F9401B022801D9032037E61C486A
:102EC0009830006800F002000028F1D019E018489E
:102ED0009830006820F001001549C1F89800FFF70C
:102EE0009FF9054606E0FFF79BF9401B022801D930
:102EF00003201CE60E489830006800F0020000280D
:102F0000F1D1E069002860D00948806800F00C0029
:102F10000C287AD0E069022858D10548006820F0D2
:102F2000807003490860FFF77BF905460DE000005B
:102F3000001002401800002000700040FFF770F9F8
:102F4000401B022801D90320F1E54A48006800F03F
:102F500000700028F2D1D4E90810401E41EA0011A7
:102F6000A06A41EA0021208E0122C2EB500041EA12
:102F700040513420005DC2EB500041EA40612C20FA
:102F8000005D41EAC0603B49C9683B4A11400843C3
:102F90003849C8600846006840F0807008600846FC
:102FA000C06840F08070C860FFF73AF9054606E057
:102FB000FFF736F9401B022801D90320B7E52D4859
:102FC000006800F000700028F2D051E02948006845
:102FD00020F0807027490860FFF722F9054606E0D7
:102FE000FFF71EF9401B022801D903209FE5214865
:102FF000006800F000700028F2D11E48C0681F4928
:1030000008401C49C86033E0FFE7E069012800D1AF
:103010008DE51848C66806F00301206A814225D173
:1030200006F0F001606A401EB1EB001F1ED106F4ED
:10303000FE41A06AB1EB002F18D106F078412C2098
:10304000005DB1EBC06F11D106F4C001208E0122EA
:10305000C2EB5000B1EB405F08D106F0C0613420F4
:10306000005DC2EB5000B1EB406F01D001205EE586
:1030700000205CE5001002400C809F01FCFFEEFE8A
:1030800070B504462546681EB0F1807F01D301204B
:103090000FE0681E4FF0E02148610F214FF0FF3034
:1030A00002F0D8FC00204FF0E02188610720086181
:1030B000002070BD704770477047000010B5034690
:1030C000002200BF93F83C00012801D1022010BD6E
:1030D000012083F83C0000BF22F0FF00CC6840EAEA
:1030E000040222F440708C6840EA040222F48060FA
:1030F0004C6840EA040222F400600C6840EA0402D2
:1031000022F480500C6940EA040222F400504C6919
:1031100040EA040222F480400C6B40EA040222F4EC
:1031200070200C8B40EA044222F08050CC6940EAC7
:103130000402124C1868A04203D0114C1868A04237
:1031400013D122F470000C8D40EA045222F08070FA
:103150000C6A40EA040222F000704C6A40EA040261
:1031600022F00050CC6A40EA04021868426400BFB2
:10317000002083F83C0000BF00BFA8E7002C0140FE
:1031800000340140704770477047000030B5024678
:103190000B4600BF92F83C00012801D1022030BD4F
:1031A000012082F83C0000BF022082F83D00106838
:1031B0004168106884681D4D1068A84203D01C4DFA
:1031C0001068A84203D121F47001586801431948DE
:1031D00001401868014310684160144D1068A8420E
:1031E00013D01068B0F1804F0FD0134D1068A84273
:1031F0000BD0124D1068A84207D00D4D1068A842A0
:1032000003D00F4D1068A84205D124F080049868BF
:10321000044310688460012082F83D0000BF002054
:1032200082F83C0000BF00BFB9E70000002C01405D
:10323000003401408FFFFFFD000400400008004003
:1032400000400140704710B504460CB9012010BD84
:1032500094F83D0028B9002084F83C00204600F096
:1032600029F8022084F83D00211D206802F0B0F802
:10327000012084F8480000BF84F83E0001213F206F
:103280000155402001554120015542200155432060
:10329000015500BF00BF012084F8440045200155BE
:1032A000462001554720015500BF012084F83D000C
:1032B0000020CCE710B586B00446142101A8FDF724
:1032C000E2F83B492068884230D100BF3948806D20
:1032D00040F00200374988650846806D00F0020022
:1032E000009000BF00BF00BF0846C06C40F0020065
:1032F000C8640846C06C00F00200009000BF00BF28
:1033000010200190022002900020039004900220DF
:10331000059001A92848FEF78FFE002211461D20C6
:10332000FFF702F81D20FEF7EBFF3EE0234920687F
:10333000884216D100BF1F48806D40F004001D492F
:1033400088650846806D00F00400009000BF00BF53
:10335000002211461E20FEF7E7FF1E20FEF7D0FFD9
:1033600023E01749206888420DD100BF1148006E44
:1033700040F400300F4908660846006E00F4003043
:10338000009000BF11E00F49206888420DD100BFB6
:103390000848006E40F48020064908660846006E22
:1033A00000F48020009000BF00BF06B010BD0000F8
:1033B00000040040001002400004004800080040E3
:1033C0000044014000480140014691F83D000128B9
:1033D00001D001207047022081F83D000868C068D4
:1033E00040F001000B68D860184B0868984213D071
:1033F0000868B0F1804F0FD0154B086898420BD089
:10340000144B0868984207D0134B0868984203D0C1
:10341000124B0868984210D108688068104B00EA87
:103420000302062A0FD0B2F5803F0CD0086800686E
:1034300040F001000B68186005E00868006840F083
:1034400001000B6818600020C4E70000002C014058
:1034500000040040000800400034014000400140EA
:10346000070001002DE9F04104460D46002700BF8A
:1034700094F83C00012802D10220BDE8F08101202F
:1034800084F83C0000BF022084F83D002068866874
:103490003F48064026F47F462068866028687028EA
:1034A00024D00CDC00F00F01002964D100110728A2
:1034B00061D2DFE800F05354555649353F00354A94
:1034C000811A90424FD009DCB0F5805F0DD0B0F585
:1034D000005F18D0B0F1101F4DD143E0102943D048
:1034E000202942D0502946D140E046E0D5E90213D8
:1034F0006A68206801F0E3FF2068866846F0770676
:103500002068866039E0D5E902136A68206801F016
:10351000D6FF2068806840F48040216888602CE0F5
:10352000EA686968206802F0B5F95021206801F066
:10353000D1FF22E0EA686968206802F0FDF96021A5
:10354000206801F0C7FF18E0EA686968206802F0A7
:10355000A1F94021206801F0BDFF0EE000BF00BFCF
:1035600000BF00BF00BF00BF00BF00BF29682068C8
:1035700001F0B0FF01E0012700BF00BF012084F887
:103580003D0000BF002084F83C0000BF384674E7CF
:1035900088FFCEFF2000100010B504462068B0F16F
:1035A000804F13D10021204600F034FE14490860FA
:1035B000002021684862124800681249B1FBF0F00F
:1035C000114908600021204600F00EF90F492068DB
:1035D000884213D10021204600F01CFE0C490860EF
:1035E0000020216848620A4800680649B1FBF0F0F3
:1035F000084908600021204600F0F6F810BD0000E0
:103600002C00002040420F00340000200004004045
:1036100030000020380000202DE9F04104460D461E
:103620001646002700BF94F83C00012802D1022072
:10363000BDE8F081012084F83C0000BF96B9EB683A
:10364000D5E90012206802F039F92068806920F07D
:103650000C002168886120688069A9680843216896
:10366000886141E0042E13D1EB68D5E9001220688F
:1036700002F076F92068806920F440602168886152
:1036800020688069A96840EA0120216888612BE0F0
:10369000082E12D1EB68D5E90012206802F07DF9FE
:1036A0002068C06920F00C002168C8612068C069EA
:1036B000A96808432168C86116E00C2E13D1EB6895
:1036C000D5E90012206802F084F92068C06920F46E
:1036D00040602168C8612068C069A96840EA01208B
:1036E0002168C86100E0012700BF002084F83C0089
:1036F00000BF38469CE710B504460CB9012010BD48
:1037000094F83D0028B9002084F83C00204600F0E1
:1037100029F8022084F83D00211D206801F058FEA0
:10372000012084F8480000BF84F83E0001213F20BA
:1037300001554020015541200155422001554320AB
:10374000015500BF00BF012084F844004520015509
:10375000462001554720015500BF012084F83D0057
:103760000020CCE710B586B00446142101A8FCF770
:103770008AFE2068B0F1804F31D100BF1948806DBA
:1037800040F00100174988650846806D00F001008F
:10379000009000BF00BF00BF0846C06C40F00100B1
:1037A000C8640846C06C00F00100009000BF00BF74
:1037B0004FF40040019002200290002003900490FA
:1037C0000120059001A94FF09040FEF735FC002242
:1037D00011461C20FEF7A8FD1C20FEF791FD06B047
:1037E00010BD0000001002402DE9F04104460D46D6
:1037F00015B994F83E0015E0042D02D13F20005D7C
:1038000010E0082D02D14020005D0BE00C2D02D10C
:103810004120005D06E0102D02D14220005D01E054
:103820004320005D074615B994F844000BE0042DD1
:1038300002D14520005D06E0082D02D14620005D42
:1038400001E04720005D8046012F02D1B8F1010F51
:1038500002D00120BDE8F0811DB9022084F83E00AD
:103860001AE0042D03D102213F20015514E0082D58
:1038700003D10221402001550EE00C2D03D102217D
:103880004120015508E0102D03D1022142200155AD
:1038900002E00221432001551DB9022084F84400B2
:1038A0000EE0042D03D102214520015508E0082D2A
:1038B00003D102214620015502E002214720015593
:1038C00001222946206801F0E9FD18492068884254
:1038D00013D02068B0F1804F0FD01549206888427E
:1038E0000BD014492068884207D0134920688842C9
:1038F00003D012492068884210D12068806810499E
:1039000000EA0106062E0FD0B6F5803F0CD02068E5
:10391000006840F001002168086005E02068006848
:1039200040F0010021680860002093E7002C01406E
:103930000004004000080040003401400040014005
:10394000070001002DE9F04304460D46002715B994
:1039500094F83E0015E0042D02D13F20005D10E0F8
:10396000082D02D14020005D0BE00C2D02D141203A
:10397000005D06E0102D02D14220005D01E04320F1
:10398000005D804615B994F844000BE0042D02D187
:103990004520005D06E0082D02D14620005D01E0D3
:1039A0004720005D8146B8F1010F02D1B9F1010F46
:1039B00002D00120BDE8F0831DB9022084F83E004A
:1039C0001AE0042D03D102213F20015514E0082DF7
:1039D00003D10221402001550EE00C2D03D102211C
:1039E0004120015508E0102D03D10221422001554C
:1039F00002E00221432001551DB9022084F8440051
:103A00000EE0042D03D102214520015508E0082DC8
:103A100003D102214620015502E002214720015531
:103A200035B1042D0BD0082D10D00C2D1CD114E075
:103A30002068C06840F002002168C86016E0206875
:103A4000C06840F004002168C8600FE02068C068CA
:103A500040F008002168C86008E02068C06840F0B5
:103A600010002168C86001E0012700BF00BF67BBEC
:103A700001222946206801F011FD1849206888427A
:103A800013D02068B0F1804F0FD0154920688842CC
:103A90000BD014492068884207D013492068884217
:103AA00003D012492068884210D1206880681049EC
:103AB00000EA0106062E0FD0B6F5803F0CD0206834
:103AC000006840F001002168086005E02068006897
:103AD00040F001002168086038466BE7002C014087
:103AE0000004004000080040003401400040014054
:103AF0000700010070B504462068C66820680569A3
:103B000005F00200022819D106F00200022815D1A2
:103B1000401F21680861012020772068806900F03B
:103B2000030018B12046FFF737FD05E0204600F0FE
:103B300041F9204600F02FFA0020207705F004001C
:103B4000042819D106F00400042815D1C0432168C7
:103B50000861022020772068806900F4407018B165
:103B60002046FFF719FD05E0204600F023F9204626
:103B700000F011FA0020207705F00800082819D17C
:103B800006F00800082815D1C04321680861042008
:103B900020772068C06900F0030018B12046FFF7C5
:103BA000FBFC05E0204600F005F9204600F0F3F9A3
:103BB0000020207705F01000102819D106F0100021
:103BC000102815D1C043216808610820207720689B
:103BD000C06900F4407018B12046FFF7DDFC05E035
:103BE000204600F0E7F8204600F0D5F900202077C5
:103BF00005F0010048B106F0010030B16FF001009E
:103C000021680861204600F06DFA05F080008028E8
:103C100004D005F40050B0F5005F0AD106F0800032
:103C2000802806D16FF40250216808612046FFF712
:103C300042FA05F48070B0F5807F0AD106F080006A
:103C4000802806D16FF48070216808612046FFF754
:103C500031FA05F04000402809D106F04000402824
:103C600005D1C04321680861204600F0ECFA05F058
:103C70002000202809D106F02000202805D1C043CB
:103C8000216808612046FFF717FA05F48010B0F5A7
:103C9000801F0BD106F48010B0F5801F06D16FF4A1
:103CA0008010216808612046FFF76DFA05F40010C6
:103CB000B0F5001F0BD106F40010B0F5001F06D1BF
:103CC0006FF40010216808612046FFF75BFA05F4E5
:103CD0008000B0F5800F0BD106F48000B0F5800FA6
:103CE00006D16FF48000216808612046FFF74CFA86
:103CF00005F40000B0F5000F0BD106F40000B0F59C
:103D0000000F06D16FF40000216808612046FFF71C
:103D100099FA70BD10B586B00446142101A8FCF7CD
:103D2000B2FB2149206888421CD100BF1F48C06CEB
:103D300040F001001D49C8640846C06C00F0010055
:103D4000009000BF00BF40200190022002900020A0
:103D5000039004900120059001A94FF09040FEF7D8
:103D60006BF91FE01249206888421BD100BF0F4841
:103D7000C06C40F001000D49C8640846C06C00F0FA
:103D80000100009000BF00BF80200190022002903F
:103D90000020039004900120059001A94FF090406D
:103DA000FEF74AF906B010BD004401400010024081
:103DB0000048014070472DE9F04104460D46164683
:103DC000002700BF94F83C00012802D10220BDE882
:103DD000F081012084F83C0000BF0C2E51D005DC9E
:103DE0004EB1042E1ED0082E7AD133E0102E60D0B2
:103DF000142EF9D175E02946206801F077FB206880
:103E0000806940F00800216888612068806920F09E
:103E10000400216888612068806929690843216855
:103E2000886178E02946206801F0B6FB2068806947
:103E300040F40060216888612068806920F4806017
:103E40002168886120688069296940EA0120216829
:103E5000886160E02946206801F0F8FB2068C069AD
:103E600040F008002168C8612068C06920F00400A3
:103E70002168C8612068C069296908432168C86150
:103E800049E02946206801F03BFC2068C06940F405
:103E900000602168C8612068C06920F480602168E2
:103EA000C8612068C069296940EA01202168C861A9
:103EB00031E02946206801F07DFC2068006D40F06B
:103EC0000800216808652068006D20F00400216862
:103ED00008652068006D29690843216808651AE0B3
:103EE00017E02946206801F09DFC2068006D40F431
:103EF0000060216808652068006D20F480602168FA
:103F000008652068006D296940EA0120216808657C
:103F100001E0012700BF00BF00BF002084F83C0083
:103F200000BF384653E710B504460CB9012010BD58
:103F300094F83D0028B9002084F83C00204600F0A9
:103F400029F8022084F83D00211D206801F040FA84
:103F5000012084F8480000BF84F83E0001213F2082
:103F60000155402001554120015542200155432073
:103F7000015500BF00BF012084F8440045200155D1
:103F8000462001554720015500BF012084F83D001F
:103F90000020CCE77047704770B504460D4615B950
:103FA00094F83E0015E0042D02D13F20005D10E0A2
:103FB000082D02D14020005D0BE00C2D02D14120E4
:103FC000005D06E0102D02D14220005D01E043209B
:103FD000005D012801D0012070BD1DB9022084F8C8
:103FE0003E001AE0042D03D102213F20015514E0C8
:103FF000082D03D10221402001550EE00C2D03D1E4
:1040000002214120015508E0102D03D10221422058
:10401000015502E002214320015501222946206872
:1040200001F03CFA2749206888420FD026492068D1
:1040300088420BD025492068884207D0244920684F
:10404000884203D023492068884201D1012000E042
:10405000002028B12068406C40F40040216848648A
:1040600018492068884213D02068B0F1804F0FD0E3
:104070001949206888420BD018492068884207D027
:1040800011492068884203D010492068884210D125
:1040900020688068124900EA0106062E0FD0B6F5A6
:1040A000803F0CD02068006840F001002168086063
:1040B00005E02068006840F00100216808600020E9
:1040C0008AE70000002C014000340140004001401C
:1040D0000044014000480140000400400008004046
:1040E0000700010010B504464749206888426ED198
:1040F00001214648FEF786F808B1012000E00020C3
:104100004349087102214148FEF77CF808B10121BA
:1041100000E000213E48017304213C48FEF772F89C
:1041200008B1012100E000213948017501214FF05B
:104130009040FEF767F808B1012100E00021344803
:10414000017700205CE0324911F8301021B10129DB
:1041500010D0022952D11CE02D4901EBC001097990
:1041600039B901212A4A02F83010002102EBC002BD
:10417000518043E0264901EBC001097921B90221B0
:10418000234A02F8301003E00021214A02F83010DF
:1041900034E01F4901EBC0010979012924D1002134
:1041A0001B4A02F83010012102EBC002517118497C
:1041B00001EBC0014988C8290ADA0021144A02EB40
:1041C000C0029171124A02EBC002518015E019E061
:1041D0000F4901EBC0014988C8290EDD01210C4AB5
:1041E00002EBC002917108E0094901EBC001498866
:1041F000491C074A02EBC002518000BF00BF401CAF
:104200000428A0DB10BD00000008004000040048A6
:10421000900200200246002031B1042907D008296D
:1042200008D00C290CD108E01368586B09E013681A
:10423000986B06E01368D86B03E01368186C00E015
:1042400000BF00BF7047704700BFFEE700B585B0F4
:1042500014216846FCF717F9C02000900120019056
:1042600002900220039069460248FDF7E5FE05B082
:1042700000BD00000004004870B50825002401F0CE
:104280000BF813E06006040E002000F0E5FF142098
:1042900001F0FBFB142001F0F8FB012000F0DCFF33
:1042A000142001F0F2FB00F0EBFF0443281EA5F1FF
:1042B0000101CDB2E6D100F0CFFF142001F0E5FB03
:1042C00001F014F8204670BD70B50446082517E0CB
:1042D000002000F0C1FF142001F0D7FB04F08000A3
:1042E00000F0F0FF142001F0D0FB6006040E142053
:1042F00001F0CBFB012000F0AFFF142001F0C5FB63
:10430000281EA5F10101CDB2E2D100F0A5FF1420D5
:1043100001F0BBFB70BD10B5012000F0D3FF1420ED
:1043200001F0B3FB012000F097FF142001F0ADFB7A
:10433000002000F0C7FF142001F0A7FB002000F0D0
:104340008BFF142001F0A1FB10BD10B5002000F080
:1043500083FF142001F099FB002000F0B3FF14202C
:1043600001F093FB012000F077FF142001F08DFB9A
:10437000012000F0A7FF142001F087FB10BD10B54D
:10438000052400F089FF142001F07FFB012000F0DC
:1043900063FF142001F079FB0BE0601E84B214204F
:1043A00001F073FB2CB900F0A1FFFFF7CEFF012055
:1043B00010BD00F065FF0028EFD100F04DFF00F0C8
:1043C00095FF142001F061FB0020F1E700B585B0F6
:1043D00014216846FCF757F84FF6FF700090002054
:1043E0000190032003900020029069460248FDF7E7
:1043F00023FE05B000BD00000008004800B585B0F0
:1044000014216846FCF73FF84FF6FF70009001203A
:104410000190032003900020029069460248FDF7B6
:104420000BFE05B000BD00000008004830B5054691
:1044300000240021084600F05BF900F0A9F900BF54
:1044400003E0284600F068F9641CB4F5963FF8D301
:1044500030BD000010B5044602A1204600F082F8ED
:1044600010BD0000202020202020202020202020FF
:1044700020202020202020200000000000B587B050
:10448000142102A8FBF7FFFF00BF2A48C06C40F0D0
:1044900004002849C8640846C06C00F0040001907C
:1044A00000BF00BF00BF0846C06C40F00100C864F8
:1044B0000846C06C00F00100019000BF00BF00BFC3
:1044C0000846C06C40F00200C8640846C06C00F0AA
:1044D0000200019000BF00BF4FF44870029001201D
:1044E000039000200590049002A91348FDF7A4FD55
:1044F0004FF48070029001200390002005900490FA
:1045000002A94FF09040FDF797FDFFF777FF4FF0BE
:104510009040806940F480704FF090418861064877
:104520001830006840F4087003491831086007B07B
:1045300000BD0000001002400004004870B50546B0
:104540000E461446A4F12000C4B204EB4400044912
:1045500001EB00123146284600F01AF870BD000049
:104560002E640008F0B507460C46002540F23F16C1
:1045700009E0227831463846FFF7E0FFA6F1100047
:1045800086B2641C6D1C207808B1142DF1D3F0BDE7
:104590002DE9F04306468946174600240025A0462B
:1045A000B0464946404600F0A3F800BF1EE000F0C8
:1045B000EFF800250FE037F814000121A94008406A
:1045C00020B90C48008800F0A7F803E00A480088EA
:1045D00000F0A2F86D1C102DEDD308F1010000F0E1
:1045E000FF084946404600F083F8641C182CDED3CF
:1045F000BDE8F083260000202400002010B5FFF75E
:104600003DFF002000F016F80949088008460088A0
:1046100048F23021884202D100F08EFC01E000F027
:104620001BFD002000F006F80149088010BD0000C5
:104630002800002070B504462748006840F4007048
:10464000254908600846006840F4807008602248E8
:104650001038006840F020001F49103908601F48DA
:1046600004601D48006840F020001B49086000BF3E
:1046700000BF00BF18481038006840F020001649FD
:10468000103908600846006840F480700860FFF741
:104690009DFE4FF09040806A40F480704FF0904152
:1046A000886200BF00BF00BF0C48001F006885B2D1
:1046B0004FF09040806940F480704FF090418861E5
:1046C000FFF79CFE04481038006840F4007002496F
:1046D00010390860284670BD2804004814080048B6
:1046E00001B5BDF800000149088008BD2600002082
:1046F00030B504460D462146202000F085F82946B5
:10470000212000F081F830BD01B5BDF8000001495D
:10471000088008BD240000201B49096841F400718D
:10472000194A116018491039096841F48071164A14
:10473000103A11601146096841F0200111601349D7
:1047400008601149096841F020010F4A116000BF5B
:1047500000BF00BF0C491039096841F020010A4A26
:10476000103A11601146096841F48071116000BF70
:1047700000BF00BF04491039096841F40071024AC2
:10478000103A1160704700002804004814080048DF
:104790001B48006840F4007019490860084600682A
:1047A00040F48070086016481038006840F020001F
:1047B0001349103908602220124908601048006827
:1047C00040F020000E49086000BF00BF00BF0C4849
:1047D0001038006840F02000094910390860084688
:1047E000006840F48070086000BF00BF00BF04484C
:1047F0001038006840F400700149103908607047B3
:104800002804004814080048214A126842F4007243
:104810001F4B1A601A46126842F480721A601C4AD2
:10482000103A126842F02002194B103B1A60194AE4
:104830001060174A126842F02002154B1A6000BF40
:1048400000BF00BF124A103A126842F02002104B1B
:10485000103B1A601A46126842F480721A600D4AC0
:1048600011600B4A126842F02002094B1A6000BF27
:1048700000BF00BF064A103A126842F02002044B03
:10488000103B1A601A46126842F480721A60704730
:10489000280400481408004810B5044601224FF6C9
:1048A000FF710948FDF7B6FC210200220648FDF71A
:1048B000B1FC012204210548FDF7ACFC00220421D3
:1048C0000248FDF7A7FC10BD00080048000C004896
:1048D0008168024A1140491C81607047C0FFFF7F18
:1048E0000146886800F01F007047024602F1600030
:1048F00000EB8103186800F0F840704701468868B3
:10490000C0F3C00070470146886800F0010070479E
:104910000146886800F00100704701468868C0F3CE
:104920000070704701468868C0F3800070470146F8
:104930008868C0F3800070478168024A1140091DF1
:1049400081607047C0FFFF7F70B500F11404C1F3B0
:10495000406504EB85031C68C1F304560725B54088
:10496000AC43C1F3045502FA05F52C431C6070BD3D
:10497000826822F0E0720A438260704710B500F14D
:10498000600404EB81031C6824F0004414431C60A1
:1049900010BD426922F000420A43426170470000A4
:1049A00000B58BB00020089009900A90202168463D
:1049B000FBF769FD4FF0A0401F4908604FF400303D
:1049C000486000211C488160C1600161416104218F
:1049D000816100210177417701210162002180F886
:1049E0002410C162016380F83810C16380F8401060
:1049F000FDF7C0F808B1FCF7ABFD0020089008A94E
:104A00000D48FCF7A9FD08B1FCF7A2FD0B4800908A
:104A100006200190002002907F2003900420049043
:104A20000020059069460448FCF71CFE08B1FCF71D
:104A30008FFD0BB000BD00003C0000200008302EB0
:104A400000B589B0202101A8FBF71DFD1A481B49BC
:104A5000086040024860002118488160C16001611F
:104A600041610421816100210177417701210162C7
:104A7000002180F82410C162016380F83810C163FE
:104A800080F84010FDF776F808B1FCF761FD0C489E
:104A9000019006200290002003907F2004900420C3
:104AA00005900020069001A90448FCF7DBFD08B141
:104AB000FCF74EFD09B000BD00010050A800002029
:104AC0000080F03E00B587B0142102A8FBF7DBFCA4
:104AD00000BF4548C06C40F004004349C864084624
:104AE000C06C00F00400019000BF00BF00BF08468A
:104AF000C06C40F02000C8640846C06C00F0200084
:104B0000019000BF00BF00BF0846C06C40F001002C
:104B1000C8640846C06C00F00100019000BF00BFEF
:104B200000BF0846C06C40F00200C8640846C06C74
:104B300000F00200019000BF00BF00BF0846C06C3B
:104B400040F00800C8640846C06C00F008000190FE
:104B500000BF00BF01224FF47F412448FDF75AFBFC
:104B6000002204212248FDF755FB0022C0212148E4
:104B7000FDF750FB4FF47F4002900120039000208E
:104B80000490059002A91948FDF756FA01200290F9
:104B9000002003900120049002A94FF09040FDF7FF
:104BA0004BFA07200290002003900120049002A9F4
:104BB0001048FDF741FA04200290012003900020E4
:104BC0000490059002A90A48FDF736FAC020029029
:104BD0000120039000200490059002A90548FDF7EC
:104BE0002BFA07B000BD000000100240000800488A
:104BF000000C00480004004800B595B01C210EA828
:104C0000FBF741FC342101A8FBF73DFC2148224978
:104C1000086041F63F70486000211F4881606321B1
:104C2000C1600021016141618161FEF70CFB08B1A7
:104C3000FCF78EFC1848FFF776F908B1FCF788FC02
:104C400060200E9014200F90002010901190129070
:104C50001390149000220EA90F48FFF7ACF808B18A
:104C6000FCF776FC002001900290039004900590E0
:104C70004FF400500690002007900D9001A90648BF
:104C8000FEF71CFA08B1FCF763FC0348FFF742F893
:104C900015B000BD00440140F801002000B595B0FA
:104CA0001C210EA8FBF7EFFB342101A8FBF7EBFB5F
:104CB00021482249086040F69F70486000211F4843
:104CC00081606321C1600021016141618161FEF762
:104CD000BAFA08B1FCF73CFC1848FFF724F908B110
:104CE000FCF736FC60200E9014200F9000201090EE
:104CF000119012901390149000220EA90F48FFF704
:104D00005AF808B1FCF724FC0020019002900390AF
:104D1000049005904FF400500690002007900D90ED
:104D200001A90648FEF7CAF908B1FCF711FC0348CF
:104D3000FEF7F0FF15B000BD00480140440200201E
:104D400000B587B000200490059006900090019077
:104D5000029003904FF08040154908604F20486052
:104D6000002113488160491EC160002101618161F9
:104D7000FEF7C1FC08B1FCF7EBFB002004900690A5
:104D800004A90B48FEF702FA08B1FCF7E1FB00208A
:104D900000900120019000200290039000226946BB
:104DA0000348FEF739FC08B1FCF7D2FB07B000BDA1
:104DB0001401002000B58BB00020079008900990E6
:104DC0000A90049005900690009001900290039044
:104DD0001E481F4908604F20486000211C48816020
:104DE00042F20F71C160002101618161FEF72BFA6F
:104DF00008B1FCF7ADFB4FF48050079007A91448A9
:104E0000FEF730FB08B1FCF7A3FB1148FEF773FC7B
:104E100008B1FCF79DFB00200490069004A90C4803
:104E2000FEF7B4F908B1FCF793FB002000900120D5
:104E30000190002002900390002269460448FEF78A
:104E4000EBFB08B1FCF784FB0BB000BD0004004095
:104E50006001002000B587B0002003900490059009
:104E600006900090019002901448154908604F2068
:104E7000486000211248816042F20F71C160002138
:104E800001618161FEF7DFF908B1FCF761FB4FF4C6
:104E90008050039003A90A48FEF7E4FA08B1FCF732
:104EA00057FB00200090029069460548FEF76EF916
:104EB00008B1FCF74DFB07B000BD00000008004042
:104EC000AC01002000BFFEE700BFFEE77047000016
:104ED00070B5164DED6805F00304144DED68C5F38B
:104EE00003156B1C022C0CD0032C09D1104DB5FB03
:104EF000F3F50E4EF668C6F3062605FB06F10AE04A
:104F000000BF0C4DB5FBF3F5084EF668C6F3062658
:104F100005FB06F100BF00BF044DED68C5F3416518
:104F20006D1C6A00B1FBF2F070BD00000010024081
:104F300000366E010024F40000B501210020FFF7C7
:104F400063FC4FF47A70FCF7F4FA00210120FFF7BC
:104F50005BFC41F290711020FFF756FC4FF41C519E
:104F60006020FFF751FC01216120FFF74DFC022179
:104F70004620FFF749FC48F210011320FFF744FCDC
:104F800048F2FE011220FFF73FFC4FF4A06102201F
:104F9000FFF73AFC41F230010320FFF735FC40F205
:104FA00003313020FFF730FC40F203313120FFF7AE
:104FB0002BFC40F203313220FFF726FC4FF4407106
:104FC0003320FFF721FC03213420FFF71DFC40F2C2
:104FD00003313520FFF718FC14213620FFF714FCAD
:104FE00040F203313720FFF70FFC40F20331382045
:104FF000FFF70AFC40F203313920FFF705FC4FF4BC
:1050000040713A20FFF700FC03213B20FFF7FCFB37
:1050100040F203313C20FFF7F7FB4FF4A0513D2055
:10502000FFF7F2FB4FF400719220FFF7EDFB40F227
:1050300003319320FFF7E8FB40F60D019020FFF7C6
:10504000E3FB41F218010320FFF7DEFB40F273118E
:105050000720FFF7D9FB00BD10B543F20801E3209C
:10506000FFF7D2FB1221E720FFF7CEFB41F23121FF
:10507000EF20FFF7C9FB00210120FFF7C5FB4FF42C
:10508000E0610220FFF7C0FB41F230010320FFF78F
:10509000BBFB00210420FFF7B7FB40F207210820EB
:1050A000FFF7B2FB00210920FFF7AEFB00210A2029
:1050B000FFF7AAFB00210C20FFF7A6FB00210D2023
:1050C000FFF7A2FB00210F20FFF79EFB002110201D
:1050D000FFF79AFB07211120FFF796FB0021122012
:1050E000FFF792FB00211320FFF78EFBC820FCF78F
:1050F0008FFF41F290611020FFF786FB40F22721DD
:105100001120FFF781FB3220FCF782FF1D211220C6
:10511000FFF77AFB3220FCF77BFF4FF4006113208E
:10512000FFF772FB14212920FFF76EFB0B212B20C8
:10513000FFF76AFB3220FCF76BFF00212020FFF70E
:1051400063FB00212120FFF75FFB07213020FFF7E1
:105150005BFB40F207713120FFF756FB062132203E
:10516000FFF752FB40F204713520FFF74DFB41F68B
:1051700004713620FFF748FB04213720FFF744FB7A
:1051800000213820FFF740FB40F206713920FFF77D
:105190003BFB40F201713C20FFF736FB0F213D2025
:1051A000FFF732FB00215020FFF72EFBEF215120AB
:1051B000FFF72AFB00215220FFF726FB40F23F11A8
:1051C0005320FFF721FB4FF41C516020FFF71CFB1D
:1051D00001216120FFF718FB00216A20FFF714FB73
:1051E00000218020FFF710FB00218120FFF70CFB3E
:1051F00000218220FFF708FB00218320FFF704FB3A
:1052000000218420FFF700FB00218520FFF7FCFA36
:1052100010219020FFF7F8FA00219220FFF7F4FA0E
:1052200003219320FFF7F0FA4FF488719520FFF7E0
:10523000EBFA00219720FFF7E7FA00219820FFF70B
:10524000E3FA41F218010320FFF7DEFA40F273118E
:105250000720FFF7D9FA10BD30B10849096841F0BD
:105260004001064A116007E004491031096841F025
:105270004001024A103211607047000018040048D3
:1052800010B580210348FCF7BDFF012800D110BDF7
:105290000020FCE70004004800B585B014216846F2
:1052A000FBF7F1F88020009000200190012002908F
:1052B0000220039069460248FCF7BEFE05B000BD1F
:1052C0000004004830B10849096841F08001064AED
:1052D000116007E004491031096841F08001024A79
:1052E00010321160704700001804004800B585B006
:1052F00014216846FBF7C7F8802000901120019028
:10530000002002900220039069460248FCF794FEB8
:1053100005B000BD00040048704710B5FCF786FFDB
:1053200010BD00B593B0382105A8FBF7ACF81421E7
:105330006846FBF7A8F84FF40070FDF747F8012026
:1053400005900004069002200C9003210D910E910F
:1053500014210F91022110911191129105A8FDF7CE
:10536000E1FB08B1FCF7F4F80F2000900320019056
:10537000002002900390049002216846FDF774FA21
:1053800008B1FCF7E5F813B000BD00000348006861
:1053900040F47000014908607047000088ED00E0AB
:1053A00010B50248FEF7A6FB10BD00001401002056
:1053B00010B50248FEF79EFB10BD00006001002002
:1053C00010B50248FEF796FB10BD0000AC010020AE
:1053D00010B502682A4B98420BD0B0F1804F08D02C
:1053E000284B984205D0284B984202D0274B984230
:1053F00003D122F070024B681A43214B984214D01B
:10540000B0F1804F11D01F4B98420ED01E4B9842E6
:105410000BD01E4B984208D01D4B984205D01D4B17
:10542000984202D01C4B984203D122F44072CB68C0
:105430001A4322F080034C6943EA040202608B683D
:10544000C3620B6883620E4B98420BD00F4B98429D
:1054500008D00F4B984205D00E4B984202D00E4B0D
:10546000984201D10B69036301234361036903F08F
:1054700001031BB1036923F00103036110BD0000A8
:10548000002C0140000400400008004000340140AE
:1054900000400140004401400048014030B501F0A7
:1054A0001F05012404FA05F3046A9C430462046A9C
:1054B00001F01F0502FA05F52C43046230BD30B53A
:1054C0000C46816821F47F4142EA032525432943A4
:1054D000816030BD0A468168034B194042F00703E2
:1054E00019438160704700008FFFCFFF30B5026A1B
:1054F000056A25F00105056243688469204D2C404A
:1055000024F003040D682C4322F002028D682A4324
:105510001C4DA84200D10FE01B4DA84200D10BE06A
:105520001A4DA84200D107E0194DA84200D103E06E
:10553000184DA84206D100BF22F00802CD682A43C8
:1055400022F004020F4DA8420BD00F4DA84208D004
:105550000E4DA84205D00E4DA84202D00D4DA842D6
:1055600007D123F4807323F400734D692B438D69B5
:105570002B43436084614D684563026230BD000087
:105580008FFFFEFF002C014000340140004001402D
:10559000004401400048014030B5026A056A25F028
:1055A0001005056243688469224D2C4024F4407440
:1055B0000D6844EA052422F020028D6842EA0512B3
:1055C0001D4DA84200D10FE01C4DA84200D10BE0B8
:1055D0001B4DA84200D100BF1A4DA84200D100BF08
:1055E000194DA84207D106E022F08002CD6842EAB8
:1055F000051222F04002104DA8420BD00F4DA842D8
:1056000008D00F4DA84205D00E4DA84202D00E4D35
:10561000A84209D123F4806323F400634D6943EA6F
:1056200085038D6943EA8503436084614D68856322
:10563000026230BDFF8FFFFE002C014000340140AC
:1056400000400140004401400048014030B5026A7A
:10565000056A25F4807505624368C469224D2C40B3
:1056600024F003040D682C4322F400728D6842EA92
:1056700005221E4DA84200D10FE01D4DA84200D1C9
:105680000BE01C4DA84200D100BF1B4DA84200D129
:1056900000BF1A4DA84207D106E022F40062CD688F
:1056A00042EA052222F48062104DA8420BD0104D30
:1056B000A84208D00F4DA84205D00F4DA84202D0F5
:1056C0000E4DA84209D123F4805323F400534D69B1
:1056D00043EA05138D6943EA05134360C4614D68CD
:1056E000C563026230BD00008FFFFEFF002C014049
:1056F00000340140004001400044014000480140A6
:1057000030B5026A056A25F4805505624368C469AC
:10571000224D2C4024F440740D6844EA052422F400
:1057200000528D6842EA05321D4DA84200D10FE0BB
:105730001C4DA84200D10BE01B4DA84200D100BF78
:105740001A4DA84200D100BF194DA84207D106E06A
:1057500022F40042CD6842EA053222F48042104D24
:10576000A8420BD00F4DA84208D00F4DA84205D03B
:105770000E4DA84202D00E4DA84209D123F4804319
:1057800023F400434D6943EA85138D6943EA851389
:105790004360C4614D680564026230BDFF8FFFFE47
:1057A000002C014000340140004001400044014011
:1057B0000048014030B5026A056A25F4803505626B
:1057C0004368046D114D2C400D682C4322F40032C7
:1057D0000D8942EA05420E4DA8420BD00D4DA8425C
:1057E00008D00D4DA84205D00C4DA84202D00C4D5A
:1057F000A84204D123F480334D6943EA0523436072
:1058000004654D688564026230BD00008FFFFEFFB5
:10581000002C0140003401400040014000440140A0
:105820000048014030B5026A056A25F4801505621A
:105830004368046D114D2C400D6844EA052422F4A0
:1058400000120D8942EA05520D4DA8420BD00D4DB4
:10585000A84208D00C4DA84205D00C4DA84202D059
:105860000B4DA84204D123F480234D6943EA8523DC
:10587000436004654D68C564026230BDFF8FFFFE62
:10588000002C014000340140004001400044014030
:105890000048014030B50B461446026A056A25F0FF
:1058A00001050562816921F0F00141EA041122F04D
:1058B0000A021A438161026230BD000070B50C46D5
:1058C0001546026A066A26F0010606628169154ECF
:1058D000B0420ED0B0F1804F0BD0134EB04208D082
:1058E000124EB04205D0124EB04202D0114EB0421C
:1058F00001D1012600E000261EB121F00301294359
:1059000001E041F0010121F0F001F02606EA031662
:10591000314322F00A0204F00A0632438161026236
:1059200070BD0000002C0140000400400008004051
:10593000003401400040014030B50B461446026A75
:10594000056A25F010050562816921F4704141EA7C
:10595000043122F0A00242EA03128161026230BDEA
:1059600070B50C461546026A066A26F010060662F5
:10597000816921F4407141EA052121F470414FF41D
:10598000704606EA0336314322F0A002A02606EA5A
:10599000041632438161026270BD70B50C46154633
:1059A000026A066A26F480760662C16921F0030164
:1059B000294321F0F001F02606EA0316314322F4D0
:1059C00020624FF4206606EA04263243C161026277
:1059D00070BD70B50C461546026A066A26F48056FC
:1059E0000662C16921F4407141EA052121F4704148
:1059F0004FF4704606EA0336314322F420424FF456
:105A0000204606EA04363243C161026270BD00BF1F
:105A1000FEE703B401984100009850EAC12018BF86
:105A200004204A0D18BF40F0010040F2FF72B2EBB3
:105A3000515F08BF40F00200012808BF052002B0F6
:105A40007047000002480068C0F302207047000061
:105A50000CED00E010B5002804DB0A07130E054A20
:105A6000135406E00A07140E034A00F00F031B1F2D
:105A7000D45410BD00E400E018ED00E030380A28EE
:105A800001D20120704700207047002100E0491C2E
:105A90008142FCD37047000030B52DED028B89B0F8
:105AA0004248006842490968401A322803D209B0C6
:105AB000BDEC028B30BD3D4800683D4908603D4863
:105AC0000088002850D13CA101A8FAF705FC01A9E3
:105AD0001820FEF747FD3E4800F01EF9B0EE408A60
