:020000040800F2
:10000000D8090020A5020008F55E0008815100080B
:10001000F15E0008CD1B0008C57800080000000054
:100020000000000000000000000000004563000820
:10003000D11B000800000000F95E000847630008BB
:10004000BF020008BF020008BF020008BF0200088C
:10005000BF020008BF020008BF020008BF0200087C
:10006000BF020008BF020008BF020008BF0200086C
:10007000BF020008BF020008BF020008BF0200085C
:10008000BF02000800000000BF020008BF02000815
:10009000BF020008BF020008BF020008BF0200083C
:1000A000BF020008BF020008BF020008BF0200082C
:1000B000CD630008DD630008ED630008BF0200089F
:1000C000BF020008BF020008BF020008BF0200080C
:1000D000BF020008B5780008BF020008BF02000890
:1000E000BF020008BF020008BF020008BF020008EC
:1000F000BF020008BF020008BF02000800000000A5
:1001000000000000BF02000800000000BF0200085D
:10011000BF02000800000000BF020008BF02000884
:10012000BF020008BF020008BF020008BF020008AB
:10013000BF0200080000000000000000BF0200082D
:10014000BF020008BF02000800000000000000001D
:10015000000000000000000000000000000000009F
:10016000000000000000000000000000BF020008C6
:10017000BF020008000000000000000000000000B6
:1001800000000000BF0200080000000000000000A6
:10019000000000000000000000000000000000005F
:1001A0000000000000000000BF020008BF020008BD
:1001B000BF020008BF020008BF02000800000000E4
:1001C00000000000BF020008000000000000000066
:1001D000BF020008BF02000800F002F800F052F869
:1001E0000AA090E8000C82448344AAF10107DA4592
:1001F00001D100F047F8AFF2090EBAE80F0013F092
:10020000010F18BFFB1A43F001031847AC9400001C
:10021000CC940000103A24BF78C878C1FAD85207AD
:1002200024BF30C830C144BF04680C607047000070
:100230000023002400250026103A28BF78C1FBD8EF
:10024000520728BF30C148BF0B607047662908F0CD
:10025000DE80642900F0D280002070471FB508F0CE
:10026000D1F800F085FD04000020002107F04AFECF
:10027000401C60600020002107F02EFEE0601FBDE2
:1002800010B510BD01F036F81146FFF7E7FF07F093
:1002900077FD01F05DF803B4FFF7F2FF03BC01F056
:1002A00061F800000948804709480047FEE7FEE77B
:1002B000FEE7FEE7FEE7FEE7FEE7FEE7FEE7FEE716
:1002C00004480549054A064B70470000B963000819
:1002D000D9010008D8030020D8090020D805002043
:1002E000D805002053EA020C00F069802DE9F04B9C
:1002F0004FF00006002B1FBFB3FA83F503FA05F495
:1003000024FA05F65E4012BF1643B2FA82F502FAED
:1003100005F4C5F120051EBF22FA05FC44EA0C04D1
:10032000203556EA044C4FEA144418BF641C4FF0C1
:1003300000084FF00009904271EB030C39D30029FB
:1003400019BFB1FA81F701FA07F6B0FA80F700FA9F
:1003500007F6C7F120071EBF20FA07FC46EA0C0685
:100360002037B6FBF4FCA7EB0507103F07F01F0B87
:10037000CBF120060CFA0BFB2CFA06F644BFB34671
:100380000026202FA4BF5E464FF0000B5BEA060C50
:1003900008BF4FF0010B19EB0B09ABFB027C48EBDC
:1003A0000608C01B06FB02CC0BFB03CC71EB0C0157
:1003B000C1E70B46024641464846BDE8F08B13B5FF
:1003C0004FF000004FF00001AFF30080BDE81C408B
:1003D000704700000FB41CB5074B06AA7B44694662
:1003E0000090059800F075FC0020694600F084FC40
:1003F0001CBC5DF814FB0000190900002DE9F04158
:100400000646002410687529314616A510D0AFF3B2
:100410000080002802DA404213A507E031688A070D
:1004200001D512A502E0490704D511A5012401E078
:10043000AFF3008000210A2206F1240709E0B0FB97
:10044000F2FCB0FBF2F302FB1C003030785418468B
:10045000491C0028F3D123462A463046BDE8F04126
:1004600000F0C9B9000000002D0000002B000000C2
:10047000200000002DE9F0474FF0000A89460446AD
:10048000C0F820A02046E1688847002876D02528BB
:1004900006D0D4E901219047206A401C2062F1E790
:1004A000E168204600258847C4F81CA006460027BE
:1004B000C4F818A02A2E09D0304607F039FA38B30C
:1004C00004EB8708303EC8F8186019E059F8041B9F
:1004D000204604EB87029161E1688847012F0646B8
:1004E00018D1E069002820DA25F020051DE0D8F8B1
:1004F000180000EB800006EB40003038C8F8180008
:100500002046E1688847064607F012FA0028EED137
:10051000012F0AD02E2E08D12046E16888477F1C83
:100520000646022F45F02005C4DBA069002803DA47
:10053000404245F00105A061E80701D025F0100513
:10054000B6B1A6F14100192802D8203645F400655D
:100550004A463146204625604D46FFF777FE58B1A2
:10056000012806D0ED1D25F0070000F1080989E7F4
:1005700004E005F1040985E730468AE7206ABDE812
:10058000F08700000FB400B58DB010A9099000915C
:100590000B904FF0FF300A9000200C9006487844F2
:1005A0000690064878446A4607900F9909A800F01B
:1005B000AFFB0DB05DF814FB8F070000A70700002C
:1005C0002DE9FF5F4FF000089946144646469169B1
:1005D000D2E901A7DDF838B001988847054659EA05
:1005E0000B0005D009E0A1690198761C88470546F3
:1005F000216A284688470028F5D1681C03D05FEAA5
:10060000CA7005D015E04FF0FF3004B0BDE8F09F90
:100610002068011D2160D0F800800AE05FEACA70FE
:1006200001D108F8015BA169761C01987F1E8847FB
:100630000546002F1ADD681C18D0B9F1000F0DD047
:10064000E81705EBD060421120F01F0059F8221086
:100650002A1A012090400142E0D107E0BBF1000FCF
:10066000DCD12846216A88470028D7D0E169019863
:100670008847BBF1000F07D1002E05DD5FEACA7085
:1006800002D1002188F80010A068B84203DDBBF158
:10069000000F03D017B16FF00100B6E73046B4E7A2
:1006A00010B5431C02E010F8011B71B18107FAD1AB
:1006B0004FF0013202C88C1A8C4314EAC211F9D0EF
:1006C000C01A0A0603D0C01E10BDC01A10BD0A040D
:1006D00001D0801E10BD0902FCD0401E10BD4FF09D
:1006E00000020429C0F0128010F0030C00F01B80FF
:1006F000CCF1040CBCF1020F18BF00F8012BA8BF0D
:1007000020F8022BA1EB0C0100F00DB85FEAC17CD0
:1007100024BF00F8012B00F8012B48BF00F8012B83
:1007200070474FF0000200B51346944696462039B4
:1007300022BFA0E80C50A0E80C50B1F12001BFF49A
:10074000F7AF090728BFA0E80C5048BF0CC05DF800
:1007500004EB890028BF40F8042B08BF704748BF4E
:1007600020F8022B11F0804F18BF00F8012B7047C2
:100770004FF0013C50F8042B51F8043B9A4221D130
:10078000A2EB0C03934313EACC1317D150F8042BBC
:1007900051F8043B9A4215D1A2EB0C03934313EAA0
:1007A000CC130BD150F8042B51F8043B9A4209D1D9
:1007B000A2EB0C03934313EACC13DBD04FF0000001
:1007C000704700BFD01A01BAB1FA81F101F01801E7
:1007D00022FA01F0CB40C1F12001DBB2C0B2C01A55
:1007E0002CFA01F3D11A914311EAC311E6D17047F3
:1007F0007047704770472DE9F0470D46994692467D
:10080000044600F124080168880604D5E06921F057
:100810001001216000E00120A84201DD471B00E03B
:100820000027A1697A1902EB0900081AA061207853
:10083000C00602D42046AFF30080002608E0D4E9C9
:1008400001211AF806009047206A401C761C20629D
:100850004E45F4DB2078C0060AD52046AFF3008071
:1008600006E0D4E9012130209047206A401C206234
:10087000381EA7F10107F4DC07E0D4E9012118F8DC
:1008800005009047206A401C2062281EA5F1010542
:10089000F3DC2046AFF300802078000602D502206A
:1008A000BDE8F0870120FBE770472DE9FF4F0C46BC
:1008B0001E464FF0FF378BB0D2E90001DDF86080B3
:1008C0000A908A46C1F30A5505B93D4600210846FB
:1008D0004FF00000BAF1000F00F4400005DA00EB21
:1008E00080004FF4400101EA50004FEA9059B9F1FD
:1008F000010F00DDB9460A9850EA4A000ED044F6CE
:100900001050A5F2FF3545432F14B8F1000F1ED04B
:100910007542291E1EDDC9F100021CE0B8F1010F6D
:100920004FF0000001D0302103E0F24305E02154F4
:10093000401CB042FBDB30460022002121540B99C1
:10094000C1F80880C1E900200FB0BDE8F08FBD1BE1
:100950006D1CDEE74A4600DA694206A800F054FC46
:1009600006AB93E8070003AB83E8070050460A99FB
:1009700000F0FFFC8DE80700A0F500501F38009044
:100980000398002D0ADD42F21F014A460844002365
:1009900003A90390684600F068FF09E0A0F5005045
:1009A0004A461F38002303A90390684600F072FFEF
:1009B0008DE807000004000C03D04FF0FF30410821
:1009C00000E01046B8F1000F03D000220092154657
:1009D0001EE0751E05D400F0CFF9303262556D1E51
:1009E000F9D5B3460122084302D000227F1C04E05F
:1009F0002078302801D100227F1E002A099784D058
:100A00001DE0112D07DA00F0B7F9303262556D1C88
:100A100050EA0102F5D1084302D00098C8B10EE0B7
:100A20000021681E05E0235C625C63542254401E72
:100A3000491C8142F7DBAB46A81B401E09900020F1
:100A400004F80B000B98099AC0F80880C0E9002B45
:100A50007AE711264FF0000857E72DE9F04F884656
:100A60000446D21D22F0070191B0D1E90001CDE981
:100A70000A0106F029FF02460B98C00F01D02D2075
:100A800007E02068810701D52B2002E0202101EA40
:100A9000C000032A099001D0072A05DB034641461E
:100AA000204600F0B7F90BE12078800601D5E06917
:100AB00000E00620B8F1650F814606D0B8F1660F58
:100AC00018D0B8F1670F70D131E00020B9F1110FE3
:100AD000009001DB112301E009F101030AAA01A939
:100AE0000CA8FFF7E2FEDDE90C70002609F1010514
:100AF000834647E001204B4600904FF000470AAA8A
:100B000001A90CA8FFF7D1FEDDE90DB00C995D46F7
:100B1000002610B909F101000D18B9EB050003D446
:100B2000C0F1FF3609F10105A5EB09002BE0B9F191
:100B3000010F01DA4FF001090020B9F1110F009007
:100B4000484601DD112300E003460AAA01A90CA8CA
:100B5000FFF7ABFEDDE90C704D460026834620789A
:100B600000070AD4AB4500DA5D4601A8012D04DD7B
:100B7000411911F8011C302907D04F4502DA17F14D
:100B8000040F04DA012082460FE06D1EEEE7002F0D
:100B900002DCED1B3E4403E0781CA84200DD7D1C16
:100BA000B81B00F1010A4FF000472078000703D47A
:100BB000AA4501DB4FF0FF3A0021B7F1004F0DF1DC
:100BC00043088DF8431024D002202B23002F01DA94
:100BD0007F422D230A21021EA0F1010000DC5FB13B
:100BE00097FBF1FC97FBF1F201FB1C7C17460CF123
:100BF000300C08F801CDEEE7A8F101000370218860
:100C0000090501D5452100E06521A0F1010800F8A2
:100C1000011C09980FA9A1EB0807FF1D00B10120D5
:100C2000411901EBEA70A1693844081A401EA0611D
:100C30002078C00602D42046AFF30080099828B17E
:100C4000D4E901219047206A401C20622078C00628
:100C500022D52046AFF300801EE0002E04DBB34512
:100C600002DD01A8805D00E03020D4E90121904739
:100C7000206A401C2062761CAAF101005FEA000A8B
:100C80000AD100F075F8C0680168405CD4E9012120
:100C90009047206A401C2062281EA5F10105DCDC7B
:100CA00007E0D4E9012118F8010B9047206A401CA5
:100CB0002062381EA7F10107F3DC2046AFF3008065
:100CC000032011B041E6000001694A1C0261087866
:100CD000704700B58FB0CDE901310021059105497C
:100CE0007944CDE9031011466846FFF7C3FB0FB006
:100CF00000BD0000E5FFFFFF0A6802F8010B0A6073
:100D0000704700000268114413780160184670476C
:100D1000D160054979445161044979441162002147
:100D20001161114600F0B6B8EDFFFFFFE5000000CD
:100D3000426842B1016811F8013B23B1521EC0E97B
:100D40000012184670470121C160881E7047426832
:100D50005AB1C368016843B983688B4205D0491E04
:100D6000521CC0E90012002070474FF0FF3070475E
:100D7000004870479403002030B5B0F10A024FEAF2
:100D8000900E71F100034EEA817EB0EB0E0061EB34
:100D900091014FEA101E4EEA017E10EB0E0041EB6E
:100DA00011114FEA102E4EEA016E10EB0E0041EBCE
:100DB00011214FEA104E4EEA014E10EB0E0041EBAE
:100DC0001141401841F100014FEAD00040EA417062
:100DD0004FEAD10110EB80054FEA810444EA907498
:100DE00044EB01046D1944EB0404521BA3414FF082
:100DF000000348BF0A3200D530BD401C41F100015C
:100E000030BD10B5044600F09BFA0068005D00F0AC
:100E1000010010BD2DE9F0411F460446032601687C
:100E2000072A01F4006004DB08B116A505E016A549
:100E300003E008B115A500E015A521F01000206021
:100E4000A069C01EA0610FB1401EA0612046AFF393
:100E500000804FB1D4E9012138469047206A401CF8
:100E60002062C01C206206E0206AFAE7D4E9012172
:100E700015F8010B9047761EF8D22046AFF300809C
:100E8000BDE8F0814E414E006E616E00494E460055
:100E9000696E66002DE9F34F4FF0000A0C46564686
:100EA0008DB001200C9001F10C000B9062690B9841
:100EB00001219047051E2DD0252D2CD0216A884771
:100EC000C0B162690B9801219047216A88470028C8
:100ED000F7D16269411E0B98904700E0761CA1692A
:100EE0000D988847216A88470028F7D1E1690D9855
:100EF0008847DBE7A1690D988847A842074601D1DA
:100F0000761CD3E7E1690D9888477F1C02D1BAF1BE
:100F1000000F6FD06BE162690B9800273D463946A0
:100F200090472A2804D162690B9801219047012536
:100F3000DFF8D08262690B9801219047A0F130015F
:100F40000A290AD24745E5DC07EB870100EB410798
:100F5000303FDFD445F01005ECE7E90601D46FF02F
:100F600000476C280AD04C2814D0682815D06A286D
:100F70000DD074281CD07A281AD01DE062690B9815
:100F8000012190476C2802D045F0040514E045F09B
:100F900002050DE045F020050AE062690B98012189
:100FA0009047682802D045F0080505E045F4006543
:100FB00062690B9801219047C4E9015765283DD02B
:100FC00019DC58287AD00CDC452837D004DC2528D9
:100FD00026D041289ED131E046282FD0472899D1EC
:100FE0002CE05B2877D0612828D063287CD0642847
:100FF00023D15AE0F6E06F2848D008DC66281DD0DF
:1010000067281BD0692821D06E2816D127E07028C8
:1010100045D0732868D0752847D078280DD14DE089
:10102000A1690D988847252805463FF469AFE16915
:101030000D9888476D1C3FF46AAFD8E00D992346A0
:101040006A466FF00100AFF30080C5E045F0400054
:1010500023464FF000026060A80736D43EE0E80760
:101060007FF447AF2068011D21600068290501D584
:1010700006701BE7290701D5068017E7A90703D5E6
:10108000F117C0E9006111E706600FE745F0400085
:1010900023464FF008026060A80716D41EE040F611
:1010A0000E0125EA0100606016E045F0400023468D
:1010B0004FF00A026060A80707D40FE045F0400037
:1010C0006060A80708D5234610220D996FF0010033
:1010D000AFF3008080E007E0102223460D996FF007
:1010E0000100AFF3008077E04FF0000963284F461E
:1010F000C8464B46CB4602D05B2806D038E0E8060F
:1011000001D40120A060012732E06269D4F80CB05C
:101110000B98012190475E2807D14FF001094946FD
:101120006269D4F80CB00B989047216939B9002155
:101130000A4603AB43F82120491C0829FADBD8B33F
:10114000216949B308F1010862690B9801219047B0
:101150005D28F4D1B9F1000F09D0002003A951F89E
:101160002020D24341F82020401C0828F7DB03ABA5
:101170002069002820794FEA40701ED05B46224645
:10118000CDF80080CDE901970D9900286FF001009E
:1011900020DAAFF300801FE0C11703AA00EBD16192
:1011A0004B1121F01F0102EB8302411A1368012049
:1011B000884003431360C7E719E00D9922460028D1
:1011C0006FF00100009702DAAFF3008004E0FFF750
:1011D000F7F901E0AFF3008000280ADA401C06D1DD
:1011E0000C9820B14FF0FF300FB0BDE8F08F5046A3
:1011F000FAE7E90701D10AF1010A064400200C9040
:1012000054E60000CCCCCC0C2DE9F04781461646C4
:101210008AB0354878440DC88DE80D0032487844CE
:10122000801C03AC0DC884E80D0041F69B300844D7
:10123000372190FBF1F290FBF1F5A5F1800501FB60
:1012400012041B3C02D56442012000E00020DFF8BC
:1012500098A080460027FA44AAF1BE0A0EE0E007F3
:101260000AD03246684607EB470101230AEB8101A9
:1012700000F010FB8DE8070064107F1C002CEED1FD
:10128000194F7F44AE3F19E0E80715D007EB041073
:101290000DF1180A90E80E008AE80E00C068F042CE
:1012A00001D1981908903246012306A903A800F03D
:1012B000F1FA03AB83E807006D10641C002DE3D145
:1012C0004FF0010332466946B8F1000F03A802D07F
:1012D00000F0CBFA01E000F0DDFAC9E90001C9F83D
:1012E00008200AB0BDE8F0878884000000487047F5
:1012F000740300207546FFF7F9FFAE460500694606
:10130000534620F00700854618B020B5FEF7D8FFF9
:10131000BDE820404FF000064FF000074FF00008F6
:101320004FF0000B21F00701AC46ACE8C009ACE877
:10133000C009ACE8C009ACE8C0098D4670470000A0
:1013400010B5FFF715FD001D10BD00BFB96B000003
:1013500010B50446AFF300802046BDE81040FEF70C
:101360009ABF000001491820ABBEFEE7260002002C
:1013700070475FEA400C08BF91F0000F4FEA8C23E2
:101380004FEAC12243EA51514FEA1C5018BF00F501
:10139000F0404FEA300018BF41F000415FEA6C5C5A
:1013A00000F02980BCF1FF3F08BF40F0804070474B
:1013B000130C06BF12044FF0100C4FF0000C130E6C
:1013C00004BF12020CF1080C130F04BF12010CF140
:1013D000040C930F04BF92000CF1020CD30F04BF56
:1013E00052000CF1010C11464FF00002A0F11F0059
:1013F000A0EB0C00704711F0004F08BF704731F0B0
:1014000000413FF4D5AF0B0C06BF09044FF0100CA0
:101410004FF0000C0B0E04BF09020CF1080C0B0F6F
:1014200004BF09010CF1040C8B0F04BF89000CF1FF
:10143000020CCB0F04BF49000CF1010CCCF12003CE
:10144000A0EB0C0022FA03F302FA0CF241EA0301CA
:1014500000F10100704720F07F4C80EA030023F088
:101460007F47ACEB070303F57C5300F0004003F12A
:10147000FF032DE980494FEA154B09B44FEA1443A5
:1014800025EA0B4E24EA03480FF2042606EB132745
:1014900049083E785FEA320203FB0667C7F500079A
:1014A00007FB06F64FEA54374FEAD64606F1020626
:1014B00007FB066CCCF1005C4FEA1C472CEA074C9A
:1014C00007FB06F40CFB06F504EB15464FEA9616EF
:1014D00034BF00204FF000404FEAD13706FB07FC35
:1014E0004FEA1C4C0CFB0BF7D21B03FB0CF761EB18
:1014F00007010CFB0EF7B0EB074072EB17420CFB39
:1015000008F734BFA2EB0742B2EB074261EB174189
:101510004FEA0C444FEA910706FB07FC4FEA1C4CCC
:101520000CFB0BF7B0EBC74072EB573203FB0CF729
:1015300034BFA2EBC742B2EBC74261EB57310CFBA1
:101540000EF7B0EBC70072EB57720CFB08F734BF15
:10155000A2EBC702B2EBC70261EB5771039F4FEAE0
:10156000816141EA921104EBCC044FEAD1374FEA92
:10157000826206FB07FC42EA90124FEA80604FEA63
:101580001C4C0CFB0BF7D21B03FB0CF761EB0701A8
:101590000CFB0EF7B0EB074072EB17420CFB08F7A1
:1015A00034BFA2EB0742B2EB074261EB17414FEAAF
:1015B0008C554FEA910704EB9C2406FB07FC4FEA8D
:1015C0001C4C0CFB0BF7B0EBC74072EB573203FB24
:1015D0000CF734BFA2EBC742B2EBC74261EB573105
:1015E0000CFB0EF7B0EBC70072EB57720CFB08F761
:1015F00034BFA2EBC702B2EBC70261EB577115EB28
:101600004C254FEA816141EA92114FEA82624FEA2A
:10161000D13742EA901206FB07FC44F100044FEA7E
:1016200080604FEA1C4C0CFB0BF7D21B03FB0CF742
:1016300061EB07010CFB0EF7B0EB074072EB1742B2
:101640000CFB08F734BFA2EB0742B2EB074261EB99
:10165000174115EB1C154FEA813141EA92414FEADF
:10166000823242EA90424FEA80304FEA0C7644F1EF
:10167000000448EA03434EEA0B484FF0000EB2EB79
:10168000080C71EB030724BF624639464EEB0E0E81
:101690004FF0000B0018524149414BEB0B0BB2EBE2
:1016A000080C71EB03077BF1000B24BF624639463F
:1016B0004EEB0E0E4FF0000B0018524149414BEB20
:1016C0000B0BB2EB080C71EB03077BF1000B24BF93
:1016D000624639464EEB0E0E51EA020718BF46F03D
:1016E000010616EB0E7655F1000254F1000103D508
:1016F000BDE88901BDE80088BDE88901BDE8004872
:10170000B619524141EB0101A3F1010370478080FA
:101710007F7E7D7C7B7A797877767675747372714B
:1017200071706F6E6E6D6C6C6B6A6A696868676603
:1017300066656464636362616160605F5F5E5E5D95
:101740005D5C5C5B5B5A5A59595858575756565509
:1017500055555454535352525251515050504F4F6B
:101760004F4E4E4D4D4D4C4C4C4B4B4B4A4A4A49BB
:1017700049494848484747474746464645454544FE
:101780004444444343434342424242414141002B8B
:101790009C4630D477002BD01CB54FEA370703B4F2
:1017A0004FF010004FF01001BAF1000F06D0BCF15D
:1017B000000FDCBF40F0080040F008014FF00000CF
:1017C0000FBCBDE810400BF1010BBBF1010F08BFCE
:1017D0005FEA170722BF12F1010211F101014FF078
:1017E000004143F1000300F0004043EA000070476D
:1017F000F9D35708D0E746EA064613F1400F4FEAFF
:1018000016461FDD13F1200FDFBF16430A460021E5
:1018100020335B42BED0C3F1200746EA064602FAF7
:1018200007F74FEA164646EA0706C3F1200722FAF1
:1018300003F201FA07F721FA03F14FF0000342EA3D
:101840000702A7E746EA020646EA06464FEA1646B8
:1018500046EA0106BCBF46EA0646360C4FF00003D6
:101860004FF000024FF0000194E72DE9804C9A46BA
:10187000934670B491E8380007C831EA400C48BF7D
:1018800034EA430C03D5FFF7E6FDFFF780FFF0BC19
:10189000BDE8008C2DE9804C9A46934670B491E8DF
:1018A000380007C810F0804F08BF13F0804F03D1F5
:1018B00000F005F8FFF76BFFF0BCBDE8008C20F0EE
:1018C0007F4780EA030023F07F4C07EB0C03A3F56E
:1018D0007C5300F00040A3F1FE0392F0000F00F0F3
:1018E000B38095F0000F00F077802DE901494FEAB1
:1018F00011404FEA144621EA004800FB06FC24EAA6
:10190000064708FB06F607FB08F800FB07F718EB8D
:1019100006484CEB164C4FEA124B18EB07484FEABF
:1019200015464CEB174022EA0B4E0BFB06FC25EA52
:1019300006470EFB06F607FB0EFE0BFB07F71EEB3A
:10194000064E4CEB164C4FF000061EEB074E4CEBD0
:10195000174B18EB0B0840F1000018EB0E0B58EB7F
:10196000000840F100008F1A4FF000013CBFC9434E
:10197000661B14BFB5EB040C00213CBFC943F61B2A
:101980004FEA17444EEA8E0E27EA04454FEA1C47F9
:1019900004FB07622CEA074C05FB07F70CFB05F676
:1019A00004FB0CFC16EB074642EB174216EB0C4609
:1019B00042EB1C421BEB060658EB0202414146EA91
:1019C0009E0601D5BDE80189B619524141EB0101DE
:1019D000A3F10103BDE801894FEA14454FEA11471D
:1019E00024EA054621EA074C05FB07F406FB07F746
:1019F0000CFB06F105FB0CFC11EB074144EB174413
:101A00004FEA124711EB0C4144EB1C4422EA074C0D
:101A100005FB07F206FB07F70CFB06F605FB0CFCC3
:101A200016EB074642EB174216EB0C4642EB1C4501
:101A30006A1854F1000148BF7047B619524141EB92
:101A40000101A3F10103704795F0000F37D04FEA71
:101A500011424FEA144721EA024624EA074C02FBEE
:101A600007F106FB07F70CFB06F402FB0CFC14EB7A
:101A7000074441EB17414FEA154714EB0C4441EB87
:101A80001C4125EA074C02FB07F506FB07F70CFB98
:101A900006F602FB0CFC16EB074645EB174516EB6A
:101AA0000C4645EB1C42121951F1000148BF70472A
:101AB000B619524141EB0101A3F1010370474FEA0E
:101AC00014454FEA114724EA054621EA074C05FB75
:101AD00007F106FB07F70CFB06F24FF0000605FBCB
:101AE0000CFC12EB074241EB174112EB0C4251EB9D
:101AF0001C4148BF7047921841EB0101A3F101035B
:101B00007047000038B5044600200090206803F0BC
:101B1000C6FE00284FD1206880682849084048B197
:101B2000E06D40F01000E065206E40F0010020669E
:101B3000012038BD206803F097FE00BF2048806870
:101B400000F0E07000F4000080B11E4800681E49FB
:101B5000B0FBF1F0401C00EB40008000009002E080
:101B60000098401E009000980028F9D100F02EFF48
:101B700005461AE0206803F092FE10B9206803F0D1
:101B800073FE00F023FF401B02280ED92068006876
:101B900000F0010048B9E06D40F01000E065206EF3
:101BA00040F0010020660120C3E72068006800F0D3
:101BB00001000028DED00020BBE700003F000080CD
:101BC0000003005024000020400D030000BFFEE78A
:101BD0007047002109E0002201E0531C9AB240F650
:101BE000B8339A42F9DB4B1C99B28142F3DB704760
:101BF00072B600BFFEE700002DE9F0439BB004463B
:101C00000E464FF00008306800B100BF00BF94F8E6
:101C10005800012803D102201BB0BDE8F083012049
:101C200084F8580000BF0020179018902068B0F189
:101C3000A04F02D13148009001E0002000900098B0
:101C400050B9E06D40F02000E06500BF002084F84E
:101C5000580000BF0120DFE7009803F034FE07467C
:101C6000206803F030FED8BBD7BB254D306800B3E9
:101C700094F83800716841EA4030A96821F4604165
:101C80000843A8604FF0A04003F00EFE81461B48B9
:101C900003F00AFE49EA0009B9F1000F27D1B16843
:101CA00030680843A96840F61F7291430843A86052
:101CB0001DE0A86820F46040A8604FF0A04003F049
:101CC000F3FD81460D4803F0EFFD49EA0009B9F143
:101CD000000F0CD1A86840F61F718843A86006E089
:101CE000FFE7E06D40F02000E0654FF0010800BF25
:101CF000002084F8580000BF40468DE700010050E6
:101D0000000300502DE9F84F05460C464FF0000A3D
:101D100000200090FE49E068884200D000E000BF4B
:101D200000BF95F85800012802D10220BDE8F88FC5
:101D3000012085F8580000BF286803F0BFFD002887
:101D40007DD12968D4E9002001F1300CC0F3012BCA
:101D50000CEB8B03D3F800C000F01F0E4FF01F0BED
:101D60000BFA0EFB2CEA0B0C00F01F0BC2F3846E77
:101D70000EFA0BFE4CEA0E0CC3F800C000BF286838
:101D800003F09CFD8146286803F084FD8046B9F18C
:101D9000000F64D1B8F1000FFBD1A068B0F1004F83
:101DA0000AD121680022286803F09AFD4FF0004113
:101DB000286803F0BAFD08E0A2682168286803F0EB
:101DC0008FFD0021286803F0B0FD60692968C968AB
:101DD000C1F3C101490000FA01F7206904283FD08E
:101DE00028682268216900F1600C0CEB8103D3F8AC
:101DF00000C0DFF820B30CEA0B0C02F0F84B4BF0FC
:101E0000004B4BEA070B4CEA0B0CC3F800C000BFB9
:101E10002868A269216900F1600C0CEB8103D3F8FA
:101E200000C02CF0807C4CEA020CC3F800C000BF5C
:101E30002868227F2169012A02D1520601E0C6E109
:101E40000022134600F1600C0CEB8102D2F800C0B6
:101E50002CF0007C4CEA030CC2F800C000BFA7E0E5
:101E60000021286803F00DFDC0F3120030B90021F5
:101E7000286803F006FDC0F3846007E000212868AD
:101E800003F0FFFC90FAA0F0B0FA80F02168C1F3F3
:101E9000120119B92168C1F3846104E0216891FA43
:101EA000A1F1B1FA81F1884204D1002211462868DB
:101EB00003F030FD0121286803F0E3FCC0F31200B9
:101EC00030B90121286803F0DCFCC0F3846007E02E
:101ED0000121286803F0D5FC90FAA0F0B0FA80F058
:101EE0002168C1F3120119B92168C1F3846104E0CA
:101EF000216891FAA1F1B1FA81F1884204D100225E
:101F00000121286803F006FD0221286803F0B9FCCE
:101F1000C0F3120030B90221286803F0B2FCC0F30C
:101F2000846007E00221286803F0ABFC90FAA0F07F
:101F3000B0FA80F02168C1F3120119B92168C1F328
:101F4000846104E0216891FAA1F1B1FA81F188423B
:101F500004D100220221286803F0DCFC0321286858
:101F600003F08FFCC0F3120030B90321286803F09E
:101F700088FCC0F3846007E00321286803F081FC3B
:101F800090FAA0F0B0FA80F02168C1F3120119B9FB
:101F90002168C1F3846104E0216891FAA1F1B1FAEA
:101FA00081F1884204D100220321286803F0B2FCA9
:101FB000286803F074FC002872D12868E268216860
:101FC000D0F8B030C1F3120C23EA0C0302F0180B66
:101FD000DFF844C12CFA0BFC0CEA010C43EA0C03B9
:101FE000C0F8B03000BF4A49E068884258D1236841
:101FF000C3F312031BB92368C3F3846304E02368AB
:1020000093FAA3F3B3FA83F35B1C03F01F03092BCA
:102010003ED82368C3F312031BB92368C3F3846358
:1020200004E0236893FAA3F3B3FA83F35B1C03F091
:102030001F034FF0010C0CFA03FC2368C3F31203D7
:102040001BB92368C3F3846304E0236893FAA3F302
:10205000B3FA83F35B1C03F01F034CEA836C236821
:10206000C3F312031BB92368C3F3846304E023683A
:1020700093FAA3F3B3FA83F35B1C03F01F0303EBA0
:1020800043034FF0000B4BEA03534CEA030347E0D2
:102090002368C3F3120323B92368C3F3846305E001
:1020A00043E0236893FAA3F3B3FA83F35B1C03F0D2
:1020B0001F034FF0010C0CFA03FC2368C3F3120357
:1020C0001BB92368C3F3846304E0236893FAA3F382
:1020D000B3FA83F35B1C03F01F034CEA836C2368A1
:1020E000C3F312031BB92368C3F3846304E02368BA
:1020F00093FAA3F3B3FA83F35B1C03F01F030A3BC9
:1021000003EB43034FF0007B4BEA035306E0000070
:1021100000007F4000F0FF03FFFF07004CEA0303CD
:102120001946A268286803F0DBFB2F4920680840A5
:1021300050B300BF2D48806800F0E07600BF2C4906
:102140002068884203D02B49206888421DD106F4BC
:102150000000D0B92868B0F1A04F3ED146F400018C
:10216000224803F0D1FB244800682449B0FBF1F079
:10217000401C00EB40008000009002E00098401EF0
:10218000009000980028F9D127E01D492068884276
:102190000CD106F0807048B91A49286888421CD0D2
:1021A00046F08071114803F0AFFB16E01649206835
:1021B000884212D106F4800078B912492868884212
:1021C0000BD046F48001094803F09EFB05E0E86D62
:1021D00040F02000E8654FF0010A00BF002085F8BC
:1021E000580000BF5046A1E50000088000030050E1
:1021F000000021C31000C09024000020400D030007
:10220000000052C700010050000084CB014608685E
:10221000006C70472DE9F84304464FF00008002099
:10222000009014B90120BDE8F883606920B194F8EA
:102230002400012800D100BFE06D30B9204600F035
:1022400017F90020206684F8580020688168C1F3DF
:10225000407131B1206881687E4A1140816000BFC1
:1022600000BF206803F025FBB0B9206881687A4A76
:10227000114041F08051816000BF78480068784982
:10228000B0FBF1F0401C4000009002E00098401EBE
:10229000009000980028F9D1206803F00AFB48B9A3
:1022A000E06D40F01000E065206E40F00100206617
:1022B0004FF00108206803F001FB0646E06D00F0D6
:1022C0001000002877D1002EFCD1E06D20F4807042
:1022D00040F00200E065206803F0E1FAB0B94FF089
:1022E000A04003F0DCFA81465E4803F0D8FA49EAE0
:1022F0000009B9F1000F09D160685B49896821F4D0
:102300007C110143584A916000BF00BF607FE16BC0
:1023100041EA4030E1680843A168084394F824107A
:1023200040EA014594F82400012803D1208D401E85
:1023300045EA4045E06A28B1A08D00F47870216B31
:10234000084305432068C06848490840284321687D
:10235000C8602068006920F04060616B0843216814
:102360000861206803F096FA0746002E50D1EFBBB3
:10237000207F002141EA803194F8380041EA40058D
:102380002068C06844F20201884328432168C8607D
:10239000206988B12068006940F4803021680861B4
:1023A0002068D0F8C0006FF30D0021690843216850
:1023B000C1F8C0000EE045E02068006920F48030DC
:1023C000216808612068D0F8C0006FF30D00216813
:1023D000C1F8C00094F84000012813D1606C40F0AF
:1023E0000101A06C0843E16C084300E010E0216D9E
:1023F00008432168096940F2FC729143084321684F
:10240000086105E02068006920F00100216808618A
:102410006069012809D12068006B20F00F00216A53
:10242000491E08432168086305E02068006B20F01E
:102430000F0021680863E06D20F0020040F0010009
:10244000E06505E0E06D40F01000E0654FF0010848
:102450004046E8E6C0FFFF5FC0FFFF7F240000208A
:10246000400D030000010050000300500740F0FF42
:1024700010B598B00446142113A8FEF752F9442170
:1024800002A8FEF74EF92068B0F1A04F3AD14FF400
:10249000004002908003119002A800F003FC08B1F4
:1024A000FFF7A6FB37480068401C3649086008461D
:1024B000006801280DD100BF3348C06C40F40050C3
:1024C0003149C8640846C06C00F40050019000BF58
:1024D00000BF00BF2C48C06C40F002002A49C8640D
:1024E0000846C06C00F00200019000BF00BF8814D5
:1024F0001390032014900020159013A9234800F096
:1025000071F93DE022492068884239D1C00102902A
:102510008003119002A800F0C5FB08B1FFF768FB2B
:1025200018480068401C17490860084600680128E0
:102530000DD100BF1448C06C40F400501249C8646B
:102540000846C06C00F40050019000BF00BF00BFFF
:102550000D48C06C40F002000B49C8640846C06CCE
:1025600000F00200019000BF00BF4FF40040139044
:10257000032014900020159013A9044800F032F9AC
:1025800018B010BD140000200010024000040048E4
:10259000000100502DE9F0410446434803F06CF976
:1025A0000646206803F08AF900287AD100BF94F823
:1025B0005800012802D10220BDE8F081012084F8F2
:1025C000580000BF2046FFF79DFA0546002D63D155
:1025D000E06D40F60161884340F48070E065334966
:1025E0002068884202D14FF0A04000E020682168B6
:1025F000884200D01EB9E06D20F48010E065E06DE7
:1026000000F48050B0F5805F04D1206E20F0060009
:10261000206601E0002020661C202168086000BFC1
:10262000002084F8580000BF20492068884202D169
:102630004FF0A04000E020682168884204D01EB11D
:10264000052E01D0092E0ED12068C06800F0007060
:1026500028B1E06D20F4005040F48050E06520681F
:1026600003F036F91EE0E06D40F48010E0650F499C
:102670002068884202D14FF0A04000E02068074661
:10268000F86800F0007068B1E06D20F4005040F48C
:102690008050E06506E004E000BF002084F85800A8
:1026A00000E00225284687E70003005000010050A3
:1026B0000146002091F82520022A03D00422CA6393
:1026C000012027E00A68126822F00E020B681A60E7
:1026D0008A6C126822F480728B6C1A600A68126825
:1026E00022F001020B681A6091F8442002F01F03E7
:1026F00001229A400B6C5A60D1E913325A604A6D3C
:1027000042B14A6D126822F480724B6D1A60D1E9B1
:1027100016325A60012281F8252000BF002281F87C
:10272000242000BF704770B50446002594F82500AA
:1027300002280BD00420E063012084F8250000BFAC
:10274000002084F8240000BF012534E020680068E0
:1027500020F00E00216808602068006820F0010069
:1027600021680860A06C006820F48070A16C08608B
:1027700094F8440000F01F0101208840216C48605B
:10278000D4E913104860606D40B1606D006820F4BA
:102790008070616D0860D4E916104860012084F8EB
:1027A000250000BF002084F8240000BFA06B10B1FA
:1027B0002046A16B8847284670BD000070B50446CE
:1027C00000F004F906462546681C10B1044800686C
:1027D000054400BF00F0FAF8801BA842FAD370BD90
:1027E0002000002078B502460B460021CAE00126F1
:1027F0008E401D6805EA0604002C73D01D7905F093
:102800000305012D04D01D7905F00305022D13D118
:1028100090684E000325B540A8434E00DD68B540E2
:1028200028439060506801258D40A8431D79C5F369
:1028300000158D40284350601D7905F00305032DD8
:1028400009D0D0684E000325B540A8434E009D68CE
:10285000B5402843D0601D7905F00305022D13D142
:10286000CE0802F1200555F826004D07EE0E0F2583
:10287000B540A8434E07F60E1D69B5402843CE0863
:1028800002F1200545F8260010684E000325B540EA
:10289000A8431D7905F003054E00B540284310609C
:1028A0005D6805F44035002D6BD000BF384D2D6EAE
:1028B00045F00105364E356635462D6E05F00105AD
:1028C000009500BF00BF4FEAB6358E0855F82600C8
:1028D0008D072E0F0F25B540A843B2F1904F02D1BE
:1028E00000251AE04DE02B4DAA4201D1012514E04C
:1028F000294DAA4201D102250FE0284DAA4201D15B
:1029000003250AE0264DAA4201D1042505E0254D04
:10291000AA4201D1052500E006258E07360FB540F5
:102920002843214D8E0845F82600204D2868A043F5
:102930005D6805F4801505B120431C4D28602D1DF0
:102940002868A0435D6805F4001505B12043174DC4
:102950002D1D2860154D2D1F2868A0435D6805F4C6
:10296000003505B12043114D2D1F28602D1F28680B
:10297000A0435D6805F4803505B120430B4D083D4B
:102980002860491C1D68CD40002D7FF430AF78BD14
:10299000001002400004004800080048000C0048F5
:1029A00000100048001400480800014008040140DD
:1029B000024613690B400BB1012000E00020704774
:1029C0000AB1816100E0816270470000014800683F
:1029D0007047000018000020034800680349096898
:1029E00008440149086070471800002020000020BA
:1029F00010B50024032000F0ABF80F2000F008F819
:102A000008B1012401E000F02FF8204610BD0000BD
:102A100070B50446002511480068D8B10F48006819
:102A20004FF47A71B1FBF0F00D490968B1FBF0F693
:102A3000304600F025FF58B9102C07D2002221465D
:102A4000501E00F047F80748046004E0012502E04A
:102A5000012500E00125284670BD0000200000206F
:102A6000240000201C00002008B500BF0E48006EA6
:102A700040F001000C4908660846006E00F00100B5
:102A8000009000BF00BF00BF0846806D40F080503E
:102A900088650846806D00F08050009000BF00BF40
:102AA00000F0F6F808BD000000100240014608469C
:102AB00000280DDB00BF00BF00F01F0301229A4079
:102AC00043099B0003F1E023C3F8002100BF00BFCE
:102AD00000BF70472DE9F05F80460D46164604F0B2
:102AE0000BFF074639462A46334601F00700C0F17E
:102AF000070ABAF1040F02D94FF0040A01E0C0F14D
:102B0000070AD14600F1040ABAF1070F02D24FF0CA
:102B1000000A01E0A0F1030AD4464FF0010A0AFAC4
:102B200009FAAAF1010A0AEA020A0AFA0CFA4FF0B3
:102B3000010B0BFA0CFBABF1010B0BEA030B4AEA9E
:102B40000B042146404604F0DFFEBDE8F09F000084
:102B500000BF00F00702064B19684FF6FF0319404B
:102B6000044B0B4343EA0221014B196000BF70473D
:102B70000CED00E00000FA0502468ABB41480068FF
:102B800000F4C060B0F5806F2BD13E488030006803
:102B900020F480703B4BC3F880001846006820F496
:102BA000C06040F400701860374800683223584312
:102BB000364BB0FBF3F0411C00E0491E3148406940
:102BC00000F48060B0F5806F01D10029F5D12D4867
:102BD000406900F48060B0F5806F51D103207047E8
:102BE00008E028488030006820F48070254BC3F846
:102BF000800045E0B2F5007F3AD12248006800F439
:102C0000C060B0F5806F2AD11E488030006840F463
:102C100080701C4BC3F880001846006820F4C06028
:102C200040F4007018601848006832235843174B6E
:102C3000B0FBF3F0411C00E0491E1248406900F46B
:102C40008060B0F5806F01D10029F5D10D48406951
:102C500000F48060B0F5806F12D10320BFE709480F
:102C60008030006840F48070064BC3F8800007E0B5
:102C70000448006820F4C06040F48060014B186094
:102C80000020ACE7007000402400002040420F000C
:102C90000348806840F48040014988607047000024
:102CA000007000402DE9F84304460027B84620682C
:102CB00000F40020B0F5002F73D1B946D348806DE1
:102CC00000F0805078B900BFD048806D40F080504F
:102CD000CE4988650846806D00F08050009000BFA6
:102CE00000BF4FF00109CA48006840F48070C8492D
:102CF0000860FFF76BFE064606E0FFF767FE801BE5
:102D0000022801D9032705E0C148006800F480705B
:102D10000028F2D000BF002F46D1BC489030006898
:102D200000F44075CDB1206CA84216D0B748903061
:102D3000006820F44075B548D0F8900040F4803029
:102D4000B249C1F890000846D0F8900020F48030D5
:102D5000C1F890000846C0F8905005F00100A0B1FD
:102D6000FFF734FE064608E0FFF730FE801B41F215
:102D70008831884201D9032706E0A44890300068D2
:102D800000F002000028EFD000BF5FB99F489030EC
:102D9000006820F44070216C08439C49C1F8900001
:102DA00003E00CE0B84600E0B846B9F1010F05D1E8
:102DB0009648806D20F080509449886500BF207847
:102DC00000F0010048B191488830006820F003000D
:102DD000616808438D49C1F88800207800F002003E
:102DE000022809D189488830006820F00C00A168C9
:102DF00008438649C1F88800207800F004000428C0
:102E000009D182488830006820F03000E16808432A
:102E10007E49C1F88800207800F00800082809D110
:102E20007A488830006820F0C0002169084377495B
:102E3000C1F88800207800F02000202809D17348CC
:102E40008830006820F44060616908436F49C1F828
:102E50008800207800F04000402809D16B48883075
:102E6000006820F44050A16908436849C1F888000F
:102E7000207800F08000802809D1644888300068FC
:102E800020F44040E16908436049C1F88800208887
:102E900000F48070B0F5807F09D15C48883000680C
:102EA00020F44030216A08435849C1F8880020883E
:102EB00000F40070B0F5007F09D1544888300068F4
:102EC00020F44020616A08435049C1F888002088F6
:102ED00000F48060B0F5806F13D14C4888300068F2
:102EE00020F44010A16A0843484988310860A06A6C
:102EF000B0F5801F05D14548C06840F480104349B3
:102F0000C860208800F40060B0F5006F13D13F481E
:102F10008830006820F44000E16A08433B4988316A
:102F20000860E06AB0F5800F05D13848C06840F409
:102F300080103649C860208800F48050B0F5805F6A
:102F400013D132488830006820F04070216B08436C
:102F50002E4988310860206BB0F1807F05D12B4865
:102F6000C06840F480102949C860208800F40050EF
:102F7000B0F5005F13D125488830006820F040602C
:102F8000616B0843214988310860606BB0F1006FC4
:102F900005D11E48C06840F480101C49C8602088D4
:102FA00000F48040B0F5804F13D118488830006895
:102FB00020F04060A16B0843144988310860A06B81
:102FC000B0F1006F05D11148C06840F480100F497E
:102FD000C860208800F40040B0F5004F13D10B48C2
:102FE0008830006820F04050E16B08430749883181
:102FF0000860E06BB0F1805F05D10448C06840F420
:1030000080300249C8604046BDE8F88300100240A5
:10301000007000402DE9F04104460D464FF00008D5
:1030200014B90120BDE8F0817D48006800F00F0070
:10303000A8420ED27A48006820F00F002843784951
:1030400008600846006800F00F00A84201D0012087
:10305000E8E7207800F00100002864D060680328C9
:1030600023D17048006800F0007008B90120D9E74A
:1030700002F044FF06466C48864237D969488068AA
:1030800000F0F00030B1207800F0020002282DD1CD
:10309000A06858BB6348806820F0F00040F08000D2
:1030A000604988604FF0800820E06068022806D1FF
:1030B0005C48006800F4003040B90120B2E759488C
:1030C000006800F4806008B90120ABE700F0DEF88A
:1030D00006465548864209D95248806820F0F000DB
:1030E00040F080004F4988604FF080084D4880686C
:1030F00020F00300616808434A498860FFF766FCD6
:10310000074608E0FFF762FCC01B41F288318842A5
:1031100001D9032086E74348806800F00C0061680D
:10312000B0EB810FEED1207800F00200022820D110
:10313000207800F00400042805D13A48806840F463
:10314000E06038498860207800F00800082807D13E
:103150003448806820F4605040F4E0603149886071
:103160003048806820F0F000A16808432D4988604D
:1031700008E0B8F1800F05D12A48806820F0F000FF
:10318000284988602648006800F00F00A84219D935
:103190002348006820F00F00284321490860FFF70A
:1031A00015FC074608E0FFF711FCC01B41F288310F
:1031B000884201D9032035E71948006800F00F0064
:1031C000A842F0D1207800F00400042807D1154867
:1031D000806820F4E060E168084312498860207844
:1031E00000F00800082808D10E48806820F46050DC
:1031F000216940EAC1000B49886000F047F809499D
:103200008968C1F30311094A515C01F01F01C840EC
:103210000749086007480068FFF7FAFB02E700006B
:10322000002002400010024000B4C4043A840008A8
:10323000240000201C0000200148006870470000A6
:103240002400002000B5FFF7F7FF05498968C1F3A6
:103250000221044A515C01F01F01C84000BD00007A
:10326000001002404A84000800B5FFF7E5FF054959
:103270008968C1F3C221044A515C01F01F01C840B2
:1032800000BD0000001002404A84000870B5224DC5
:10329000AD6805F00C05042D01D120483AE01E4D23
:1032A000AD6805F00C05082D01D11D4832E01A4D1E
:1032B000AD6805F00C050C2D2BD1174DED6805F010
:1032C0000304154DED68C5F303156A1C022C0CD0E0
:1032D000032C09D1124DB5FBF2F50F4EF668C6F37B
:1032E000062605FB06F10AE000BF0C4DB5FBF2F522
:1032F000094EF668C6F3062605FB06F100BF00BFBF
:10330000054DED68C5F341656D1C6B00B1FBF3F035
:1033100000E0002070BD0000001002400024F40016
:1033200000366E012DE9F843044614B90120BDE8CA
:10333000F883207800F00100002865D0FC48806800
:1033400000F00C07FA48C06800F003060C2F01D10A
:10335000032E01D0082F0AD1F548006800F4003090
:10336000002851D0606800284ED10120DFE700BF5F
:103370006068B0F5803F06D1ED48006840F48030C9
:10338000EB4908601AE06068B0F5A02F0BD1E8485F
:10339000006840F48020E64908600846006840F470
:1033A000803008600AE0E248006820F48030E0499C
:1033B00008600846006820F48020086000BF60684C
:1033C00088B1FFF703FB054606E0FFF7FFFA401B55
:1033D000642801D90320AAE7D548006800F400302A
:1033E0000028F2D010E0FFF7F1FA054606E0FFF7FB
:1033F000EDFA401B642801D9032098E7CC48006807
:1034000000F400300028F2D1207800F002000228F9
:1034100060D1C748806800F00C07C548C06800F05C
:1034200003060C2F01D1022E01D0042F18D1C04861
:10343000006800F4806018B1E06808B9012076E700
:10344000BB48406820F0FE40217C40EA0160B8495A
:103450004860B8480068FFF7DBFA18B3012066E758
:10346000E06800B3B248006840F48070B04908607A
:10347000FFF7ACFA054606E0FFF7A8FA401B022862
:1034800001D9032053E7AA48006800F480600028AF
:10349000F2D0A748406820F0FE40217C40EA01605D
:1034A000A349486016E0A248006820F48070A04953
:1034B0000860FFF78BFA054606E0FFF787FA401B26
:1034C000022801D9032032E79948006800F480609F
:1034D0000028F2D1207800F00800082836D1606971
:1034E000D0B193489430006840F001009049C1F891
:1034F0009400FFF76BFA054606E0FFF767FA401BFA
:10350000022801D9032012E789489430006800F0AE
:1035100002000028F1D019E085489430006820F0BE
:1035200001008349C1F89400FFF750FA054606E010
:10353000FFF74CFA401B022801D90320F7E67C482C
:103540009430006800F002000028F1D1207800F0EB
:103550000400042872D14FF000087548806D0121E5
:1035600021EA107078B100BF7148806D40F0805042
:103570006F4988650846806D00F08050009000BF5C
:1035800000BF4FF001086C48006800F48070B0B9CB
:103590006948006840F4807067490860FFF716FAD0
:1035A000054606E0FFF712FA401B022801D9032066
:1035B000BDE66148006800F480700028F2D000BFCA
:1035C000A068012808D15A489030006840F00100F6
:1035D0005749C1F8900021E0A06805280FD1544850
:1035E0009030006840F004005149C1F8900008464E
:1035F000D0F8900040F00100C1F890000EE04C4877
:103600009030006820F001004949C1F89000084658
:10361000D0F8900020F00400C1F8900000BFA0682E
:10362000A8B1FFF7D3F9054609E0FFF7CFF9401B32
:1036300041F28831884202D9032078E625E03C48EF
:103640009030006800F002000028EED013E0FFF791
:10365000BDF9054608E0FFF7B9F9401B41F2883192
:10366000884201D9032062E631489030006800F0BA
:1036700002000028EFD1B8F1010F05D12C48806D70
:1036800020F080502A49886500BF207800F0200093
:10369000202836D1A069D0B125489830006840F084
:1036A00001002349C1F89800FFF790F9054606E0AC
:1036B000FFF78CF9401B022801D9032037E61C488C
:1036C0009830006800F002000028F1D019E0184896
:1036D0009830006820F001001549C1F89800FFF704
:1036E00075F9054606E0FFF771F9401B022801D97C
:1036F00003201CE60E489830006800F00200002805
:10370000F1D1E069002860D00948806800F00C0021
:103710000C287AD0E069022858D10548006820F0CA
:10372000807003490860FFF751F905460DE000007D
:10373000001002401C00002000700040FFF746F916
:10374000401B022801D90320F1E54A48006800F037
:1037500000700028F2D1D4E90810401E41EA00119F
:10376000A06A41EA0021208E0122C2EB500041EA0A
:1037700040513420005DC2EB500041EA40612C20F2
:10378000005D41EAC0603B49C9683B4A11400843BB
:103790003849C8600846006840F0807008600846F4
:1037A000C06840F08070C860FFF710F9054606E079
:1037B000FFF70CF9401B022801D90320B7E52D487B
:1037C000006800F000700028F2D051E0294800683D
:1037D00020F0807027490860FFF7F8F8054606E0FA
:1037E000FFF7F4F8401B022801D903209FE5214888
:1037F000006800F000700028F2D11E48C0681F4920
:1038000008401C49C86033E0FFE7E069012800D1A7
:103810008DE51848C66806F00301206A814225D16B
:1038200006F0F001606A401EB1EB001F1ED106F4E5
:10383000FE41A06AB1EB002F18D106F078412C2090
:10384000005DB1EBC06F11D106F4C001208E0122E2
:10385000C2EB5000B1EB405F08D106F0C0613420EC
:10386000005DC2EB5000B1EB406F01D001205EE57E
:1038700000205CE5001002400C809F01FCFFEEFE82
:1038800070B504462546681EB0F1807F01D3012043
:103890000FE0681E4FF0E02148610F214FF0FF302C
:1038A00004F032F800204FF0E02188610720086121
:1038B000002070BD704770477047000010B5034688
:1038C000002200BF93F83C00012801D1022010BD66
:1038D000012083F83C0000BF22F0FF00CC6840EAE2
:1038E000040222F440708C6840EA040222F48060F2
:1038F0004C6840EA040222F400600C6840EA0402CA
:1039000022F480500C6940EA040222F400504C6911
:1039100040EA040222F480400C6B40EA040222F4E4
:1039200070200C8B40EA044222F08050CC6940EABF
:103930000402124C1868A04203D0114C1868A0422F
:1039400013D122F470000C8D40EA045222F08070F2
:103950000C6A40EA040222F000704C6A40EA040259
:1039600022F00050CC6A40EA04021868426400BFAA
:10397000002083F83C0000BF00BFA8E7002C0140F6
:1039800000340140704770477047000030B5024670
:103990000B4600BF92F83C00012801D1022030BD47
:1039A000012082F83C0000BF022082F83D00106830
:1039B0004168106884681D4D1068A84203D01C4DF2
:1039C0001068A84203D121F47001586801431948D6
:1039D00001401868014310684160144D1068A84206
:1039E00013D01068B0F1804F0FD0134D1068A8426B
:1039F0000BD0124D1068A84207D00D4D1068A84298
:103A000003D00F4D1068A84205D124F080049868B7
:103A1000044310688460012082F83D0000BF00204C
:103A200082F83C0000BF00BFB9E70000002C014055
:103A3000003401408FFFFFFD0004004000080040FB
:103A400000400140704710B504460CB9012010BD7C
:103A500094F83D0028B9002084F83C00204600F08E
:103A600029F8022084F83D00211D206802F0C6FCE0
:103A7000012084F8480000BF84F83E0001213F2067
:103A80000155402001554120015542200155432058
:103A9000015500BF00BF012084F8440045200155B6
:103AA000462001554720015500BF012084F83D0004
:103AB0000020CCE710B586B00446142101A8FCF71D
:103AC00030FE2068B0F1804F32D100BF5348806D86
:103AD00040F00100514988650846806D00F0010002
:103AE000009000BF00BF00BF0846C06C40F001005E
:103AF000C8640846C06C00F00100009000BF00BF21
:103B00004FF40040019002200290002003900490A6
:103B10000120059001A94FF09040FEF763FE0022BE
:103B200011461C20FEF7D6FF1C20FEF7BFFF73E0F6
:103B30003B492068884230D100BF3848806D40F052
:103B40000200364988650846806D00F0020000904A
:103B500000BF00BF00BF0846C06C40F00200C86450
:103B60000846C06C00F00200009000BF00BF1020AB
:103B70000190022002900020039004900220059002
:103B800001A92848FEF72EFE002211461D20FEF74F
:103B9000A1FF1D20FEF78AFF3EE0234920688842EE
:103BA00016D100BF1D48806D40F004001B49886598
:103BB0000846806D00F00400009000BF00BF0022A6
:103BC00011461E20FEF786FF1E20FEF76FFF23E042
:103BD0001649206888420DD100BF1048006E40F49D
:103BE00000300E4908660846006E00F40030009070
:103BF00000BF11E00E49206888420DD100BF074880
:103C0000006E40F48020054908660846006E00F406
:103C10008020009000BF00BF06B010BD0010024021
:103C20000004004000040048000800400044014037
:103C300000480140014691F83D00012801D00120D3
:103C40007047022081F83D000868C06840F001001C
:103C50000B68D860184B0868984213D00868B0F118
:103C6000804F0FD0154B086898420BD0144B086852
:103C7000984207D0134B0868984203D0124B08684B
:103C8000984210D108688068104B00EA0302062AA7
:103C90000FD0B2F5803F0CD00868006840F00100FA
:103CA0000B68186005E00868006840F001000B68C8
:103CB00018600020C4E70000002C01400004004010
:103CC00000080040003401400040014007000100AE
:103CD0002DE9F04104460D46002700BF94F83C0052
:103CE000012802D10220BDE8F081012084F83C00C7
:103CF00000BF022084F83D00206886683F480640E7
:103D000026F47F46206886602868702824D00CDC62
:103D100000F00F01002964D10011072861D2DFE80B
:103D200000F05354555649353F00354A811A9042A8
:103D30004FD009DCB0F5805F0DD0B0F5005F18D032
:103D4000B0F1101F4DD143E0102943D0202942D0BB
:103D5000502946D140E046E0D5E902136A68206860
:103D600002F0C3FB2068866846F07706206886600C
:103D700039E0D5E902136A68206802F0B6FB2068D2
:103D8000806840F48040216888602CE0EA686968B7
:103D9000206802F095FD5021206802F0B1FB22E07E
:103DA000EA686968206802F0DDFD6021206802F0A1
:103DB000A7FB18E0EA686968206802F081FD4021ED
:103DC000206802F09DFB0EE000BF00BF00BF00BFF7
:103DD00000BF00BF00BF00BF2968206802F090FB51
:103DE00001E0012700BF00BF012084F83D0000BFB3
:103DF000002084F83C0000BF384674E788FFCEFFFF
:103E00002000100010B504462068B0F1804F13D197
:103E10000021204600F006FE1449086000202168B9
:103E20004862124800681249B1FBF0F0114908607D
:103E30000021204600F0CEF80F492068884213D1B7
:103E40000021204600F0EEFD0C49086000202168AA
:103E500048620A4800680649B1FBF0F0084908606A
:103E60000021204600F0B6F810BD00003800002008
:103E700040420F0040000020000400403C000020B1
:103E8000440000202DE9F04104460D461646002767
:103E900000BF94F83C00012802D10220BDE8F08167
:103EA000012084F83C0000BF96B9EB68D5E9001208
:103EB000206802F019FD2068806920F00C0021685C
:103EC000886120688069A96808432168886141E0A9
:103ED000042E13D1EB68D5E90012206802F056FDDC
:103EE0002068806920F440602168886120688069CA
:103EF000A96840EA0120216888612BE0082E12D1D0
:103F0000EB68D5E90012206802F05DFD2068C06909
:103F100020F00C002168C8612068C069A9680843C6
:103F20002168C86116E00C2E13D1EB68D5E90012A8
:103F3000206802F064FD2068C06920F440602168B8
:103F4000C8612068C069A96840EA01202168C86189
:103F500000E0012700BF002084F83C0000BF384685
:103F60009CE710B504460CB9012010BD94F83D0043
:103F700028B9002084F83C00204600F029F80220EF
:103F800084F83D00211D206802F038FA012084F8F1
:103F9000480000BF84F83E0001213F200155402029
:103FA000015541200155422001554320015500BFD4
:103FB00000BF012084F844004520015546200155EA
:103FC0004720015500BF012084F83D000020CCE7C8
:103FD000704700002DE9F04104460D4615B994F8EC
:103FE0003E0015E0042D02D13F20005D10E0082DB9
:103FF00002D14020005D0BE00C2D02D14120005D7C
:1040000006E0102D02D14220005D01E04320005D5A
:10401000074615B994F844000BE0042D02D1452061
:10402000005D06E0082D02D14620005D01E047203A
:10403000005D8046012F02D1B8F1010F02D00120AE
:10404000BDE8F0811DB9022084F83E001AE0042D7D
:1040500003D102213F20015514E0082D03D1022194
:10406000402001550EE00C2D03D1022141200155C5
:1040700008E0102D03D102214220015502E0022167
:10408000432001551DB9022084F844000EE0042DA0
:1040900003D102214520015508E0082D03D102215A
:1040A0004620015502E00221472001550122294600
:1040B000206802F009FA18492068884213D0206865
:1040C000B0F1804F0FD01549206888420BD01449B9
:1040D0002068884207D013492068884203D01249DB
:1040E0002068884210D120688068104900EA0106E3
:1040F000062E0FD0B6F5803F0CD02068006840F047
:1041000001002168086005E02068006840F00100B7
:1041100021680860002093E7002C01400004004063
:104120000008004000340140004001400700010049
:104130002DE9F04304460D46002715B994F83E00DA
:1041400015E0042D02D13F20005D10E0082D02D1C2
:104150004020005D0BE00C2D02D14120005D06E007
:10416000102D02D14220005D01E04320005D804619
:1041700015B994F844000BE0042D02D14520005DF0
:1041800006E0082D02D14620005D01E04720005DD9
:104190008146B8F1010F02D1B9F1010F02D001201F
:1041A000BDE8F0831DB9022084F83E001AE0042D1A
:1041B00003D102213F20015514E0082D03D1022133
:1041C000402001550EE00C2D03D102214120015564
:1041D00008E0102D03D102214220015502E0022106
:1041E000432001551DB9022084F844000EE0042D3F
:1041F00003D102214520015508E0082D03D10221F9
:104200004620015502E002214720015535B1042D19
:104210000BD0082D10D00C2D1CD114E02068C068E4
:1042200040F002002168C86016E02068C06840F0D5
:1042300004002168C8600FE02068C06840F00800F2
:104240002168C86008E02068C06840F0100021685C
:10425000C86001E0012700BF00BF67BB01222946FB
:10426000206802F031F918492068884213D020688C
:10427000B0F1804F0FD01549206888420BD0144907
:104280002068884207D013492068884203D0124929
:104290002068884210D120688068104900EA010631
:1042A000062E0FD0B6F5803F0CD02068006840F095
:1042B00001002168086005E02068006840F0010006
:1042C0002168086038466BE7002C0140000400407C
:1042D0000008004000340140004001400700010098
:1042E00070B504462068C6682068056905F00200BC
:1042F000022819D106F00200022815D1401F2168BA
:104300000861012020772068806900F0030018B15F
:104310002046FFF777FD05E0204600F041F92046F2
:1043200000F02FFA0020207705F00400042819D1AE
:1043300006F00400042815D1C0432168086102205A
:1043400020772068806900F4407018B12046FFF79C
:1043500059FD05E0204600F023F9204600F011FA4F
:104360000020207705F00800082819D106F0080081
:10437000082815D1C04321680861042020772068EF
:10438000C06900F0030018B12046FFF73BFD05E0CF
:10439000204600F005F9204600F0F3F900202077D0
:1043A00005F01000102819D106F01000102815D1C2
:1043B000C04321680861082020772068C06900F4A4
:1043C000407018B12046FFF71DFD05E0204600F0C3
:1043D000E7F8204600F0D5F90020207705F001002D
:1043E00048B106F0010030B16FF0010021680861AA
:1043F000204600F06DFA05F08000802804D005F416
:104400000050B0F5005F0AD106F08000802806D188
:104410006FF40250216808612046FFF74CFA05F45A
:104420008070B0F5807F0AD106F08000802806D128
:104430006FF48070216808612046FFF73BFA05F0B1
:104440004000402809D106F04000402805D1C04373
:1044500021680861204600F0FEFA05F020002028BF
:1044600009D106F02000202805D1C0432168086149
:104470002046FFF721FA05F48010B0F5801F0BD11C
:1044800006F48010B0F5801F06D16FF4801021680B
:1044900008612046FFF777FA05F40010B0F5001F19
:1044A0000BD106F40010B0F5001F06D16FF4001018
:1044B000216808612046FFF765FA05F48000B0F531
:1044C000800F0BD106F48000B0F5800F06D16FF499
:1044D0008000216808612046FFF756FA05F40000C5
:1044E000B0F5000F0BD106F40000B0F5000F06D1B7
:1044F0006FF40000216808612046FFF7A3FA70BD41
:1045000010B586B00446142101A8FCF70AF9214928
:10451000206888421CD100BF1F48C06C40F00100D9
:104520001D49C8640846C06C00F00100009000BF3F
:1045300000BF4020019002200290002003900490D0
:104540000120059001A94FF09040FEF74BF91FE0C4
:104550001249206888421BD100BF0F48C06C40F050
:1045600001000D49C8640846C06C00F001000090CD
:1045700000BF00BF80200190022002900020039025
:1045800004900120059001A94FF09040FEF72AF910
:1045900006B010BD00440140001002400048014038
:1045A00070472DE9F04104460D461646002700BF2E
:1045B00094F83C00012802D10220BDE8F0810120DE
:1045C00084F83C0000BF0C2E51D005DC4EB1042E07
:1045D0001ED0082E7AD133E0102E60D0142EF9D1DF
:1045E00075E02946206801F097FF2068806940F057
:1045F0000800216888612068806920F00400216833
:10460000886120688069296908432168886178E0A9
:104610002946206801F0D6FF2068806940F40060D8
:10462000216888612068806920F480602168886141
:1046300020688069296940EA01202168886160E07A
:104640002946206802F018F82068C06940F0080088
:104650002168C8612068C06920F004002168C86131
:104660002068C069296908432168C86149E0294672
:10467000206802F05BF82068C06940F4006021689F
:10468000C8612068C06920F480602168C861206822
:10469000C069296940EA01202168C86131E02946E2
:1046A000206802F09DF82068006D40F00800216845
:1046B00008652068006D20F0040021680865206806
:1046C000006D29690843216808651AE017E029464A
:1046D000206802F0BDF82068006D40F40060216899
:1046E00008652068006D20F48060216808652068F6
:1046F000006D296940EA01202168086501E0012771
:1047000000BF00BF00BF002084F83C0000BF384657
:1047100053E710B504460CB9012010BD94F83D00D4
:1047200028B9002084F83C00204600F029F8022037
:1047300084F83D00211D206801F060FE012084F80E
:10474000480000BF84F83E0001213F200155402071
:10475000015541200155422001554320015500BF1C
:1047600000BF012084F84400452001554620015532
:104770004720015500BF012084F83D000020CCE710
:104780007047704770B504460D4615B994F83E0061
:1047900015E0042D02D13F20005D10E0082D02D16C
:1047A0004020005D0BE00C2D02D14120005D06E0B1
:1047B000102D02D14220005D01E04320005D012860
:1047C00001D0012070BD1DB9022084F83E001AE01E
:1047D000042D03D102213F20015514E0082D03D1FF
:1047E0000221402001550EE00C2D03D10221412071
:1047F000015508E0102D03D102214220015502E0AD
:1048000002214320015501222946206801F05CFE67
:104810002749206888420FD02649206888420BD05B
:1048200025492068884207D024492068884203D05F
:1048300023492068884201D1012000E0002028B1EE
:104840002068406C40F400402168486418492068A2
:10485000884213D02068B0F1804F0FD019492068EA
:1048600088420BD018492068884207D01149206837
:10487000884203D010492068884210D1206880689F
:10488000124900EA0106062E0FD0B6F5803F0CD083
:104890002068006840F001002168086005E0206899
:1048A000006840F001002168086000208AE70000ED
:1048B000002C014000340140004001400044014010
:1048C00000480140000400400008004007000100CB
:1048D00010B504464E49206888427CD14D48016895
:1048E0000068401C4B4A1060642905D101204A49E8
:1048F000087000201146086001214848FEF758F86A
:1049000008B1012000E00020454908710221434818
:10491000FEF74EF808B1012100E000214048017384
:1049200004213E48FEF744F808B1012100E00021CF
:104930003B48017501214FF09040FEF739F808B16E
:10494000012100E000213648017700205CE0344975
:1049500011F8301021B1012910D0022952D11CE0E8
:104960002F4901EBC001097939B901212C4A02F81C
:104970003010002102EBC002518043E0284901EBD6
:10498000C001097921B90221254A02F8301003E05B
:104990000021234A02F8301034E0214901EBC00124
:1049A0000979012924D100211D4A02F83010012182
:1049B00002EBC00251711A4901EBC0014988C829B4
:1049C0000ADA0021164A02EBC0029171144A02EB86
:1049D000C002518015E019E0114901EBC00149887E
:1049E000C8290EDD01210E4A02EBC002917108E0D8
:1049F0000B4901EBC0014988491C094A02EBC0027E
:104A0000518000BF00BF401C0428A0DB10BD000087
:104A1000000800403000002034000020000400485E
:104A2000340300200246002031B1042907D00829B0
:104A300008D00C290CD108E01368586B09E0136802
:104A4000986B06E01368D86B03E01368186C00E0FD
:104A500000BF00BF70477047014600BF91F8840057
:104A6000012801D102207047012081F8840000BF95
:104A70002420C1F88800086802680868006820F0EF
:104A800001000B68186022F0005200204866086898
:104A900002602020C1F8880000BF002081F8840057
:104AA00000BF00BFDFE77047704770B504460D4692
:104AB00000BF94F88400012801D1022070BD0120BC
:104AC00084F8840000BF2420C4F8880020680668A9
:104AD0002068006820F00100216808602068806874
:104AE00020F06060284321688860204601F0A6FF1E
:104AF000206806602020C4F8880000BF002084F8E9
:104B0000840000BF00BFD9E770B504460D4600BF62
:104B100094F88400012801D1022070BD012084F89E
:104B2000840000BF2420C4F888002068066820683C
:104B3000006820F00100216808602068806820F08B
:104B40006040284321688860204601F077FF206894
:104B500006602020C4F8880000BF002084F884008C
:104B600000BF00BFD9E77047704770472DE9F04795
:104B700004462068C569206806682068876840F692
:104B80000F0005EA0009B9F1000F0FD105F0200070
:104B900060B106F0200010B907F0805030B1606FAE
:104BA00010B12046616F8847BDE8F087B9F1000F6A
:104BB0007ED0D448384018B9D34830400028F7D0C8
:104BC00005F0010058B106F4807040B10120216861
:104BD0000862D4F8900040F00100C4F8900005F09D
:104BE000020058B107F0010040B1022021680862BC
:104BF000D4F8900040F00400C4F8900005F00400E0
:104C000058B107F0010040B1042021680862D4F8CF
:104C1000900040F00200C4F8900005F0080070B168
:104C200006F0200010B9B748384040B1082021688C
:104C30000862D4F8900040F00800C4F8900005F431
:104C4000006060B106F0806048B14FF400602168F8
:104C50000862D4F8900040F02000C4F89000D4F826
:104C60009000002852D005F0200050B106F020003E
:104C700010B907F0805020B1606F10B12046616F0D
:104C80008847D4F890A02068806800F04000402851
:104C900002D00AF0280070B3204601F0F9FF206826
:104CA000806800F04000402826D100BF00BF00E02F
:104CB0002DE02168083151E8001F21F040002168F3
:104CC000083141E80002002AF1D100BFD4F8800089
:104CD00068B18E48D4F880108863D4F88000FDF75E
:104CE00022FD98B1D4F88000816B88470EE0204601
:104CF000FFF73BFF0AE003E02046FFF736FF05E041
:104D00002046FFF732FF0020C4F890004CE7E06E29
:104D1000012865D105F01000002861D006F01000D0
:104D20000028FAD01020216808622068806800F00E
:104D30004000402865D1D4F88000006840681FFA20
:104D400080F8B8F1000F5BD0B4F85C00404557DD47
:104D5000A4F85E80D4F880000068006800F02000AD
:104D6000E8BB00BF00BF216851E8001F21F480703C
:104D7000226842E800010029F5D100BF00BF00BF52
:104D80002168083151E8001F21F001002168083135
:104D900041E80002002AF3D100BF00BF00BF216834
:104DA000083151E8001F21F040002168083141E836
:104DB0000002002AF3D100BF2020C4F88C0000209C
:104DC000E06600BF00BF216851E8001F21F010001D
:104DD000226842E800010029F5D100BF01E004E0AB
:104DE00053E0D4F88000FDF763FC02202067B4F89C
:104DF0005C00B4F85E20801A81B22046FFF753FEB3
:104E0000D2E634F85C0F6188401A1FFA80F8608897
:104E10005C3CC8B3B8F1000F36D000BF00BF2168BA
:104E200051E8001F21F49070226842E80001002937
:104E3000F5D100BF00BF00BF2168083151E8001F55
:104E4000304AD24301EA02002168083141E80002F9
:104E5000002AF1D100BF2020C4F88C000020E066B9
:104E6000606700BF00BF216851E8001F21F01000FB
:104E7000226842E800010029F5D100BF0220206726
:104E800041462046FFF70FFE8EE605F4801050B134
:104E900007F4800038B14FF4801021680862204682
:104EA000FFF762FE80E605F0800058B106F0800052
:104EB00010B907F4000028B1A06F10B12046A16F0F
:104EC000884771E605F0400030B106F0400018B1A7
:104ED000204601F013FF67E605F4000030B106F04C
:104EE000804018B12046FFF73EFE5DE605F0807079
:104EF00030B106F0004018B12046FFF7D5FD53E66B
:104F000000BF51E60100001020010004776C00088A
:104F100010B504460CB9012010BDA06900B100E035
:104F200000BFD4F8880028B9002084F88400204607
:104F300000F02AF82420C4F888002068006820F0D7
:104F4000010021680860A06A10B1204601F0A2FDAE
:104F5000204602F0E9F9012800D1DDE72068406829
:104F600020F49040216848602068806820F02A0082
:104F7000216888602068006840F0010021680860AE
:104F8000204601F003FEC7E710B598B0044614218F
:104F900013A8FBF7C6FB442102A8FBF7C2FB21497B
:104FA000206888423BD1012002900020039002A893
:104FB000FDF778FE08B1FCF71BFE00BF1A48006E33
:104FC00040F48040184908660846006E00F48040AE
:104FD000019000BF00BF00BF0846C06C40F0010058
:104FE000C8640846C06C00F00100019000BF00BF1B
:104FF0004FF4C0601390022014900020159016907A
:105000000720179013A94FF09040FDF7EBFB00220B
:1050100011462520FDF75EFD2520FDF747FD18B060
:1050200010BD0000003801400010024070B5044679
:105030000D461646D4F88C00202821D105B10EB9B2
:10504000012070BD0020E0660E492068884211D022
:105050002068406800F4000060B100BF00BF216814
:1050600051E8001F41F08060226842E800010029F9
:10507000F5D100BF32462946204602F017FBE0E793
:105080000220DEE70080004010B5044607480178A2
:10509000074802780078401C054B18700548815479
:1050A000012202490448FFF7C1FF10BD480000205B
:1050B0004900002054030020A00200202DE9F84FF1
:1050C00004460E4617469946D4F88800202854D145
:1050D00006B117B90120BDE8F88F00205434E06311
:1050E00021206063FDF772FC824627806780543C74
:1050F000A068B0F5805F04D1206910B90025B046E2
:1051000002E035464FF0000820E05346002280219F
:105110002046CDF8009002F077FB20B12020C4F8A3
:1051200088000320D7E745B9B8F80000C0F30800AD
:105130002168886208F1020803E028782168886203
:105140006D1CB4F85600401EA4F85600B4F8560082
:105150000028DAD15346002240212046CDF80090A5
:1051600002F052FB20B12020C4F888000320B2E7EF
:105170002020C4F888000020ADE70220ABE770478C
:1051800000BFFEE700B585B014216846FBF7C9FAF9
:10519000C0200090012001900290022003906946F7
:1051A0000248FDF71FFB05B000BD000000040048E9
:1051B00070B50825002401F085F813E06006040EA0
:1051C000002001F05FF8142002F0B9FB142002F077
:1051D000B6FB012001F056F8142002F0B0FB01F0FC
:1051E00065F80443281EA5F10101CDB2E6D101F016
:1051F00049F8142002F0A3FB01F08EF8204670BDA0
:1052000070B50446082517E0002001F03BF8142093
:1052100002F095FB04F0800001F06AF8142002F01F
:105220008EFB6006040E142002F089FB012001F0C1
:1052300029F8142002F083FB281EA5F10101CDB24C
:10524000E2D101F01FF8142002F079FB70BD10B517
:10525000012001F04DF8142002F071FB012001F053
:1052600011F8142002F06BFB002001F041F814202B
:1052700002F065FB002001F005F8142002F05FFB4E
:1052800010BD10B5002000F0FDFF142002F057FB08
:10529000002001F02DF8142002F051FB012000F055
:1052A000F1FF142002F04BFB012001F021F8142043
:1052B00002F045FB10BD10B5052401F003F81420E1
:1052C00002F03DFB012000F0DDFF142002F037FB6F
:1052D0000BE0601E84B2142002F031FB2CB901F007
:1052E0001BF8FFF7CEFF012010BD00F0DFFF002804
:1052F000EFD100F0C7FF01F00FF8142002F01FFB00
:105300000020F1E700B585B014216846FBF709FAE3
:105310004FF6FF70009000200190032003900020C2
:10532000029069460248FDF75DFA05B000BD000035
:105330000008004800B585B014216846FBF7F1F974
:105340004FF6FF7000900120019003200390002091
:10535000029069460248FDF745FA05B000BD00001D
:105360000008004830B5054600240021084600F03A
:105370005BF900F0A9F900BF03E0284600F068F9E6
:10538000641CB4F5963FF8D330BD000010B5044658
:1053900002A1204600F082F810BD0000202020204D
:1053A00020202020202020202020202020202020FD
:1053B0000000000000B587B0142102A8FBF7B1F986
:1053C00000BF2A48C06C40F004002849C864084661
:1053D000C06C00F00400019000BF00BF00BF084691
:1053E000C06C40F00100C8640846C06C00F00100C9
:1053F000019000BF00BF00BF0846C06C40F0020033
:10540000C8640846C06C00F00200019000BF00BFF5
:105410004FF4487002900120039000200590049002
:1054200002A91348FDF7DEF94FF4807002900120C5
:10543000039000200590049002A94FF09040FDF7E2
:10544000D1F9FFF777FF4FF09040806940F480700A
:105450004FF09041886106481830006840F40870A9
:1054600003491831086007B000BD00000010024079
:105470000004004870B505460E461446A4F120000D
:10548000C4B204EB4400044901EB00123146284643
:1054900000F01AF870BD000052840008F0B507460D
:1054A0000C46002540F23F1609E022783146384686
:1054B000FFF7E0FFA6F1100086B2641C6D1C207897
:1054C00008B1142DF1D3F0BD2DE9F043064689460D
:1054D000174600240025A046B0464946404600F045
:1054E000A3F800BF1EE000F0EFF800250FE037F84A
:1054F00014000121A940084020B90C48008800F0A0
:10550000A7F803E00A48008800F0A2F86D1C102DEF
:10551000EDD308F1010000F0FF084946404600F0D5
:1055200083F8641C182CDED3BDE8F0832C00002027
:105530002A00002010B5FFF73DFF002000F016F80C
:10554000094908800846008848F23021884202D183
:1055500000F008FD01E000F095FD002000F006F8E5
:105560000149088010BD00002E00002070B50446DF
:105570002748006840F40070254908600846006824
:1055800040F48070086022481038006840F0200025
:105590001F49103908601F4804601D48006840F02A
:1055A00020001B49086000BF00BF00BF184810382A
:1055B000006840F02000164910390860084600686D
:1055C00040F480700860FFF79DFE4FF09040806AC5
:1055D00040F480704FF09041886200BF00BF00BF70
:1055E0000C48001F006885B24FF09040806940F47D
:1055F00080704FF090418861FFF79CFE044810389E
:10560000006840F40070024910390860284670BDF7
:10561000280400481408004801B5BDF800000149FD
:10562000088008BD2C00002030B504460D462146F8
:10563000202000F085F82946212000F081F830BDB7
:1056400001B5BDF800000149088008BD2A0000200E
:105650001B49096841F40071194A11601849103951
:10566000096841F48071164A103A116011460968C0
:1056700041F020011160134908601149096841F0A7
:1056800020010F4A116000BF00BF00BF0C49103954
:10569000096841F020010A4A103A11601146096870
:1056A00041F48071116000BF00BF00BF0449103990
:1056B000096841F40071024A103A11607047000015
:1056C00028040048140800481B48006840F4007093
:1056D000194908600846006840F480700860164860
:1056E0001038006840F0200013491039086022206B
:1056F000124908601048006840F020000E49086018
:1057000000BF00BF00BF0C481038006840F0200008
:105710000949103908600846006840F48070086044
:1057200000BF00BF00BF04481038006840F400709C
:1057300001491039086070472804004814080048DF
:10574000214A126842F400721F4B1A601A4612680E
:1057500042F480721A601C4A103A126842F0200229
:10576000194B103B1A60194A1060174A126842F030
:105770002002154B1A6000BF00BF00BF124A103A4A
:10578000126842F02002104B103B1A601A46126851
:1057900042F480721A600D4A11600B4A126842F09E
:1057A0002002094B1A6000BF00BF00BF064A103A32
:1057B000126842F02002044B103B1A601A4612682D
:1057C00042F480721A6070472804004814080048A8
:1057D00010B50446E043C4B201224FF6FF710948F8
:1057E000FDF7EEF8210200220648FDF7E9F8012254
:1057F00004210548FDF7E4F8002204210248FDF7E2
:10580000DFF810BD00080048000C004810B5044641
:1058100000BF054800782043034908700846007817
:10582000FFF7D6FF10BD00002800002010B5044689
:10583000E043C4B204480078204003490870084699
:105840000078FFF7C5FF10BD2800002010B5044602
:105850000448007860400349087008460078FFF764
:10586000B7FF10BD280000208168024A1140491C82
:1058700081607047C0FFFF7F0146886800F01F000D
:105880007047024602F1600000EB8103186800F0E7
:10589000F840704701468868C0F3C0007047014671
:1058A000886800F0010070470146886800F0010038
:1058B000704701468868C0F30070704701468868E9
:1058C000C0F38000704701468868C0F380007047CD
:1058D0008168024A1140091D81607047C0FFFF7F47
:1058E00070B500F11404C1F3406504EB85031C6836
:1058F000C1F304560725B540AC43C1F3045502FA81
:1059000005F52C431C6070BD826822F0E0720A43EA
:105910008260704710B500F1600404EB81031C68DD
:1059200024F0004414431C6010BD426922F0004280
:105930000A4342617047000000B58BB00020089018
:1059400009900A9020216846FAF7EBFE4FF0A0403C
:105950001F4908604FF40030486000211C488160F6
:10596000C1600161416104218161002101774177BA
:1059700001210162002180F82410C162016380F8D6
:105980003810C16380F84010FCF744FC08B1FCF704
:105990002FF90020089008A90D48FCF72DF908B14F
:1059A000FCF726F90B480090062001900020029099
:1059B0007F2003900420049000200590694604484D
:1059C000FCF7A0F908B1FCF713F90BB000BD00001B
:1059D0004C0000200008302E00B589B0202101A81D
:1059E000FAF79FFE1A481B490860400248600021F0
:1059F00018488160C1600161416104218161002119
:105A00000177417701210162002180F82410C162F1
:105A1000016380F83810C16380F84010FCF7FAFB8E
:105A200008B1FCF7E5F80C48019006200290002030
:105A300003907F200490042005900020069001A987
:105A40000448FCF75FF908B1FCF7D2F809B000BDD3
:105A500000010050B80000200080F03E00B587B083
:105A6000142102A8FAF75DFE00BF4548C06C40F063
:105A700004004349C8640846C06C00F0040001906B
:105A800000BF00BF00BF0846C06C40F02000C864E3
:105A90000846C06C00F02000019000BF00BF00BFAE
:105AA0000846C06C40F00100C8640846C06C00F0B5
:105AB0000100019000BF00BF00BF0846C06C40F06D
:105AC0000200C8640846C06C00F00200019000BFEC
:105AD00000BF00BF0846C06C40F00800C86408461C
